{
  "contractName": "Factory",
  "abi": [
    {
      "anonymous": false,
      "inputs": [
        {
          "indexed": true,
          "internalType": "contract Fundraiser",
          "name": "fundraiser",
          "type": "address"
        },
        {
          "indexed": true,
          "internalType": "address",
          "name": "owner",
          "type": "address"
        }
      ],
      "name": "FundraiserCreated",
      "type": "event"
    },
    {
      "anonymous": false,
      "inputs": [
        {
          "indexed": true,
          "internalType": "contract Fundraiser",
          "name": "fundraiser",
          "type": "address"
        },
        {
          "indexed": true,
          "internalType": "address",
          "name": "validator",
          "type": "address"
        },
        {
          "indexed": false,
          "internalType": "bool",
          "name": "status",
          "type": "bool"
        },
        {
          "indexed": false,
          "internalType": "bytes32",
          "name": "signature",
          "type": "bytes32"
        }
      ],
      "name": "FundraiserSigned",
      "type": "event"
    },
    {
      "anonymous": false,
      "inputs": [
        {
          "indexed": false,
          "internalType": "uint256",
          "name": "id",
          "type": "uint256"
        },
        {
          "indexed": true,
          "internalType": "address",
          "name": "validatorAddress",
          "type": "address"
        },
        {
          "indexed": false,
          "internalType": "string",
          "name": "name",
          "type": "string"
        },
        {
          "indexed": false,
          "internalType": "string",
          "name": "log",
          "type": "string"
        }
      ],
      "name": "ValidatorCreated",
      "type": "event"
    },
    {
      "inputs": [],
      "name": "fundraiserIdCounter",
      "outputs": [
        {
          "internalType": "uint256",
          "name": "",
          "type": "uint256"
        }
      ],
      "stateMutability": "view",
      "type": "function",
      "constant": true
    },
    {
      "inputs": [],
      "name": "validatorIdCounter",
      "outputs": [
        {
          "internalType": "uint256",
          "name": "",
          "type": "uint256"
        }
      ],
      "stateMutability": "view",
      "type": "function",
      "constant": true
    },
    {
      "inputs": [
        {
          "internalType": "address",
          "name": "",
          "type": "address"
        }
      ],
      "name": "validatorsByAddress",
      "outputs": [
        {
          "internalType": "uint256",
          "name": "id",
          "type": "uint256"
        },
        {
          "internalType": "address",
          "name": "validatorAddress",
          "type": "address"
        },
        {
          "internalType": "string",
          "name": "name",
          "type": "string"
        }
      ],
      "stateMutability": "view",
      "type": "function",
      "constant": true
    },
    {
      "inputs": [
        {
          "internalType": "uint256",
          "name": "",
          "type": "uint256"
        }
      ],
      "name": "validatorsById",
      "outputs": [
        {
          "internalType": "uint256",
          "name": "id",
          "type": "uint256"
        },
        {
          "internalType": "address",
          "name": "validatorAddress",
          "type": "address"
        },
        {
          "internalType": "string",
          "name": "name",
          "type": "string"
        }
      ],
      "stateMutability": "view",
      "type": "function",
      "constant": true
    },
    {
      "inputs": [],
      "name": "fundraisersCount",
      "outputs": [
        {
          "internalType": "uint256",
          "name": "",
          "type": "uint256"
        }
      ],
      "stateMutability": "view",
      "type": "function",
      "constant": true
    },
    {
      "inputs": [
        {
          "internalType": "address",
          "name": "_address",
          "type": "address"
        }
      ],
      "name": "getRegisterStatus",
      "outputs": [
        {
          "internalType": "bool",
          "name": "",
          "type": "bool"
        }
      ],
      "stateMutability": "view",
      "type": "function",
      "constant": true
    },
    {
      "inputs": [
        {
          "internalType": "address",
          "name": "_address",
          "type": "address"
        },
        {
          "internalType": "string",
          "name": "_name",
          "type": "string"
        }
      ],
      "name": "registerValidator",
      "outputs": [],
      "stateMutability": "nonpayable",
      "type": "function"
    },
    {
      "inputs": [
        {
          "internalType": "string",
          "name": "title",
          "type": "string"
        },
        {
          "internalType": "string",
          "name": "description",
          "type": "string"
        },
        {
          "internalType": "string",
          "name": "url",
          "type": "string"
        },
        {
          "internalType": "string",
          "name": "imageURL",
          "type": "string"
        },
        {
          "internalType": "address payable",
          "name": "beneficiary",
          "type": "address"
        }
      ],
      "name": "createFundraiser",
      "outputs": [],
      "stateMutability": "nonpayable",
      "type": "function"
    },
    {
      "inputs": [
        {
          "internalType": "uint256",
          "name": "fundraiserId",
          "type": "uint256"
        },
        {
          "internalType": "bool",
          "name": "status",
          "type": "bool"
        },
        {
          "internalType": "bytes32",
          "name": "signature",
          "type": "bytes32"
        },
        {
          "internalType": "address",
          "name": "validatorAddress",
          "type": "address"
        }
      ],
      "name": "signFundraiser",
      "outputs": [],
      "stateMutability": "nonpayable",
      "type": "function"
    },
    {
      "inputs": [
        {
          "internalType": "uint256",
          "name": "limit",
          "type": "uint256"
        },
        {
          "internalType": "uint256",
          "name": "offset",
          "type": "uint256"
        }
      ],
      "name": "fundraisers",
      "outputs": [
        {
          "internalType": "contract Fundraiser[]",
          "name": "coll",
          "type": "address[]"
        }
      ],
      "stateMutability": "view",
      "type": "function",
      "constant": true
    }
  ],
  "bytecode": "0x60806040525f80555f600155348015610016575f80fd5b50614043806100245f395ff3fe608060405234801562000010575f80fd5b5060043610620000aa575f3560e01c8063919dd0d0116200006d578063919dd0d0146200017c5780639d3b435514620001b4578063c4c4484914620001d6578063d70f367414620001f6578063f8034195146200021857620000aa565b806311d752ad14620000ae578063426e236d14620000ce578063704914f8146200010457806375c0f6b2146200013a5780638f029d5e146200015a575b5f80fd5b620000cc6004803603810190620000c6919062000d95565b62000250565b005b620000ec6004803603810190620000e6919062000ed7565b62000372565b604051620000fb919062000f23565b60405180910390f35b6200012260048036038101906200011c919062000f76565b620003cb565b604051620001319190620010d8565b60405180910390f35b620001586004803603810190620001529190620010fa565b62000572565b005b62000164620007fa565b6040516200017391906200116f565b60405180910390f35b6200019a60048036038101906200019491906200118a565b620007ff565b604051620001ab939291906200124f565b60405180910390f35b620001be620008d2565b604051620001cd91906200116f565b60405180910390f35b620001f46004803603810190620001ee9190620012f8565b620008de565b005b6200020062000ae4565b6040516200020f91906200116f565b60405180910390f35b62000236600480360381019062000230919062000ed7565b62000aea565b60405162000247939291906200124f565b60405180910390f35b60015f815480929190620002649062001394565b91905055505f600154868686868633604051620002819062000bbd565b620002939796959493929190620013f1565b604051809103905ff080158015620002ad573d5f803e3d5ffd5b509050600281908060018154018082558091505060019003905f5260205f20015f9091909190916101000a81548173ffffffffffffffffffffffffffffffffffffffff021916908373ffffffffffffffffffffffffffffffffffffffff1602179055503373ffffffffffffffffffffffffffffffffffffffff168173ffffffffffffffffffffffffffffffffffffffff167fa2398daac0c8053a1e3c0280916c2ec6bc884f0959c27e639a4db829b7eabfb160405160405180910390a3505050505050565b5f8060035f8473ffffffffffffffffffffffffffffffffffffffff1673ffffffffffffffffffffffffffffffffffffffff1681526020019081526020015f206002018054620003c190620014b5565b9050119050919050565b6060620003d7620008d2565b8211156200041c576040517f08c379a0000000000000000000000000000000000000000000000000000000008152600401620004139062001537565b60405180910390fd5b5f8262000428620008d2565b62000434919062001557565b905083811062000445578362000447565b805b9050601481106200045a5760146200045c565b805b90508067ffffffffffffffff8111156200047b576200047a62000bf4565b5b604051908082528060200260200182016040528015620004aa5781602001602082028036833780820191505090505b5091505f5b818110156200056a5760028185620004c8919062001591565b81548110620004dc57620004db620015cb565b5b905f5260205f20015f9054906101000a900473ffffffffffffffffffffffffffffffffffffffff168382815181106200051a5762000519620015cb565b5b602002602001019073ffffffffffffffffffffffffffffffffffffffff16908173ffffffffffffffffffffffffffffffffffffffff16815250508080620005619062001394565b915050620004af565b505092915050565b5f815103620005b8576040517f08c379a0000000000000000000000000000000000000000000000000000000008152600401620005af9062001646565b60405180910390fd5b620005c38262000372565b1562000606576040517f08c379a0000000000000000000000000000000000000000000000000000000008152600401620005fd90620016b4565b60405180910390fd5b5f80815480929190620006199062001394565b919050555060405180606001604052805f5481526020018373ffffffffffffffffffffffffffffffffffffffff1681526020018281525060035f8473ffffffffffffffffffffffffffffffffffffffff1673ffffffffffffffffffffffffffffffffffffffff1681526020019081526020015f205f820151815f01556020820151816001015f6101000a81548173ffffffffffffffffffffffffffffffffffffffff021916908373ffffffffffffffffffffffffffffffffffffffff1602179055506040820151816002019081620006f291906200188e565b5090505060405180606001604052805f5481526020018373ffffffffffffffffffffffffffffffffffffffff1681526020018281525060045f805481526020019081526020015f205f820151815f01556020820151816001015f6101000a81548173ffffffffffffffffffffffffffffffffffffffff021916908373ffffffffffffffffffffffffffffffffffffffff16021790555060408201518160020190816200079f91906200188e565b509050508173ffffffffffffffffffffffffffffffffffffffff167f4cc4fa983652fefacb3733f067dd8033256cc7c7ae42a43580e89c8936ecc0bd5f5483604051620007ee929190620019c0565b60405180910390a25050565b5f5481565b6004602052805f5260405f205f91509050805f015490806001015f9054906101000a900473ffffffffffffffffffffffffffffffffffffffff16908060020180546200084b90620014b5565b80601f01602080910402602001604051908101604052809291908181526020018280546200087990620014b5565b8015620008c85780601f106200089e57610100808354040283529160200191620008c8565b820191905f5260205f20905b815481529060010190602001808311620008aa57829003601f168201915b5050505050905083565b5f600280549050905090565b5f60035f3373ffffffffffffffffffffffffffffffffffffffff1673ffffffffffffffffffffffffffffffffffffffff1681526020019081526020015f205f01540362000962576040517f08c379a0000000000000000000000000000000000000000000000000000000008152600401620009599062001a55565b60405180910390fd5b5f841180156200097457506001548411155b620009b6576040517f08c379a0000000000000000000000000000000000000000000000000000000008152600401620009ad9062001ac3565b60405180910390fd5b5f6002600186620009c8919062001557565b81548110620009dc57620009db620015cb565b5b905f5260205f20015f9054906101000a900473ffffffffffffffffffffffffffffffffffffffff1690508073ffffffffffffffffffffffffffffffffffffffff16632c94c33f8585856040518463ffffffff1660e01b815260040162000a459392919062001af4565b5f604051808303815f87803b15801562000a5d575f80fd5b505af115801562000a70573d5f803e3d5ffd5b505050503373ffffffffffffffffffffffffffffffffffffffff168173ffffffffffffffffffffffffffffffffffffffff167f2a4c5611dee40ede10d991958c829789fa3a11c0d057d6d5a9dee617cd3c64cf868660405162000ad592919062001b2f565b60405180910390a35050505050565b60015481565b6003602052805f5260405f205f91509050805f015490806001015f9054906101000a900473ffffffffffffffffffffffffffffffffffffffff169080600201805462000b3690620014b5565b80601f016020809104026020016040519081016040528092919081815260200182805462000b6490620014b5565b801562000bb35780601f1062000b895761010080835404028352916020019162000bb3565b820191905f5260205f20905b81548152906001019060200180831162000b9557829003601f168201915b5050505050905083565b6124b38062001b5b83390190565b5f604051905090565b5f80fd5b5f80fd5b5f80fd5b5f80fd5b5f601f19601f8301169050919050565b7f4e487b71000000000000000000000000000000000000000000000000000000005f52604160045260245ffd5b62000c2c8262000be4565b810181811067ffffffffffffffff8211171562000c4e5762000c4d62000bf4565b5b80604052505050565b5f62000c6262000bcb565b905062000c70828262000c21565b919050565b5f67ffffffffffffffff82111562000c925762000c9162000bf4565b5b62000c9d8262000be4565b9050602081019050919050565b828183375f83830152505050565b5f62000cce62000cc88462000c75565b62000c57565b90508281526020810184848401111562000ced5762000cec62000be0565b5b62000cfa84828562000caa565b509392505050565b5f82601f83011262000d195762000d1862000bdc565b5b813562000d2b84826020860162000cb8565b91505092915050565b5f73ffffffffffffffffffffffffffffffffffffffff82169050919050565b5f62000d5f8262000d34565b9050919050565b62000d718162000d53565b811462000d7c575f80fd5b50565b5f8135905062000d8f8162000d66565b92915050565b5f805f805f60a0868803121562000db15762000db062000bd4565b5b5f86013567ffffffffffffffff81111562000dd15762000dd062000bd8565b5b62000ddf8882890162000d02565b955050602086013567ffffffffffffffff81111562000e035762000e0262000bd8565b5b62000e118882890162000d02565b945050604086013567ffffffffffffffff81111562000e355762000e3462000bd8565b5b62000e438882890162000d02565b935050606086013567ffffffffffffffff81111562000e675762000e6662000bd8565b5b62000e758882890162000d02565b925050608062000e888882890162000d7f565b9150509295509295909350565b5f62000ea18262000d34565b9050919050565b62000eb38162000e95565b811462000ebe575f80fd5b50565b5f8135905062000ed18162000ea8565b92915050565b5f6020828403121562000eef5762000eee62000bd4565b5b5f62000efe8482850162000ec1565b91505092915050565b5f8115159050919050565b62000f1d8162000f07565b82525050565b5f60208201905062000f385f83018462000f12565b92915050565b5f819050919050565b62000f528162000f3e565b811462000f5d575f80fd5b50565b5f8135905062000f708162000f47565b92915050565b5f806040838503121562000f8f5762000f8e62000bd4565b5b5f62000f9e8582860162000f60565b925050602062000fb18582860162000f60565b9150509250929050565b5f81519050919050565b5f82825260208201905092915050565b5f819050602082019050919050565b5f819050919050565b5f6200100d62001007620010018462000d34565b62000fe4565b62000d34565b9050919050565b5f620010208262000fed565b9050919050565b5f620010338262001014565b9050919050565b620010458162001027565b82525050565b5f6200105883836200103a565b60208301905092915050565b5f602082019050919050565b5f6200107c8262000fbb565b62001088818562000fc5565b9350620010958362000fd5565b805f5b83811015620010cb578151620010af88826200104b565b9750620010bc8362001064565b92505060018101905062001098565b5085935050505092915050565b5f6020820190508181035f830152620010f2818462001070565b905092915050565b5f806040838503121562001113576200111262000bd4565b5b5f620011228582860162000ec1565b925050602083013567ffffffffffffffff81111562001146576200114562000bd8565b5b620011548582860162000d02565b9150509250929050565b620011698162000f3e565b82525050565b5f602082019050620011845f8301846200115e565b92915050565b5f60208284031215620011a257620011a162000bd4565b5b5f620011b18482850162000f60565b91505092915050565b620011c58162000e95565b82525050565b5f81519050919050565b5f82825260208201905092915050565b5f5b8381101562001204578082015181840152602081019050620011e7565b5f8484015250505050565b5f6200121b82620011cb565b620012278185620011d5565b935062001239818560208601620011e5565b620012448162000be4565b840191505092915050565b5f606082019050620012645f8301866200115e565b620012736020830185620011ba565b81810360408301526200128781846200120f565b9050949350505050565b6200129c8162000f07565b8114620012a7575f80fd5b50565b5f81359050620012ba8162001291565b92915050565b5f819050919050565b620012d481620012c0565b8114620012df575f80fd5b50565b5f81359050620012f281620012c9565b92915050565b5f805f806080858703121562001313576200131262000bd4565b5b5f620013228782880162000f60565b94505060206200133587828801620012aa565b93505060406200134887828801620012e2565b92505060606200135b8782880162000ec1565b91505092959194509250565b7f4e487b71000000000000000000000000000000000000000000000000000000005f52601160045260245ffd5b5f620013a08262000f3e565b91507fffffffffffffffffffffffffffffffffffffffffffffffffffffffffffffffff8203620013d557620013d462001367565b5b600182019050919050565b620013eb8162000d53565b82525050565b5f60e082019050620014065f83018a6200115e565b81810360208301526200141a81896200120f565b905081810360408301526200143081886200120f565b905081810360608301526200144681876200120f565b905081810360808301526200145c81866200120f565b90506200146d60a0830185620013e0565b6200147c60c0830184620011ba565b98975050505050505050565b7f4e487b71000000000000000000000000000000000000000000000000000000005f52602260045260245ffd5b5f6002820490506001821680620014cd57607f821691505b602082108103620014e357620014e262001488565b5b50919050565b7f6f6666736574206f7574206f6620626f756e64730000000000000000000000005f82015250565b5f6200151f601483620011d5565b91506200152c82620014e9565b602082019050919050565b5f6020820190508181035f830152620015508162001511565b9050919050565b5f620015638262000f3e565b9150620015708362000f3e565b92508282039050818111156200158b576200158a62001367565b5b92915050565b5f6200159d8262000f3e565b9150620015aa8362000f3e565b9250828201905080821115620015c557620015c462001367565b5b92915050565b7f4e487b71000000000000000000000000000000000000000000000000000000005f52603260045260245ffd5b7f4e616d65206973206e6f742076616c69640000000000000000000000000000005f82015250565b5f6200162e601183620011d5565b91506200163b82620015f8565b602082019050919050565b5f6020820190508181035f8301526200165f8162001620565b9050919050565b7f55736572206d757374206e6f74206265207265676973746572656400000000005f82015250565b5f6200169c601b83620011d5565b9150620016a98262001666565b602082019050919050565b5f6020820190508181035f830152620016cd816200168e565b9050919050565b5f819050815f5260205f209050919050565b5f6020601f8301049050919050565b5f82821b905092915050565b5f60088302620017327fffffffffffffffffffffffffffffffffffffffffffffffffffffffffffffffff82620016f5565b6200173e8683620016f5565b95508019841693508086168417925050509392505050565b5f62001776620017706200176a8462000f3e565b62000fe4565b62000f3e565b9050919050565b5f819050919050565b620017918362001756565b620017a9620017a0826200177d565b84845462001701565b825550505050565b5f90565b620017bf620017b1565b620017cc81848462001786565b505050565b5b81811015620017f357620017e75f82620017b5565b600181019050620017d2565b5050565b601f82111562001842576200180c81620016d4565b6200181784620016e6565b8101602085101562001827578190505b6200183f6200183685620016e6565b830182620017d1565b50505b505050565b5f82821c905092915050565b5f620018645f198460080262001847565b1980831691505092915050565b5f6200187e838362001853565b9150826002028217905092915050565b6200189982620011cb565b67ffffffffffffffff811115620018b557620018b462000bf4565b5b620018c18254620014b5565b620018ce828285620017f7565b5f60209050601f83116001811462001904575f8415620018ef578287015190505b620018fb858262001871565b8655506200196a565b601f1984166200191486620016d4565b5f5b828110156200193d5784890151825560018201915060208501945060208101905062001916565b868310156200195d578489015162001959601f89168262001853565b8355505b6001600288020188555050505b505050505050565b7f56616c696461746f72207375636365737366756c6c79206372656174656400005f82015250565b5f620019a8601e83620011d5565b9150620019b58262001972565b602082019050919050565b5f606082019050620019d55f8301856200115e565b8181036020830152620019e981846200120f565b90508181036040830152620019fe816200199a565b90509392505050565b7f43616c6c6572206973206e6f7420612076616c696461746f72000000000000005f82015250565b5f62001a3d601983620011d5565b915062001a4a8262001a07565b602082019050919050565b5f6020820190508181035f83015262001a6e8162001a2f565b9050919050565b7f496e76616c69642066756e6472616973657220494400000000000000000000005f82015250565b5f62001aab601583620011d5565b915062001ab88262001a75565b602082019050919050565b5f6020820190508181035f83015262001adc8162001a9d565b9050919050565b62001aee81620012c0565b82525050565b5f60608201905062001b095f83018662000f12565b62001b18602083018562001ae3565b62001b276040830184620011ba565b949350505050565b5f60408201905062001b445f83018562000f12565b62001b53602083018462001ae3565b939250505056fe608060405234801562000010575f80fd5b50604051620024b3380380620024b3833981810160405281019062000036919062000653565b805f73ffffffffffffffffffffffffffffffffffffffff168173ffffffffffffffffffffffffffffffffffffffff1603620000aa575f6040517f1e4fbdf7000000000000000000000000000000000000000000000000000000008152600401620000a191906200078e565b60405180910390fd5b620000bb81620001cb60201b60201c565b50866002819055508560039081620000d49190620009d7565b508460049081620000e69190620009d7565b508360059081620000f89190620009d7565b5082600690816200010a9190620009d7565b5081600a5f6101000a81548173ffffffffffffffffffffffffffffffffffffffff021916908373ffffffffffffffffffffffffffffffffffffffff1602179055505f60075f6101000a81548160ff0219169083151502179055505f801b6008819055505f60095f6101000a81548173ffffffffffffffffffffffffffffffffffffffff021916908373ffffffffffffffffffffffffffffffffffffffff160217905550620001be816200028c60201b60201c565b5050505050505062000abb565b5f805f9054906101000a900473ffffffffffffffffffffffffffffffffffffffff169050815f806101000a81548173ffffffffffffffffffffffffffffffffffffffff021916908373ffffffffffffffffffffffffffffffffffffffff1602179055508173ffffffffffffffffffffffffffffffffffffffff168173ffffffffffffffffffffffffffffffffffffffff167f8be0079c531659141344cd1fd0a4f28419497f9722a3daafe3b4186f6b6457e060405160405180910390a35050565b6200029c6200032360201b60201c565b5f73ffffffffffffffffffffffffffffffffffffffff168173ffffffffffffffffffffffffffffffffffffffff16036200030f575f6040517f1e4fbdf70000000000000000000000000000000000000000000000000000000081526004016200030691906200078e565b60405180910390fd5b6200032081620001cb60201b60201c565b50565b62000333620003c560201b60201c565b73ffffffffffffffffffffffffffffffffffffffff1662000359620003cc60201b60201c565b73ffffffffffffffffffffffffffffffffffffffff1614620003c35762000385620003c560201b60201c565b6040517f118cdaa7000000000000000000000000000000000000000000000000000000008152600401620003ba91906200078e565b60405180910390fd5b565b5f33905090565b5f805f9054906101000a900473ffffffffffffffffffffffffffffffffffffffff16905090565b5f604051905090565b5f80fd5b5f80fd5b5f819050919050565b620004188162000404565b811462000423575f80fd5b50565b5f8151905062000436816200040d565b92915050565b5f80fd5b5f80fd5b5f601f19601f8301169050919050565b7f4e487b71000000000000000000000000000000000000000000000000000000005f52604160045260245ffd5b6200048c8262000444565b810181811067ffffffffffffffff82111715620004ae57620004ad62000454565b5b80604052505050565b5f620004c2620003f3565b9050620004d0828262000481565b919050565b5f67ffffffffffffffff821115620004f257620004f162000454565b5b620004fd8262000444565b9050602081019050919050565b5f5b83811015620005295780820151818401526020810190506200050c565b5f8484015250505050565b5f6200054a6200054484620004d5565b620004b7565b90508281526020810184848401111562000569576200056862000440565b5b620005768482856200050a565b509392505050565b5f82601f8301126200059557620005946200043c565b5b8151620005a784826020860162000534565b91505092915050565b5f73ffffffffffffffffffffffffffffffffffffffff82169050919050565b5f620005db82620005b0565b9050919050565b620005ed81620005cf565b8114620005f8575f80fd5b50565b5f815190506200060b81620005e2565b92915050565b5f6200061d82620005b0565b9050919050565b6200062f8162000611565b81146200063a575f80fd5b50565b5f815190506200064d8162000624565b92915050565b5f805f805f805f60e0888a031215620006715762000670620003fc565b5b5f620006808a828b0162000426565b975050602088015167ffffffffffffffff811115620006a457620006a362000400565b5b620006b28a828b016200057e565b965050604088015167ffffffffffffffff811115620006d657620006d562000400565b5b620006e48a828b016200057e565b955050606088015167ffffffffffffffff81111562000708576200070762000400565b5b620007168a828b016200057e565b945050608088015167ffffffffffffffff8111156200073a576200073962000400565b5b620007488a828b016200057e565b93505060a06200075b8a828b01620005fb565b92505060c06200076e8a828b016200063d565b91505092959891949750929550565b620007888162000611565b82525050565b5f602082019050620007a35f8301846200077d565b92915050565b5f81519050919050565b7f4e487b71000000000000000000000000000000000000000000000000000000005f52602260045260245ffd5b5f6002820490506001821680620007f857607f821691505b6020821081036200080e576200080d620007b3565b5b50919050565b5f819050815f5260205f209050919050565b5f6020601f8301049050919050565b5f82821b905092915050565b5f60088302620008727fffffffffffffffffffffffffffffffffffffffffffffffffffffffffffffffff8262000835565b6200087e868362000835565b95508019841693508086168417925050509392505050565b5f819050919050565b5f620008bf620008b9620008b38462000404565b62000896565b62000404565b9050919050565b5f819050919050565b620008da836200089f565b620008f2620008e982620008c6565b84845462000841565b825550505050565b5f90565b62000908620008fa565b62000915818484620008cf565b505050565b5b818110156200093c57620009305f82620008fe565b6001810190506200091b565b5050565b601f8211156200098b57620009558162000814565b620009608462000826565b8101602085101562000970578190505b620009886200097f8562000826565b8301826200091a565b50505b505050565b5f82821c905092915050565b5f620009ad5f198460080262000990565b1980831691505092915050565b5f620009c783836200099c565b9150826002028217905092915050565b620009e282620007a9565b67ffffffffffffffff811115620009fe57620009fd62000454565b5b62000a0a8254620007e0565b62000a1782828562000940565b5f60209050601f83116001811462000a4d575f841562000a38578287015190505b62000a448582620009ba565b86555062000ab3565b601f19841662000a5d8662000814565b5f5b8281101562000a865784890151825560018201915060208501945060208101905062000a5f565b8683101562000aa6578489015162000aa2601f8916826200099c565b8355505b6001600288020188555050505b505050505050565b6119ea8062000ac95f395ff3fe60806040526004361061012d575f3560e01c806351ff4847116100aa5780638da5cb5b1161006e5780638da5cb5b1461038f578063af640d0f146103b9578063b90497e0146103e3578063de2ed8931461040d578063ed88c68e14610437578063f2fde38b146104415761013c565b806351ff4847146102d35780635600f04f146102fd5780636049a45d14610327578063715018a61461034f5780637284e416146103655761013c565b806338af3eed116100f157806338af3eed146102155780633ccfd60b1461023f5780633fe4676e1461025557806344a2563b1461027f5780634a79d50c146102a95761013c565b80630180b97c146101465780631a57f7b4146101705780631c31f7101461019b5780631f522595146101c35780632c94c33f146101ed5761013c565b3661013c5761013a610469565b005b610144610469565b005b348015610151575f80fd5b5061015a6104e8565b6040516101679190610ea7565b60405180910390f35b34801561017b575f80fd5b5061018461052f565b604051610192929190610f77565b60405180910390f35b3480156101a6575f80fd5b506101c160048036038101906101bc919061100e565b61069c565b005b3480156101ce575f80fd5b506101d76106e7565b6040516101e49190610ea7565b60405180910390f35b3480156101f8575f80fd5b50610213600480360381019061020e91906110dc565b6106ed565b005b348015610220575f80fd5b506102296107ae565b604051610236919061113b565b60405180910390f35b34801561024a575f80fd5b506102536107d3565b005b348015610260575f80fd5b5061026961087e565b6040516102769190611163565b60405180910390f35b34801561028a575f80fd5b506102936108a3565b6040516102a0919061118b565b60405180910390f35b3480156102b4575f80fd5b506102bd6108b5565b6040516102ca919061122e565b60405180910390f35b3480156102de575f80fd5b506102e7610941565b6040516102f4919061125d565b60405180910390f35b348015610308575f80fd5b50610311610947565b60405161031e919061122e565b60405180910390f35b348015610332575f80fd5b5061034d600480360381019061034891906112d7565b6109d3565b005b34801561035a575f80fd5b50610363610a6e565b005b348015610370575f80fd5b50610379610a81565b604051610386919061122e565b60405180910390f35b34801561039a575f80fd5b506103a3610b0d565b6040516103b09190611163565b60405180910390f35b3480156103c4575f80fd5b506103cd610b34565b6040516103da9190610ea7565b60405180910390f35b3480156103ee575f80fd5b506103f7610b3a565b604051610404919061122e565b60405180910390f35b348015610418575f80fd5b50610421610bc6565b60405161042e9190610ea7565b60405180910390f35b61043f610bcc565b005b34801561044c575f80fd5b50610467600480360381019061046291906113bb565b610cbc565b005b34600b5f82825461047a9190611413565b92505081905550600c5f81548092919061049390611446565b91905055503373ffffffffffffffffffffffffffffffffffffffff167f264f630d9efa0d07053a31163641d9fcc0adafc9d9e76f1c37c2ce3a558d2c52346040516104de9190610ea7565b60405180910390a2565b5f60015f3373ffffffffffffffffffffffffffffffffffffffff1673ffffffffffffffffffffffffffffffffffffffff1681526020019081526020015f2080549050905090565b6060805f61053b6104e8565b90508067ffffffffffffffff8111156105575761055661148d565b5b6040519080825280602002602001820160405280156105855781602001602082028036833780820191505090505b5092508067ffffffffffffffff8111156105a2576105a161148d565b5b6040519080825280602002602001820160405280156105d05781602001602082028036833780820191505090505b5091505f5b81811015610696575f60015f3373ffffffffffffffffffffffffffffffffffffffff1673ffffffffffffffffffffffffffffffffffffffff1681526020019081526020015f20828154811061062d5761062c6114ba565b5b905f5260205f2090600202019050805f0154858381518110610652576106516114ba565b5b6020026020010181815250508060010154848381518110610676576106756114ba565b5b60200260200101818152505050808061068e90611446565b9150506105d5565b50509091565b6106a4610d40565b80600a5f6101000a81548173ffffffffffffffffffffffffffffffffffffffff021916908373ffffffffffffffffffffffffffffffffffffffff16021790555050565b600c5481565b6106f5610d40565b5f151560075f9054906101000a900460ff16151514610749576040517f08c379a000000000000000000000000000000000000000000000000000000000815260040161074090611557565b60405180910390fd5b8260075f6101000a81548160ff021916908315150217905550816008819055508060095f6101000a81548173ffffffffffffffffffffffffffffffffffffffff021916908373ffffffffffffffffffffffffffffffffffffffff160217905550505050565b600a5f9054906101000a900473ffffffffffffffffffffffffffffffffffffffff1681565b6107db610d40565b5f479050600a5f9054906101000a900473ffffffffffffffffffffffffffffffffffffffff1673ffffffffffffffffffffffffffffffffffffffff166108fc8290811502906040515f60405180830381858888f19350505050158015610843573d5f803e3d5ffd5b507f5b6b431d4476a211bb7d41c20d1aab9ae2321deee0d20be3d9fc9b1093fa6e3d816040516108739190610ea7565b60405180910390a150565b60095f9054906101000a900473ffffffffffffffffffffffffffffffffffffffff1681565b60075f9054906101000a900460ff1681565b600380546108c2906115a2565b80601f01602080910402602001604051908101604052809291908181526020018280546108ee906115a2565b80156109395780601f1061091057610100808354040283529160200191610939565b820191905f5260205f20905b81548152906001019060200180831161091c57829003601f168201915b505050505081565b60085481565b60058054610954906115a2565b80601f0160208091040260200160405190810160405280929190818152602001828054610980906115a2565b80156109cb5780601f106109a2576101008083540402835291602001916109cb565b820191905f5260205f20905b8154815290600101906020018083116109ae57829003601f168201915b505050505081565b6109db610d40565b8787600391826109ec929190611779565b508585600491826109fe929190611779565b50838360059182610a10929190611779565b50818160069182610a22929190611779565b507fab7b858a76f7f410a859fcd42382d57f243f86330875a685d74d96f60a6337f96003600460056006604051610a5c94939291906118c7565b60405180910390a15050505050505050565b610a76610d40565b610a7f5f610dc7565b565b60048054610a8e906115a2565b80601f0160208091040260200160405190810160405280929190818152602001828054610aba906115a2565b8015610b055780601f10610adc57610100808354040283529160200191610b05565b820191905f5260205f20905b815481529060010190602001808311610ae857829003601f168201915b505050505081565b5f805f9054906101000a900473ffffffffffffffffffffffffffffffffffffffff16905090565b60025481565b60068054610b47906115a2565b80601f0160208091040260200160405190810160405280929190818152602001828054610b73906115a2565b8015610bbe5780601f10610b9557610100808354040283529160200191610bbe565b820191905f5260205f20905b815481529060010190602001808311610ba157829003601f168201915b505050505081565b600b5481565b6001151560075f9054906101000a900460ff16151514610c21576040517f08c379a0000000000000000000000000000000000000000000000000000000008152600401610c1890611996565b60405180910390fd5b5f604051806040016040528034815260200142815250905060015f3373ffffffffffffffffffffffffffffffffffffffff1673ffffffffffffffffffffffffffffffffffffffff1681526020019081526020015f2081908060018154018082558091505060019003905f5260205f2090600202015f909190919091505f820151815f0155602082015181600101555050610cb9610469565b50565b610cc4610d40565b5f73ffffffffffffffffffffffffffffffffffffffff168173ffffffffffffffffffffffffffffffffffffffff1603610d34575f6040517f1e4fbdf7000000000000000000000000000000000000000000000000000000008152600401610d2b9190611163565b60405180910390fd5b610d3d81610dc7565b50565b610d48610e88565b73ffffffffffffffffffffffffffffffffffffffff16610d66610b0d565b73ffffffffffffffffffffffffffffffffffffffff1614610dc557610d89610e88565b6040517f118cdaa7000000000000000000000000000000000000000000000000000000008152600401610dbc9190611163565b60405180910390fd5b565b5f805f9054906101000a900473ffffffffffffffffffffffffffffffffffffffff169050815f806101000a81548173ffffffffffffffffffffffffffffffffffffffff021916908373ffffffffffffffffffffffffffffffffffffffff1602179055508173ffffffffffffffffffffffffffffffffffffffff168173ffffffffffffffffffffffffffffffffffffffff167f8be0079c531659141344cd1fd0a4f28419497f9722a3daafe3b4186f6b6457e060405160405180910390a35050565b5f33905090565b5f819050919050565b610ea181610e8f565b82525050565b5f602082019050610eba5f830184610e98565b92915050565b5f81519050919050565b5f82825260208201905092915050565b5f819050602082019050919050565b610ef281610e8f565b82525050565b5f610f038383610ee9565b60208301905092915050565b5f602082019050919050565b5f610f2582610ec0565b610f2f8185610eca565b9350610f3a83610eda565b805f5b83811015610f6a578151610f518882610ef8565b9750610f5c83610f0f565b925050600181019050610f3d565b5085935050505092915050565b5f6040820190508181035f830152610f8f8185610f1b565b90508181036020830152610fa38184610f1b565b90509392505050565b5f80fd5b5f80fd5b5f73ffffffffffffffffffffffffffffffffffffffff82169050919050565b5f610fdd82610fb4565b9050919050565b610fed81610fd3565b8114610ff7575f80fd5b50565b5f8135905061100881610fe4565b92915050565b5f6020828403121561102357611022610fac565b5b5f61103084828501610ffa565b91505092915050565b5f8115159050919050565b61104d81611039565b8114611057575f80fd5b50565b5f8135905061106881611044565b92915050565b5f819050919050565b6110808161106e565b811461108a575f80fd5b50565b5f8135905061109b81611077565b92915050565b5f6110ab82610fb4565b9050919050565b6110bb816110a1565b81146110c5575f80fd5b50565b5f813590506110d6816110b2565b92915050565b5f805f606084860312156110f3576110f2610fac565b5b5f6111008682870161105a565b93505060206111118682870161108d565b9250506040611122868287016110c8565b9150509250925092565b61113581610fd3565b82525050565b5f60208201905061114e5f83018461112c565b92915050565b61115d816110a1565b82525050565b5f6020820190506111765f830184611154565b92915050565b61118581611039565b82525050565b5f60208201905061119e5f83018461117c565b92915050565b5f81519050919050565b5f82825260208201905092915050565b5f5b838110156111db5780820151818401526020810190506111c0565b5f8484015250505050565b5f601f19601f8301169050919050565b5f611200826111a4565b61120a81856111ae565b935061121a8185602086016111be565b611223816111e6565b840191505092915050565b5f6020820190508181035f83015261124681846111f6565b905092915050565b6112578161106e565b82525050565b5f6020820190506112705f83018461124e565b92915050565b5f80fd5b5f80fd5b5f80fd5b5f8083601f84011261129757611296611276565b5b8235905067ffffffffffffffff8111156112b4576112b361127a565b5b6020830191508360018202830111156112d0576112cf61127e565b5b9250929050565b5f805f805f805f806080898b0312156112f3576112f2610fac565b5b5f89013567ffffffffffffffff8111156113105761130f610fb0565b5b61131c8b828c01611282565b9850985050602089013567ffffffffffffffff81111561133f5761133e610fb0565b5b61134b8b828c01611282565b9650965050604089013567ffffffffffffffff81111561136e5761136d610fb0565b5b61137a8b828c01611282565b9450945050606089013567ffffffffffffffff81111561139d5761139c610fb0565b5b6113a98b828c01611282565b92509250509295985092959890939650565b5f602082840312156113d0576113cf610fac565b5b5f6113dd848285016110c8565b91505092915050565b7f4e487b71000000000000000000000000000000000000000000000000000000005f52601160045260245ffd5b5f61141d82610e8f565b915061142883610e8f565b92508282019050808211156114405761143f6113e6565b5b92915050565b5f61145082610e8f565b91507fffffffffffffffffffffffffffffffffffffffffffffffffffffffffffffffff8203611482576114816113e6565b5b600182019050919050565b7f4e487b71000000000000000000000000000000000000000000000000000000005f52604160045260245ffd5b7f4e487b71000000000000000000000000000000000000000000000000000000005f52603260045260245ffd5b7f46756e647261697365722068617320616c7265616479206265656e2076616c695f8201527f6461746564000000000000000000000000000000000000000000000000000000602082015250565b5f6115416025836111ae565b915061154c826114e7565b604082019050919050565b5f6020820190508181035f83015261156e81611535565b9050919050565b7f4e487b71000000000000000000000000000000000000000000000000000000005f52602260045260245ffd5b5f60028204905060018216806115b957607f821691505b6020821081036115cc576115cb611575565b5b50919050565b5f82905092915050565b5f819050815f5260205f209050919050565b5f6020601f8301049050919050565b5f82821b905092915050565b5f600883026116387fffffffffffffffffffffffffffffffffffffffffffffffffffffffffffffffff826115fd565b61164286836115fd565b95508019841693508086168417925050509392505050565b5f819050919050565b5f61167d61167861167384610e8f565b61165a565b610e8f565b9050919050565b5f819050919050565b61169683611663565b6116aa6116a282611684565b848454611609565b825550505050565b5f90565b6116be6116b2565b6116c981848461168d565b505050565b5b818110156116ec576116e15f826116b6565b6001810190506116cf565b5050565b601f82111561173157611702816115dc565b61170b846115ee565b8101602085101561171a578190505b61172e611726856115ee565b8301826116ce565b50505b505050565b5f82821c905092915050565b5f6117515f1984600802611736565b1980831691505092915050565b5f6117698383611742565b9150826002028217905092915050565b61178383836115d2565b67ffffffffffffffff81111561179c5761179b61148d565b5b6117a682546115a2565b6117b18282856116f0565b5f601f8311600181146117de575f84156117cc578287013590505b6117d6858261175e565b86555061183d565b601f1984166117ec866115dc565b5f5b82811015611813578489013582556001820191506020850194506020810190506117ee565b86831015611830578489013561182c601f891682611742565b8355505b6001600288020188555050505b50505050505050565b5f8154611852816115a2565b61185c81866111ae565b9450600182165f8114611876576001811461188c576118be565b60ff1983168652811515602002860193506118be565b611895856115dc565b5f5b838110156118b657815481890152600182019150602081019050611897565b808801955050505b50505092915050565b5f6080820190508181035f8301526118df8187611846565b905081810360208301526118f38186611846565b905081810360408301526119078185611846565b9050818103606083015261191b8184611846565b905095945050505050565b7f46756e6472616973657220686173206e6f74206265656e2076616c69646174655f8201527f6420796574000000000000000000000000000000000000000000000000000000602082015250565b5f6119806025836111ae565b915061198b82611926565b604082019050919050565b5f6020820190508181035f8301526119ad81611974565b905091905056fea2646970667358221220a585a862db6d09403b2c84fd7ec36389c79113c1e04dfa6310952a4c6e417dca64736f6c63430008140033a26469706673582212201a9928a87eaeadc394fe22852d7dc10486a2118361ef1d228caa81ca2d1f4f2864736f6c63430008140033",
  "immutableReferences": {},
  "source": "// SPDX-License-Identifier: GPL-3.0\r\npragma solidity >=0.8.2 <0.9.0;\r\n\r\nimport \"./Fundraiser.sol\";\r\n\r\ncontract Factory {\r\n    uint256 constant maxLimit = 20;\r\n    uint256 public validatorIdCounter = 0;\r\n    uint256 public fundraiserIdCounter = 0;\r\n    Fundraiser[] private _fundraisers;\r\n\r\n    struct Validator {\r\n        uint256 id; \r\n        address validatorAddress;\r\n        string name;\r\n    }\r\n\r\n    modifier onlyValidator() {\r\n        require(validatorsByAddress[msg.sender].id != 0, \"Caller is not a validator\");\r\n        _;\r\n    }\r\n\r\n    mapping(address => Validator) public validatorsByAddress;\r\n    mapping(uint256 => Validator) public validatorsById;\r\n\r\n    event FundraiserCreated(\r\n        Fundraiser indexed fundraiser,\r\n        address indexed owner\r\n    );\r\n\r\n    event ValidatorCreated(\r\n        uint256 id,\r\n        address indexed validatorAddress,\r\n        string name,\r\n        string log\r\n    );\r\n\r\n    event FundraiserSigned(\r\n        Fundraiser indexed fundraiser,\r\n        address indexed validator,\r\n        bool status,\r\n        bytes32 signature\r\n    );\r\n\r\n    function fundraisersCount() public view returns (uint256) {\r\n        return _fundraisers.length;\r\n    }\r\n    \r\n    function getRegisterStatus(address _address) public view returns (bool) { //mengembalikan data boolean\r\n        return bytes(validatorsByAddress[_address].name).length > 0;\r\n    }\r\n\r\n    function registerValidator(\r\n        address _address,\r\n        string memory _name\r\n    ) public {\r\n        require(bytes(_name).length != 0, \"Name is not valid\");\r\n        require(!getRegisterStatus(_address), \"User must not be registered\");\r\n\r\n        validatorIdCounter++; \r\n\r\n        validatorsByAddress[_address] = Validator(\r\n            validatorIdCounter,\r\n            _address,\r\n            _name\r\n        );\r\n\r\n        validatorsById[validatorIdCounter] = Validator(\r\n            validatorIdCounter,\r\n            _address,\r\n            _name\r\n        );\r\n\r\n        //mengisi event validator Created\r\n        emit ValidatorCreated(\r\n            validatorIdCounter,\r\n            _address,\r\n            _name,\r\n            \"Validator successfully created\"\r\n        );\r\n    }\r\n\r\n    function createFundraiser(\r\n        string memory title,\r\n        string memory description,\r\n        string memory url,\r\n        string memory imageURL,\r\n        address payable beneficiary\r\n    ) public {\r\n        fundraiserIdCounter++;\r\n        Fundraiser fundraiser = new Fundraiser(\r\n            fundraiserIdCounter,\r\n            title,\r\n            description,\r\n            url,\r\n            imageURL,\r\n            beneficiary,\r\n            msg.sender\r\n        );\r\n\r\n    \r\n        _fundraisers.push(fundraiser);\r\n        emit FundraiserCreated(fundraiser, msg.sender);\r\n    }\r\n\r\n    function signFundraiser(uint256 fundraiserId, bool status, bytes32 signature, address validatorAddress) public onlyValidator {\r\n        require(fundraiserId > 0 && fundraiserId <= fundraiserIdCounter, \"Invalid fundraiser ID\");\r\n        Fundraiser fundraiser = _fundraisers[fundraiserId - 1];\r\n        fundraiser.signFundraiser(status, signature, validatorAddress);\r\n        emit FundraiserSigned(fundraiser, msg.sender, status, signature);\r\n    }\r\n\r\n    function fundraisers(uint256 limit, uint256 offset)\r\n        public view returns (Fundraiser[] memory coll){\r\n        require(offset <= fundraisersCount(), \"offset out of bounds\");\r\n\r\n        uint256 size = fundraisersCount() - offset;\r\n        size = size < limit ? size : limit;\r\n        size = size < maxLimit ? size : maxLimit;\r\n\r\n        coll = new Fundraiser[](size);\r\n        for (uint256 i = 0; i < size; i++) {\r\n            coll[i] = _fundraisers[offset + i];\r\n        }\r\n        return coll;\r\n    }\r\n}\r\n",
  "sourcePath": "C:\\Users\\Diky Wiraguna\\Desktop\\cwfund-dgtsign\\contracts\\Factory.sol",
  "compiler": {
    "name": "solc",
    "version": "0.8.20+commit.a1b79de6.Emscripten.clang"
  },
  "schemaVersion": "3.4.16",
  "updatedAt": "2024-02-28T01:31:13.721Z",
  "networkType": "ethereum",
  "devdoc": {
    "kind": "dev",
    "methods": {},
    "version": 1
  },
  "userdoc": {
    "kind": "user",
    "methods": {},
    "version": 1
  }
}