{
  "contractName": "Factory",
  "abi": [
    {
      "anonymous": false,
      "inputs": [
        {
          "indexed": true,
          "internalType": "contract Fundraiser",
          "name": "fundraiser",
          "type": "address"
        },
        {
          "indexed": true,
          "internalType": "address",
          "name": "owner",
          "type": "address"
        }
      ],
      "name": "FundraiserCreated",
      "type": "event"
    },
    {
      "anonymous": false,
      "inputs": [
        {
          "indexed": true,
          "internalType": "contract Fundraiser",
          "name": "fundraiser",
          "type": "address"
        },
        {
          "indexed": true,
          "internalType": "address",
          "name": "validator",
          "type": "address"
        },
        {
          "indexed": false,
          "internalType": "bool",
          "name": "status",
          "type": "bool"
        },
        {
          "indexed": false,
          "internalType": "string",
          "name": "signature",
          "type": "string"
        }
      ],
      "name": "FundraiserSigned",
      "type": "event"
    },
    {
      "anonymous": false,
      "inputs": [
        {
          "indexed": false,
          "internalType": "uint256",
          "name": "id",
          "type": "uint256"
        },
        {
          "indexed": true,
          "internalType": "address",
          "name": "validatorAddress",
          "type": "address"
        },
        {
          "indexed": false,
          "internalType": "string",
          "name": "name",
          "type": "string"
        },
        {
          "indexed": false,
          "internalType": "string",
          "name": "log",
          "type": "string"
        }
      ],
      "name": "ValidatorCreated",
      "type": "event"
    },
    {
      "inputs": [],
      "name": "fundraiserIdCounter",
      "outputs": [
        {
          "internalType": "uint256",
          "name": "",
          "type": "uint256"
        }
      ],
      "stateMutability": "view",
      "type": "function",
      "constant": true
    },
    {
      "inputs": [],
      "name": "validatorIdCounter",
      "outputs": [
        {
          "internalType": "uint256",
          "name": "",
          "type": "uint256"
        }
      ],
      "stateMutability": "view",
      "type": "function",
      "constant": true
    },
    {
      "inputs": [
        {
          "internalType": "address",
          "name": "",
          "type": "address"
        }
      ],
      "name": "validatorsByAddress",
      "outputs": [
        {
          "internalType": "uint256",
          "name": "id",
          "type": "uint256"
        },
        {
          "internalType": "address",
          "name": "validatorAddress",
          "type": "address"
        },
        {
          "internalType": "string",
          "name": "name",
          "type": "string"
        }
      ],
      "stateMutability": "view",
      "type": "function",
      "constant": true
    },
    {
      "inputs": [
        {
          "internalType": "uint256",
          "name": "",
          "type": "uint256"
        }
      ],
      "name": "validatorsById",
      "outputs": [
        {
          "internalType": "uint256",
          "name": "id",
          "type": "uint256"
        },
        {
          "internalType": "address",
          "name": "validatorAddress",
          "type": "address"
        },
        {
          "internalType": "string",
          "name": "name",
          "type": "string"
        }
      ],
      "stateMutability": "view",
      "type": "function",
      "constant": true
    },
    {
      "inputs": [],
      "name": "fundraisersCount",
      "outputs": [
        {
          "internalType": "uint256",
          "name": "",
          "type": "uint256"
        }
      ],
      "stateMutability": "view",
      "type": "function",
      "constant": true
    },
    {
      "inputs": [
        {
          "internalType": "address",
          "name": "_address",
          "type": "address"
        }
      ],
      "name": "getRegisterStatus",
      "outputs": [
        {
          "internalType": "bool",
          "name": "",
          "type": "bool"
        }
      ],
      "stateMutability": "view",
      "type": "function",
      "constant": true
    },
    {
      "inputs": [
        {
          "internalType": "address",
          "name": "_address",
          "type": "address"
        },
        {
          "internalType": "string",
          "name": "_name",
          "type": "string"
        }
      ],
      "name": "registerValidator",
      "outputs": [],
      "stateMutability": "nonpayable",
      "type": "function"
    },
    {
      "inputs": [
        {
          "internalType": "string",
          "name": "title",
          "type": "string"
        },
        {
          "internalType": "string",
          "name": "description",
          "type": "string"
        },
        {
          "internalType": "string",
          "name": "url",
          "type": "string"
        },
        {
          "internalType": "string",
          "name": "imageURL",
          "type": "string"
        },
        {
          "internalType": "address payable",
          "name": "beneficiary",
          "type": "address"
        }
      ],
      "name": "createFundraiser",
      "outputs": [],
      "stateMutability": "nonpayable",
      "type": "function"
    },
    {
      "inputs": [
        {
          "internalType": "uint256",
          "name": "fundraiserId",
          "type": "uint256"
        },
        {
          "internalType": "bool",
          "name": "status",
          "type": "bool"
        },
        {
          "internalType": "string",
          "name": "signature",
          "type": "string"
        },
        {
          "internalType": "address",
          "name": "validatorAddress",
          "type": "address"
        }
      ],
      "name": "signFundraiser",
      "outputs": [],
      "stateMutability": "nonpayable",
      "type": "function"
    },
    {
      "inputs": [
        {
          "internalType": "uint256",
          "name": "limit",
          "type": "uint256"
        },
        {
          "internalType": "uint256",
          "name": "offset",
          "type": "uint256"
        }
      ],
      "name": "getFundraisers",
      "outputs": [
        {
          "internalType": "contract Fundraiser[]",
          "name": "coll",
          "type": "address[]"
        }
      ],
      "stateMutability": "view",
      "type": "function",
      "constant": true
    }
  ],
  "bytecode": "0x60806040525f80555f600155348015610016575f80fd5b50613f6b806100245f395ff3fe608060405234801562000010575f80fd5b5060043610620000aa575f3560e01c80638f029d5e116200006d5780638f029d5e146200017a578063919dd0d0146200019c5780639d3b435514620001d4578063d70f367414620001f6578063f8034195146200021857620000aa565b80630982208714620000ae57806311d752ad14620000e4578063426e236d146200010457806375c0f6b2146200013a5780638729b2ac146200015a575b5f80fd5b620000cc6004803603810190620000c6919062000c5d565b62000250565b604051620000db919062000dde565b60405180910390f35b620001026004803603810190620000fc919062000f9a565b620003f7565b005b6200012260048036038101906200011c9190620010dc565b62000562565b60405162000131919062001128565b60405180910390f35b62000158600480360381019062000152919062001143565b620005bb565b005b620001786004803603810190620001729190620011d6565b62000843565b005b6200018462000a49565b60405162000193919062001275565b60405180910390f35b620001ba6004803603810190620001b4919062001290565b62000a4e565b604051620001cb9392919062001355565b60405180910390f35b620001de62000b21565b604051620001ed919062001275565b60405180910390f35b6200020062000b2d565b6040516200020f919062001275565b60405180910390f35b620002366004803603810190620002309190620010dc565b62000b33565b604051620002479392919062001355565b60405180910390f35b60606200025c62000b21565b821115620002a1576040517f08c379a00000000000000000000000000000000000000000000000000000000081526004016200029890620013e5565b60405180910390fd5b5f82620002ad62000b21565b620002b9919062001432565b9050838110620002ca5783620002cc565b805b905060148110620002df576014620002e1565b805b90508067ffffffffffffffff8111156200030057620002ff62000e18565b5b6040519080825280602002602001820160405280156200032f5781602001602082028036833780820191505090505b5091505f5b81811015620003ef57600281856200034d91906200146c565b81548110620003615762000360620014a6565b5b905f5260205f20015f9054906101000a900473ffffffffffffffffffffffffffffffffffffffff168382815181106200039f576200039e620014a6565b5b602002602001019073ffffffffffffffffffffffffffffffffffffffff16908173ffffffffffffffffffffffffffffffffffffffff16815250508080620003e690620014d3565b91505062000334565b505092915050565b60146002805490501062000442576040517f08c379a000000000000000000000000000000000000000000000000000000000815260040162000439906200156d565b60405180910390fd5b60015f8154809291906200045690620014d3565b91905055505f6001548686868686604051620004729062000c06565b62000483969594939291906200159e565b604051809103905ff0801580156200049d573d5f803e3d5ffd5b509050600281908060018154018082558091505060019003905f5260205f20015f9091909190916101000a81548173ffffffffffffffffffffffffffffffffffffffff021916908373ffffffffffffffffffffffffffffffffffffffff1602179055503373ffffffffffffffffffffffffffffffffffffffff168173ffffffffffffffffffffffffffffffffffffffff167fa2398daac0c8053a1e3c0280916c2ec6bc884f0959c27e639a4db829b7eabfb160405160405180910390a3505050505050565b5f8060035f8473ffffffffffffffffffffffffffffffffffffffff1673ffffffffffffffffffffffffffffffffffffffff1681526020019081526020015f206002018054620005b19062001652565b9050119050919050565b5f81510362000601576040517f08c379a0000000000000000000000000000000000000000000000000000000008152600401620005f890620016d4565b60405180910390fd5b6200060c8262000562565b156200064f576040517f08c379a0000000000000000000000000000000000000000000000000000000008152600401620006469062001742565b60405180910390fd5b5f808154809291906200066290620014d3565b919050555060405180606001604052805f5481526020018373ffffffffffffffffffffffffffffffffffffffff1681526020018281525060035f8473ffffffffffffffffffffffffffffffffffffffff1673ffffffffffffffffffffffffffffffffffffffff1681526020019081526020015f205f820151815f01556020820151816001015f6101000a81548173ffffffffffffffffffffffffffffffffffffffff021916908373ffffffffffffffffffffffffffffffffffffffff16021790555060408201518160020190816200073b91906200191c565b5090505060405180606001604052805f5481526020018373ffffffffffffffffffffffffffffffffffffffff1681526020018281525060045f805481526020019081526020015f205f820151815f01556020820151816001015f6101000a81548173ffffffffffffffffffffffffffffffffffffffff021916908373ffffffffffffffffffffffffffffffffffffffff1602179055506040820151816002019081620007e891906200191c565b509050508173ffffffffffffffffffffffffffffffffffffffff167f4cc4fa983652fefacb3733f067dd8033256cc7c7ae42a43580e89c8936ecc0bd5f54836040516200083792919062001a4e565b60405180910390a25050565b5f60035f3373ffffffffffffffffffffffffffffffffffffffff1673ffffffffffffffffffffffffffffffffffffffff1681526020019081526020015f205f015403620008c7576040517f08c379a0000000000000000000000000000000000000000000000000000000008152600401620008be9062001ae3565b60405180910390fd5b5f84118015620008d957506001548411155b6200091b576040517f08c379a0000000000000000000000000000000000000000000000000000000008152600401620009129062001b51565b60405180910390fd5b5f60026001866200092d919062001432565b81548110620009415762000940620014a6565b5b905f5260205f20015f9054906101000a900473ffffffffffffffffffffffffffffffffffffffff1690508073ffffffffffffffffffffffffffffffffffffffff16638bc9a2028585856040518463ffffffff1660e01b8152600401620009aa9392919062001b71565b5f604051808303815f87803b158015620009c2575f80fd5b505af1158015620009d5573d5f803e3d5ffd5b505050503373ffffffffffffffffffffffffffffffffffffffff168173ffffffffffffffffffffffffffffffffffffffff167f29467f78816dd6da794cf4bd9b95cd1439b56ac17a6740488b806a59ac716245868660405162000a3a92919062001bb3565b60405180910390a35050505050565b5f5481565b6004602052805f5260405f205f91509050805f015490806001015f9054906101000a900473ffffffffffffffffffffffffffffffffffffffff169080600201805462000a9a9062001652565b80601f016020809104026020016040519081016040528092919081815260200182805462000ac89062001652565b801562000b175780601f1062000aed5761010080835404028352916020019162000b17565b820191905f5260205f20905b81548152906001019060200180831162000af957829003601f168201915b5050505050905083565b5f600280549050905090565b60015481565b6003602052805f5260405f205f91509050805f015490806001015f9054906101000a900473ffffffffffffffffffffffffffffffffffffffff169080600201805462000b7f9062001652565b80601f016020809104026020016040519081016040528092919081815260200182805462000bad9062001652565b801562000bfc5780601f1062000bd25761010080835404028352916020019162000bfc565b820191905f5260205f20905b81548152906001019060200180831162000bde57829003601f168201915b5050505050905083565b6123508062001be683390190565b5f604051905090565b5f80fd5b5f80fd5b5f819050919050565b62000c398162000c25565b811462000c44575f80fd5b50565b5f8135905062000c578162000c2e565b92915050565b5f806040838503121562000c765762000c7562000c1d565b5b5f62000c858582860162000c47565b925050602062000c988582860162000c47565b9150509250929050565b5f81519050919050565b5f82825260208201905092915050565b5f819050602082019050919050565b5f73ffffffffffffffffffffffffffffffffffffffff82169050919050565b5f819050919050565b5f62000d1362000d0d62000d078462000ccb565b62000cea565b62000ccb565b9050919050565b5f62000d268262000cf3565b9050919050565b5f62000d398262000d1a565b9050919050565b62000d4b8162000d2d565b82525050565b5f62000d5e838362000d40565b60208301905092915050565b5f602082019050919050565b5f62000d828262000ca2565b62000d8e818562000cac565b935062000d9b8362000cbc565b805f5b8381101562000dd157815162000db5888262000d51565b975062000dc28362000d6a565b92505060018101905062000d9e565b5085935050505092915050565b5f6020820190508181035f83015262000df8818462000d76565b905092915050565b5f80fd5b5f80fd5b5f601f19601f8301169050919050565b7f4e487b71000000000000000000000000000000000000000000000000000000005f52604160045260245ffd5b62000e508262000e08565b810181811067ffffffffffffffff8211171562000e725762000e7162000e18565b5b80604052505050565b5f62000e8662000c14565b905062000e94828262000e45565b919050565b5f67ffffffffffffffff82111562000eb65762000eb562000e18565b5b62000ec18262000e08565b9050602081019050919050565b828183375f83830152505050565b5f62000ef262000eec8462000e99565b62000e7b565b90508281526020810184848401111562000f115762000f1062000e04565b5b62000f1e84828562000ece565b509392505050565b5f82601f83011262000f3d5762000f3c62000e00565b5b813562000f4f84826020860162000edc565b91505092915050565b5f62000f648262000ccb565b9050919050565b62000f768162000f58565b811462000f81575f80fd5b50565b5f8135905062000f948162000f6b565b92915050565b5f805f805f60a0868803121562000fb65762000fb562000c1d565b5b5f86013567ffffffffffffffff81111562000fd65762000fd562000c21565b5b62000fe48882890162000f26565b955050602086013567ffffffffffffffff81111562001008576200100762000c21565b5b620010168882890162000f26565b945050604086013567ffffffffffffffff8111156200103a576200103962000c21565b5b620010488882890162000f26565b935050606086013567ffffffffffffffff8111156200106c576200106b62000c21565b5b6200107a8882890162000f26565b92505060806200108d8882890162000f84565b9150509295509295909350565b5f620010a68262000ccb565b9050919050565b620010b8816200109a565b8114620010c3575f80fd5b50565b5f81359050620010d681620010ad565b92915050565b5f60208284031215620010f457620010f362000c1d565b5b5f6200110384828501620010c6565b91505092915050565b5f8115159050919050565b62001122816200110c565b82525050565b5f6020820190506200113d5f83018462001117565b92915050565b5f80604083850312156200115c576200115b62000c1d565b5b5f6200116b85828601620010c6565b925050602083013567ffffffffffffffff8111156200118f576200118e62000c21565b5b6200119d8582860162000f26565b9150509250929050565b620011b2816200110c565b8114620011bd575f80fd5b50565b5f81359050620011d081620011a7565b92915050565b5f805f8060808587031215620011f157620011f062000c1d565b5b5f620012008782880162000c47565b94505060206200121387828801620011c0565b935050604085013567ffffffffffffffff81111562001237576200123662000c21565b5b620012458782880162000f26565b92505060606200125887828801620010c6565b91505092959194509250565b6200126f8162000c25565b82525050565b5f6020820190506200128a5f83018462001264565b92915050565b5f60208284031215620012a857620012a762000c1d565b5b5f620012b78482850162000c47565b91505092915050565b620012cb816200109a565b82525050565b5f81519050919050565b5f82825260208201905092915050565b5f5b838110156200130a578082015181840152602081019050620012ed565b5f8484015250505050565b5f6200132182620012d1565b6200132d8185620012db565b93506200133f818560208601620012eb565b6200134a8162000e08565b840191505092915050565b5f6060820190506200136a5f83018662001264565b620013796020830185620012c0565b81810360408301526200138d818462001315565b9050949350505050565b7f4f6666736574206f7574206f6620626f756e64730000000000000000000000005f82015250565b5f620013cd601483620012db565b9150620013da8262001397565b602082019050919050565b5f6020820190508181035f830152620013fe81620013bf565b9050919050565b7f4e487b71000000000000000000000000000000000000000000000000000000005f52601160045260245ffd5b5f6200143e8262000c25565b91506200144b8362000c25565b925082820390508181111562001466576200146562001405565b5b92915050565b5f620014788262000c25565b9150620014858362000c25565b9250828201905080821115620014a0576200149f62001405565b5b92915050565b7f4e487b71000000000000000000000000000000000000000000000000000000005f52603260045260245ffd5b5f620014df8262000c25565b91507fffffffffffffffffffffffffffffffffffffffffffffffffffffffffffffffff820362001514576200151362001405565b5b600182019050919050565b7f46756e64726169736572206c696d6974207265616368656400000000000000005f82015250565b5f62001555601883620012db565b915062001562826200151f565b602082019050919050565b5f6020820190508181035f830152620015868162001547565b9050919050565b620015988162000f58565b82525050565b5f60c082019050620015b35f83018962001264565b8181036020830152620015c7818862001315565b90508181036040830152620015dd818762001315565b90508181036060830152620015f3818662001315565b9050818103608083015262001609818562001315565b90506200161a60a08301846200158d565b979650505050505050565b7f4e487b71000000000000000000000000000000000000000000000000000000005f52602260045260245ffd5b5f60028204905060018216806200166a57607f821691505b60208210810362001680576200167f62001625565b5b50919050565b7f4e616d65206973206e6f742076616c69640000000000000000000000000000005f82015250565b5f620016bc601183620012db565b9150620016c98262001686565b602082019050919050565b5f6020820190508181035f830152620016ed81620016ae565b9050919050565b7f55736572206d757374206e6f74206265207265676973746572656400000000005f82015250565b5f6200172a601b83620012db565b91506200173782620016f4565b602082019050919050565b5f6020820190508181035f8301526200175b816200171c565b9050919050565b5f819050815f5260205f209050919050565b5f6020601f8301049050919050565b5f82821b905092915050565b5f60088302620017c07fffffffffffffffffffffffffffffffffffffffffffffffffffffffffffffffff8262001783565b620017cc868362001783565b95508019841693508086168417925050509392505050565b5f62001804620017fe620017f88462000c25565b62000cea565b62000c25565b9050919050565b5f819050919050565b6200181f83620017e4565b620018376200182e826200180b565b8484546200178f565b825550505050565b5f90565b6200184d6200183f565b6200185a81848462001814565b505050565b5b818110156200188157620018755f8262001843565b60018101905062001860565b5050565b601f821115620018d0576200189a8162001762565b620018a58462001774565b81016020851015620018b5578190505b620018cd620018c48562001774565b8301826200185f565b50505b505050565b5f82821c905092915050565b5f620018f25f1984600802620018d5565b1980831691505092915050565b5f6200190c8383620018e1565b9150826002028217905092915050565b6200192782620012d1565b67ffffffffffffffff81111562001943576200194262000e18565b5b6200194f825462001652565b6200195c82828562001885565b5f60209050601f83116001811462001992575f84156200197d578287015190505b620019898582620018ff565b865550620019f8565b601f198416620019a28662001762565b5f5b82811015620019cb57848901518255600182019150602085019450602081019050620019a4565b86831015620019eb5784890151620019e7601f891682620018e1565b8355505b6001600288020188555050505b505050505050565b7f56616c696461746f72207375636365737366756c6c79206372656174656400005f82015250565b5f62001a36601e83620012db565b915062001a438262001a00565b602082019050919050565b5f60608201905062001a635f83018562001264565b818103602083015262001a77818462001315565b9050818103604083015262001a8c8162001a28565b90509392505050565b7f43616c6c6572206973206e6f7420612076616c696461746f72000000000000005f82015250565b5f62001acb601983620012db565b915062001ad88262001a95565b602082019050919050565b5f6020820190508181035f83015262001afc8162001abd565b9050919050565b7f496e76616c69642066756e6472616973657220494400000000000000000000005f82015250565b5f62001b39601583620012db565b915062001b468262001b03565b602082019050919050565b5f6020820190508181035f83015262001b6a8162001b2b565b9050919050565b5f60608201905062001b865f83018662001117565b818103602083015262001b9a818562001315565b905062001bab6040830184620012c0565b949350505050565b5f60408201905062001bc85f83018562001117565b818103602083015262001bdc818462001315565b9050939250505056fe608060405234801562000010575f80fd5b5060405162002350380380620023508339818101604052810190620000369190620004af565b335f73ffffffffffffffffffffffffffffffffffffffff168173ffffffffffffffffffffffffffffffffffffffff1603620000aa575f6040517f1e4fbdf7000000000000000000000000000000000000000000000000000000008152600401620000a19190620005e7565b60405180910390fd5b620000bb81620001d060201b60201c565b50856002819055508460039081620000d4919062000830565b508360049081620000e6919062000830565b508260059081620000f8919062000830565b5081600690816200010a919062000830565b5080600a5f6101000a81548173ffffffffffffffffffffffffffffffffffffffff021916908373ffffffffffffffffffffffffffffffffffffffff1602179055505f60075f6101000a81548160ff02191690831515021790555060405180602001604052805f8152506008908162000183919062000830565b505f60095f6101000a81548173ffffffffffffffffffffffffffffffffffffffff021916908373ffffffffffffffffffffffffffffffffffffffff16021790555050505050505062000914565b5f805f9054906101000a900473ffffffffffffffffffffffffffffffffffffffff169050815f806101000a81548173ffffffffffffffffffffffffffffffffffffffff021916908373ffffffffffffffffffffffffffffffffffffffff1602179055508173ffffffffffffffffffffffffffffffffffffffff168173ffffffffffffffffffffffffffffffffffffffff167f8be0079c531659141344cd1fd0a4f28419497f9722a3daafe3b4186f6b6457e060405160405180910390a35050565b5f604051905090565b5f80fd5b5f80fd5b5f819050919050565b620002b681620002a2565b8114620002c1575f80fd5b50565b5f81519050620002d481620002ab565b92915050565b5f80fd5b5f80fd5b5f601f19601f8301169050919050565b7f4e487b71000000000000000000000000000000000000000000000000000000005f52604160045260245ffd5b6200032a82620002e2565b810181811067ffffffffffffffff821117156200034c576200034b620002f2565b5b80604052505050565b5f6200036062000291565b90506200036e82826200031f565b919050565b5f67ffffffffffffffff82111562000390576200038f620002f2565b5b6200039b82620002e2565b9050602081019050919050565b5f5b83811015620003c7578082015181840152602081019050620003aa565b5f8484015250505050565b5f620003e8620003e28462000373565b62000355565b905082815260208101848484011115620004075762000406620002de565b5b62000414848285620003a8565b509392505050565b5f82601f830112620004335762000432620002da565b5b815162000445848260208601620003d2565b91505092915050565b5f73ffffffffffffffffffffffffffffffffffffffff82169050919050565b5f62000479826200044e565b9050919050565b6200048b816200046d565b811462000496575f80fd5b50565b5f81519050620004a98162000480565b92915050565b5f805f805f8060c08789031215620004cc57620004cb6200029a565b5b5f620004db89828a01620002c4565b965050602087015167ffffffffffffffff811115620004ff57620004fe6200029e565b5b6200050d89828a016200041c565b955050604087015167ffffffffffffffff8111156200053157620005306200029e565b5b6200053f89828a016200041c565b945050606087015167ffffffffffffffff8111156200056357620005626200029e565b5b6200057189828a016200041c565b935050608087015167ffffffffffffffff8111156200059557620005946200029e565b5b620005a389828a016200041c565b92505060a0620005b689828a0162000499565b9150509295509295509295565b5f620005cf826200044e565b9050919050565b620005e181620005c3565b82525050565b5f602082019050620005fc5f830184620005d6565b92915050565b5f81519050919050565b7f4e487b71000000000000000000000000000000000000000000000000000000005f52602260045260245ffd5b5f60028204905060018216806200065157607f821691505b6020821081036200066757620006666200060c565b5b50919050565b5f819050815f5260205f209050919050565b5f6020601f8301049050919050565b5f82821b905092915050565b5f60088302620006cb7fffffffffffffffffffffffffffffffffffffffffffffffffffffffffffffffff826200068e565b620006d786836200068e565b95508019841693508086168417925050509392505050565b5f819050919050565b5f62000718620007126200070c84620002a2565b620006ef565b620002a2565b9050919050565b5f819050919050565b6200073383620006f8565b6200074b62000742826200071f565b8484546200069a565b825550505050565b5f90565b6200076162000753565b6200076e81848462000728565b505050565b5b818110156200079557620007895f8262000757565b60018101905062000774565b5050565b601f821115620007e457620007ae816200066d565b620007b9846200067f565b81016020851015620007c9578190505b620007e1620007d8856200067f565b83018262000773565b50505b505050565b5f82821c905092915050565b5f620008065f1984600802620007e9565b1980831691505092915050565b5f620008208383620007f5565b9150826002028217905092915050565b6200083b8262000602565b67ffffffffffffffff811115620008575762000856620002f2565b5b62000863825462000639565b6200087082828562000799565b5f60209050601f831160018114620008a6575f841562000891578287015190505b6200089d858262000813565b8655506200090c565b601f198416620008b6866200066d565b5f5b82811015620008df57848901518255600182019150602085019450602081019050620008b8565b86831015620008ff5784890151620008fb601f891682620007f5565b8355505b6001600288020188555050505b505050505050565b611a2e80620009225f395ff3fe608060405260043610610113575f3560e01c80636049a45d1161009f578063af640d0f11610063578063af640d0f14610335578063b90497e01461035f578063de2ed89314610389578063ed88c68e146103b3578063f2fde38b146103bd57610113565b80636049a45d1461027b578063715018a6146102a35780637284e416146102b95780638bc9a202146102e35780638da5cb5b1461030b57610113565b80633fe4676e116100e65780633fe4676e146101a957806344a2563b146101d35780634a79d50c146101fd57806351ff4847146102275780635600f04f1461025157610113565b80630180b97c146101175780631c31f7101461014157806338af3eed146101695780633ccfd60b14610193575b5f80fd5b348015610122575f80fd5b5061012b6103e5565b6040516101389190610d9b565b60405180910390f35b34801561014c575f80fd5b5061016760048036038101906101629190610e1f565b61042c565b005b348015610174575f80fd5b5061017d610477565b60405161018a9190610e59565b60405180910390f35b34801561019e575f80fd5b506101a761049c565b005b3480156101b4575f80fd5b506101bd610589565b6040516101ca9190610e92565b60405180910390f35b3480156101de575f80fd5b506101e76105ae565b6040516101f49190610ec5565b60405180910390f35b348015610208575f80fd5b506102116105c0565b60405161021e9190610f68565b60405180910390f35b348015610232575f80fd5b5061023b61064c565b6040516102489190610f68565b60405180910390f35b34801561025c575f80fd5b506102656106d8565b6040516102729190610f68565b60405180910390f35b348015610286575f80fd5b506102a1600480360381019061029c9190610fe9565b610764565b005b3480156102ae575f80fd5b506102b76107ff565b005b3480156102c4575f80fd5b506102cd610812565b6040516102da9190610f68565b60405180910390f35b3480156102ee575f80fd5b5061030960048036038101906103049190611249565b61089e565b005b348015610316575f80fd5b5061031f610968565b60405161032c9190610e92565b60405180910390f35b348015610340575f80fd5b5061034961098f565b6040516103569190610d9b565b60405180910390f35b34801561036a575f80fd5b50610373610995565b6040516103809190610f68565b60405180910390f35b348015610394575f80fd5b5061039d610a21565b6040516103aa9190610d9b565b60405180910390f35b6103bb610a27565b005b3480156103c8575f80fd5b506103e360048036038101906103de91906112b5565b610bb0565b005b5f60015f3373ffffffffffffffffffffffffffffffffffffffff1673ffffffffffffffffffffffffffffffffffffffff1681526020019081526020015f2080549050905090565b610434610c34565b80600a5f6101000a81548173ffffffffffffffffffffffffffffffffffffffff021916908373ffffffffffffffffffffffffffffffffffffffff16021790555050565b600a5f9054906101000a900473ffffffffffffffffffffffffffffffffffffffff1681565b6104a4610c34565b5f47116104e6576040517f08c379a00000000000000000000000000000000000000000000000000000000081526004016104dd90611350565b60405180910390fd5b5f479050600a5f9054906101000a900473ffffffffffffffffffffffffffffffffffffffff1673ffffffffffffffffffffffffffffffffffffffff166108fc8290811502906040515f60405180830381858888f1935050505015801561054e573d5f803e3d5ffd5b507f5b6b431d4476a211bb7d41c20d1aab9ae2321deee0d20be3d9fc9b1093fa6e3d8160405161057e9190610d9b565b60405180910390a150565b60095f9054906101000a900473ffffffffffffffffffffffffffffffffffffffff1681565b60075f9054906101000a900460ff1681565b600380546105cd9061139b565b80601f01602080910402602001604051908101604052809291908181526020018280546105f99061139b565b80156106445780601f1061061b57610100808354040283529160200191610644565b820191905f5260205f20905b81548152906001019060200180831161062757829003601f168201915b505050505081565b600880546106599061139b565b80601f01602080910402602001604051908101604052809291908181526020018280546106859061139b565b80156106d05780601f106106a7576101008083540402835291602001916106d0565b820191905f5260205f20905b8154815290600101906020018083116106b357829003601f168201915b505050505081565b600580546106e59061139b565b80601f01602080910402602001604051908101604052809291908181526020018280546107119061139b565b801561075c5780601f106107335761010080835404028352916020019161075c565b820191905f5260205f20905b81548152906001019060200180831161073f57829003601f168201915b505050505081565b61076c610c34565b87876003918261077d929190611572565b5085856004918261078f929190611572565b508383600591826107a1929190611572565b508181600691826107b3929190611572565b507fab7b858a76f7f410a859fcd42382d57f243f86330875a685d74d96f60a6337f960036004600560066040516107ed94939291906116c0565b60405180910390a15050505050505050565b610807610c34565b6108105f610cbb565b565b6004805461081f9061139b565b80601f016020809104026020016040519081016040528092919081815260200182805461084b9061139b565b80156108965780601f1061086d57610100808354040283529160200191610896565b820191905f5260205f20905b81548152906001019060200180831161087957829003601f168201915b505050505081565b6108a6610c34565b5f151560075f9054906101000a900460ff161515146108fa576040517f08c379a00000000000000000000000000000000000000000000000000000000081526004016108f19061178f565b60405180910390fd5b8260075f6101000a81548160ff021916908315150217905550816008908161092291906117ad565b508060095f6101000a81548173ffffffffffffffffffffffffffffffffffffffff021916908373ffffffffffffffffffffffffffffffffffffffff160217905550505050565b5f805f9054906101000a900473ffffffffffffffffffffffffffffffffffffffff16905090565b60025481565b600680546109a29061139b565b80601f01602080910402602001604051908101604052809291908181526020018280546109ce9061139b565b8015610a195780601f106109f057610100808354040283529160200191610a19565b820191905f5260205f20905b8154815290600101906020018083116109fc57829003601f168201915b505050505081565b600b5481565b60075f9054906101000a900460ff16610a75576040517f08c379a0000000000000000000000000000000000000000000000000000000008152600401610a6c906118ec565b60405180910390fd5b5f3411610ab7576040517f08c379a0000000000000000000000000000000000000000000000000000000008152600401610aae9061197a565b60405180910390fd5b5f604051806040016040528034815260200142815250905060015f3373ffffffffffffffffffffffffffffffffffffffff1673ffffffffffffffffffffffffffffffffffffffff1681526020019081526020015f2081908060018154018082558091505060019003905f5260205f2090600202015f909190919091505f820151815f015560208201518160010155505034600b5f828254610b5891906119c5565b925050819055503373ffffffffffffffffffffffffffffffffffffffff167f264f630d9efa0d07053a31163641d9fcc0adafc9d9e76f1c37c2ce3a558d2c5234604051610ba59190610d9b565b60405180910390a250565b610bb8610c34565b5f73ffffffffffffffffffffffffffffffffffffffff168173ffffffffffffffffffffffffffffffffffffffff1603610c28575f6040517f1e4fbdf7000000000000000000000000000000000000000000000000000000008152600401610c1f9190610e92565b60405180910390fd5b610c3181610cbb565b50565b610c3c610d7c565b73ffffffffffffffffffffffffffffffffffffffff16610c5a610968565b73ffffffffffffffffffffffffffffffffffffffff1614610cb957610c7d610d7c565b6040517f118cdaa7000000000000000000000000000000000000000000000000000000008152600401610cb09190610e92565b60405180910390fd5b565b5f805f9054906101000a900473ffffffffffffffffffffffffffffffffffffffff169050815f806101000a81548173ffffffffffffffffffffffffffffffffffffffff021916908373ffffffffffffffffffffffffffffffffffffffff1602179055508173ffffffffffffffffffffffffffffffffffffffff168173ffffffffffffffffffffffffffffffffffffffff167f8be0079c531659141344cd1fd0a4f28419497f9722a3daafe3b4186f6b6457e060405160405180910390a35050565b5f33905090565b5f819050919050565b610d9581610d83565b82525050565b5f602082019050610dae5f830184610d8c565b92915050565b5f604051905090565b5f80fd5b5f80fd5b5f73ffffffffffffffffffffffffffffffffffffffff82169050919050565b5f610dee82610dc5565b9050919050565b610dfe81610de4565b8114610e08575f80fd5b50565b5f81359050610e1981610df5565b92915050565b5f60208284031215610e3457610e33610dbd565b5b5f610e4184828501610e0b565b91505092915050565b610e5381610de4565b82525050565b5f602082019050610e6c5f830184610e4a565b92915050565b5f610e7c82610dc5565b9050919050565b610e8c81610e72565b82525050565b5f602082019050610ea55f830184610e83565b92915050565b5f8115159050919050565b610ebf81610eab565b82525050565b5f602082019050610ed85f830184610eb6565b92915050565b5f81519050919050565b5f82825260208201905092915050565b5f5b83811015610f15578082015181840152602081019050610efa565b5f8484015250505050565b5f601f19601f8301169050919050565b5f610f3a82610ede565b610f448185610ee8565b9350610f54818560208601610ef8565b610f5d81610f20565b840191505092915050565b5f6020820190508181035f830152610f808184610f30565b905092915050565b5f80fd5b5f80fd5b5f80fd5b5f8083601f840112610fa957610fa8610f88565b5b8235905067ffffffffffffffff811115610fc657610fc5610f8c565b5b602083019150836001820283011115610fe257610fe1610f90565b5b9250929050565b5f805f805f805f806080898b03121561100557611004610dbd565b5b5f89013567ffffffffffffffff81111561102257611021610dc1565b5b61102e8b828c01610f94565b9850985050602089013567ffffffffffffffff81111561105157611050610dc1565b5b61105d8b828c01610f94565b9650965050604089013567ffffffffffffffff8111156110805761107f610dc1565b5b61108c8b828c01610f94565b9450945050606089013567ffffffffffffffff8111156110af576110ae610dc1565b5b6110bb8b828c01610f94565b92509250509295985092959890939650565b6110d681610eab565b81146110e0575f80fd5b50565b5f813590506110f1816110cd565b92915050565b5f80fd5b7f4e487b71000000000000000000000000000000000000000000000000000000005f52604160045260245ffd5b61113182610f20565b810181811067ffffffffffffffff821117156111505761114f6110fb565b5b80604052505050565b5f611162610db4565b905061116e8282611128565b919050565b5f67ffffffffffffffff82111561118d5761118c6110fb565b5b61119682610f20565b9050602081019050919050565b828183375f83830152505050565b5f6111c36111be84611173565b611159565b9050828152602081018484840111156111df576111de6110f7565b5b6111ea8482856111a3565b509392505050565b5f82601f83011261120657611205610f88565b5b81356112168482602086016111b1565b91505092915050565b61122881610e72565b8114611232575f80fd5b50565b5f813590506112438161121f565b92915050565b5f805f606084860312156112605761125f610dbd565b5b5f61126d868287016110e3565b935050602084013567ffffffffffffffff81111561128e5761128d610dc1565b5b61129a868287016111f2565b92505060406112ab86828701611235565b9150509250925092565b5f602082840312156112ca576112c9610dbd565b5b5f6112d784828501611235565b91505092915050565b7f4e6f2066756e647320617661696c61626c6520666f72207769746864726177615f8201527f6c00000000000000000000000000000000000000000000000000000000000000602082015250565b5f61133a602183610ee8565b9150611345826112e0565b604082019050919050565b5f6020820190508181035f8301526113678161132e565b9050919050565b7f4e487b71000000000000000000000000000000000000000000000000000000005f52602260045260245ffd5b5f60028204905060018216806113b257607f821691505b6020821081036113c5576113c461136e565b5b50919050565b5f82905092915050565b5f819050815f5260205f209050919050565b5f6020601f8301049050919050565b5f82821b905092915050565b5f600883026114317fffffffffffffffffffffffffffffffffffffffffffffffffffffffffffffffff826113f6565b61143b86836113f6565b95508019841693508086168417925050509392505050565b5f819050919050565b5f61147661147161146c84610d83565b611453565b610d83565b9050919050565b5f819050919050565b61148f8361145c565b6114a361149b8261147d565b848454611402565b825550505050565b5f90565b6114b76114ab565b6114c2818484611486565b505050565b5b818110156114e5576114da5f826114af565b6001810190506114c8565b5050565b601f82111561152a576114fb816113d5565b611504846113e7565b81016020851015611513578190505b61152761151f856113e7565b8301826114c7565b50505b505050565b5f82821c905092915050565b5f61154a5f198460080261152f565b1980831691505092915050565b5f611562838361153b565b9150826002028217905092915050565b61157c83836113cb565b67ffffffffffffffff811115611595576115946110fb565b5b61159f825461139b565b6115aa8282856114e9565b5f601f8311600181146115d7575f84156115c5578287013590505b6115cf8582611557565b865550611636565b601f1984166115e5866113d5565b5f5b8281101561160c578489013582556001820191506020850194506020810190506115e7565b868310156116295784890135611625601f89168261153b565b8355505b6001600288020188555050505b50505050505050565b5f815461164b8161139b565b6116558186610ee8565b9450600182165f811461166f5760018114611685576116b7565b60ff1983168652811515602002860193506116b7565b61168e856113d5565b5f5b838110156116af57815481890152600182019150602081019050611690565b808801955050505b50505092915050565b5f6080820190508181035f8301526116d8818761163f565b905081810360208301526116ec818661163f565b90508181036040830152611700818561163f565b90508181036060830152611714818461163f565b905095945050505050565b7f46756e647261697365722068617320616c7265616479206265656e2076616c695f8201527f6461746564000000000000000000000000000000000000000000000000000000602082015250565b5f611779602583610ee8565b91506117848261171f565b604082019050919050565b5f6020820190508181035f8301526117a68161176d565b9050919050565b6117b682610ede565b67ffffffffffffffff8111156117cf576117ce6110fb565b5b6117d9825461139b565b6117e48282856114e9565b5f60209050601f831160018114611815575f8415611803578287015190505b61180d8582611557565b865550611874565b601f198416611823866113d5565b5f5b8281101561184a57848901518255600182019150602085019450602081019050611825565b868310156118675784890151611863601f89168261153b565b8355505b6001600288020188555050505b505050505050565b7f46756e6472616973657220686173206e6f74206265656e2076616c69646174655f8201527f6420796574000000000000000000000000000000000000000000000000000000602082015250565b5f6118d6602583610ee8565b91506118e18261187c565b604082019050919050565b5f6020820190508181035f830152611903816118ca565b9050919050565b7f446f6e6174696f6e20616d6f756e74206d7573742062652067726561746572205f8201527f7468616e20300000000000000000000000000000000000000000000000000000602082015250565b5f611964602683610ee8565b915061196f8261190a565b604082019050919050565b5f6020820190508181035f83015261199181611958565b9050919050565b7f4e487b71000000000000000000000000000000000000000000000000000000005f52601160045260245ffd5b5f6119cf82610d83565b91506119da83610d83565b92508282019050808211156119f2576119f1611998565b5b9291505056fea2646970667358221220a9c2bfa685291d5de65014acfaffc0af1c3e2c15af0c0aa219cbef3bb106085f64736f6c63430008140033a2646970667358221220a62f9d0b3612402c293b08d80d45112187a97e4ef66c040c35a6cac1a86e5c2f64736f6c63430008140033",
  "immutableReferences": {},
  "source": "// SPDX-License-Identifier: GPL-3.0\r\npragma solidity >=0.8.2 <0.9.0;\r\n\r\nimport \"./Fundraiser.sol\";\r\n\r\ncontract Factory {\r\n    uint256 constant maxLimit = 20;\r\n    uint256 public validatorIdCounter = 0;\r\n    uint256 public fundraiserIdCounter = 0;\r\n    Fundraiser[] private _fundraisers;\r\n\r\n    struct Validator {\r\n        uint256 id; \r\n        address validatorAddress;\r\n        string name;\r\n    }\r\n\r\n    modifier onlyValidator() {\r\n        require(validatorsByAddress[msg.sender].id != 0, \"Caller is not a validator\");\r\n        _;\r\n    }\r\n\r\n    mapping(address => Validator) public validatorsByAddress;\r\n    mapping(uint256 => Validator) public validatorsById;\r\n\r\n    event FundraiserCreated(\r\n        Fundraiser indexed fundraiser,\r\n        address indexed owner\r\n    );\r\n\r\n    event ValidatorCreated(\r\n        uint256 id,\r\n        address indexed validatorAddress,\r\n        string name,\r\n        string log\r\n    );\r\n\r\n    event FundraiserSigned(\r\n        Fundraiser indexed fundraiser,\r\n        address indexed validator,\r\n        bool status,\r\n        string signature\r\n    );\r\n\r\n    function fundraisersCount() public view returns (uint256) {\r\n        return _fundraisers.length;\r\n    }\r\n    \r\n    function getRegisterStatus(address _address) public view returns (bool) { //mengembalikan data boolean\r\n        return bytes(validatorsByAddress[_address].name).length > 0;\r\n    }\r\n\r\n    function registerValidator(\r\n        address _address,\r\n        string memory _name\r\n    ) public {\r\n        require(bytes(_name).length != 0, \"Name is not valid\");\r\n        require(!getRegisterStatus(_address), \"User must not be registered\");\r\n\r\n        validatorIdCounter++; \r\n\r\n        validatorsByAddress[_address] = Validator(\r\n            validatorIdCounter,\r\n            _address,\r\n            _name\r\n        );\r\n\r\n        validatorsById[validatorIdCounter] = Validator(\r\n            validatorIdCounter,\r\n            _address,\r\n            _name\r\n        );\r\n\r\n        //mengisi event validator Created\r\n        emit ValidatorCreated(\r\n            validatorIdCounter,\r\n            _address,\r\n            _name,\r\n            \"Validator successfully created\"\r\n        );\r\n    }\r\n\r\n    \r\n    function createFundraiser(\r\n    string memory title,\r\n    string memory description,\r\n    string memory url,\r\n    string memory imageURL,\r\n    address payable beneficiary\r\n    ) public {\r\n        // Check if the limit for fundraisers is reached\r\n        require(_fundraisers.length < maxLimit, \"Fundraiser limit reached\");\r\n\r\n        fundraiserIdCounter++;\r\n\r\n        Fundraiser fundraiser = new Fundraiser(\r\n            fundraiserIdCounter,\r\n            title,\r\n            description,\r\n            url,\r\n            imageURL,\r\n            beneficiary\r\n        );\r\n\r\n        _fundraisers.push(fundraiser);\r\n        emit FundraiserCreated(fundraiser, msg.sender);\r\n    }\r\n\r\n\r\n    function signFundraiser(uint256 fundraiserId, bool status, string memory signature, address validatorAddress) public onlyValidator {\r\n        require(fundraiserId > 0 && fundraiserId <= fundraiserIdCounter, \"Invalid fundraiser ID\");\r\n        Fundraiser fundraiser = _fundraisers[fundraiserId - 1];\r\n        fundraiser.signFundraiser(status, signature, validatorAddress);\r\n        emit FundraiserSigned(fundraiser, msg.sender, status, signature);\r\n    }\r\n\r\n    function getFundraisers(uint256 limit, uint256 offset)\r\n        external\r\n        view\r\n        returns (Fundraiser[] memory coll)\r\n    {\r\n        require(offset <= fundraisersCount(), \"Offset out of bounds\");\r\n\r\n        uint256 size = fundraisersCount() - offset;\r\n        size = size < limit ? size : limit;\r\n        size = size < maxLimit ? size : maxLimit;\r\n\r\n        coll = new Fundraiser[](size);\r\n        for (uint256 i = 0; i < size; i++) {\r\n            coll[i] = _fundraisers[offset + i];\r\n        }\r\n\r\n        return coll;\r\n    }\r\n}\r\n",
  "sourcePath": "C:\\Users\\Diky Wiraguna\\Desktop\\cwfund-dgtsign\\contracts\\Factory.sol",
  "compiler": {
    "name": "solc",
    "version": "0.8.20+commit.a1b79de6.Emscripten.clang"
  },
  "schemaVersion": "3.4.16",
  "updatedAt": "2024-03-04T14:34:12.729Z",
  "networkType": "ethereum",
  "devdoc": {
    "kind": "dev",
    "methods": {},
    "version": 1
  },
  "userdoc": {
    "kind": "user",
    "methods": {},
    "version": 1
  }
}