{
  "contractName": "Factory",
  "abi": [
    {
      "anonymous": false,
      "inputs": [
        {
          "indexed": true,
          "internalType": "contract Fundraiser",
          "name": "fundraiser",
          "type": "address"
        },
        {
          "indexed": true,
          "internalType": "address",
          "name": "owner",
          "type": "address"
        }
      ],
      "name": "FundraiserCreated",
      "type": "event"
    },
    {
      "anonymous": false,
      "inputs": [
        {
          "indexed": true,
          "internalType": "contract Fundraiser",
          "name": "fundraiser",
          "type": "address"
        },
        {
          "indexed": true,
          "internalType": "address",
          "name": "validator",
          "type": "address"
        },
        {
          "indexed": false,
          "internalType": "bool",
          "name": "status",
          "type": "bool"
        },
        {
          "indexed": false,
          "internalType": "bytes32",
          "name": "signature",
          "type": "bytes32"
        }
      ],
      "name": "FundraiserSigned",
      "type": "event"
    },
    {
      "anonymous": false,
      "inputs": [
        {
          "indexed": false,
          "internalType": "uint256",
          "name": "id",
          "type": "uint256"
        },
        {
          "indexed": true,
          "internalType": "address",
          "name": "validatorAddress",
          "type": "address"
        },
        {
          "indexed": false,
          "internalType": "string",
          "name": "name",
          "type": "string"
        },
        {
          "indexed": false,
          "internalType": "string",
          "name": "log",
          "type": "string"
        }
      ],
      "name": "ValidatorCreated",
      "type": "event"
    },
    {
      "inputs": [],
      "name": "fundraiserIdCounter",
      "outputs": [
        {
          "internalType": "uint256",
          "name": "",
          "type": "uint256"
        }
      ],
      "stateMutability": "view",
      "type": "function",
      "constant": true
    },
    {
      "inputs": [],
      "name": "validatorIdCounter",
      "outputs": [
        {
          "internalType": "uint256",
          "name": "",
          "type": "uint256"
        }
      ],
      "stateMutability": "view",
      "type": "function",
      "constant": true
    },
    {
      "inputs": [
        {
          "internalType": "address",
          "name": "",
          "type": "address"
        }
      ],
      "name": "validatorsByAddress",
      "outputs": [
        {
          "internalType": "uint256",
          "name": "id",
          "type": "uint256"
        },
        {
          "internalType": "address",
          "name": "validatorAddress",
          "type": "address"
        },
        {
          "internalType": "string",
          "name": "name",
          "type": "string"
        }
      ],
      "stateMutability": "view",
      "type": "function",
      "constant": true
    },
    {
      "inputs": [
        {
          "internalType": "uint256",
          "name": "",
          "type": "uint256"
        }
      ],
      "name": "validatorsById",
      "outputs": [
        {
          "internalType": "uint256",
          "name": "id",
          "type": "uint256"
        },
        {
          "internalType": "address",
          "name": "validatorAddress",
          "type": "address"
        },
        {
          "internalType": "string",
          "name": "name",
          "type": "string"
        }
      ],
      "stateMutability": "view",
      "type": "function",
      "constant": true
    },
    {
      "inputs": [],
      "name": "fundraisersCount",
      "outputs": [
        {
          "internalType": "uint256",
          "name": "",
          "type": "uint256"
        }
      ],
      "stateMutability": "view",
      "type": "function",
      "constant": true
    },
    {
      "inputs": [
        {
          "internalType": "address",
          "name": "_address",
          "type": "address"
        }
      ],
      "name": "getRegisterStatus",
      "outputs": [
        {
          "internalType": "bool",
          "name": "",
          "type": "bool"
        }
      ],
      "stateMutability": "view",
      "type": "function",
      "constant": true
    },
    {
      "inputs": [
        {
          "internalType": "address",
          "name": "_address",
          "type": "address"
        },
        {
          "internalType": "string",
          "name": "_name",
          "type": "string"
        }
      ],
      "name": "registerValidator",
      "outputs": [],
      "stateMutability": "nonpayable",
      "type": "function"
    },
    {
      "inputs": [
        {
          "internalType": "string",
          "name": "title",
          "type": "string"
        },
        {
          "internalType": "string",
          "name": "description",
          "type": "string"
        },
        {
          "internalType": "string",
          "name": "url",
          "type": "string"
        },
        {
          "internalType": "string",
          "name": "imageURL",
          "type": "string"
        },
        {
          "internalType": "address payable",
          "name": "beneficiary",
          "type": "address"
        }
      ],
      "name": "createFundraiser",
      "outputs": [],
      "stateMutability": "nonpayable",
      "type": "function"
    },
    {
      "inputs": [
        {
          "internalType": "uint256",
          "name": "fundraiserId",
          "type": "uint256"
        },
        {
          "internalType": "bool",
          "name": "status",
          "type": "bool"
        },
        {
          "internalType": "bytes32",
          "name": "signature",
          "type": "bytes32"
        },
        {
          "internalType": "address",
          "name": "validatorAddress",
          "type": "address"
        }
      ],
      "name": "signFundraiser",
      "outputs": [],
      "stateMutability": "nonpayable",
      "type": "function"
    },
    {
      "inputs": [
        {
          "internalType": "uint256",
          "name": "limit",
          "type": "uint256"
        },
        {
          "internalType": "uint256",
          "name": "offset",
          "type": "uint256"
        }
      ],
      "name": "getFundraisers",
      "outputs": [
        {
          "internalType": "contract Fundraiser[]",
          "name": "coll",
          "type": "address[]"
        }
      ],
      "stateMutability": "view",
      "type": "function",
      "constant": true
    }
  ],
  "bytecode": "0x60806040525f80555f600155348015610016575f80fd5b50613d4d806100245f395ff3fe608060405234801562000010575f80fd5b5060043610620000aa575f3560e01c8063919dd0d0116200006d578063919dd0d0146200017c5780639d3b435514620001b4578063c4c4484914620001d6578063d70f367414620001f6578063f8034195146200021857620000aa565b80630982208714620000ae57806311d752ad14620000e4578063426e236d146200010457806375c0f6b2146200013a5780638f029d5e146200015a575b5f80fd5b620000cc6004803603810190620000c6919062000c5d565b62000250565b604051620000db919062000dde565b60405180910390f35b620001026004803603810190620000fc919062000f9a565b620003f7565b005b6200012260048036038101906200011c9190620010dc565b62000562565b60405162000131919062001128565b60405180910390f35b62000158600480360381019062000152919062001143565b620005bb565b005b6200016462000843565b604051620001739190620011b8565b60405180910390f35b6200019a6004803603810190620001949190620011d3565b62000848565b604051620001ab9392919062001298565b60405180910390f35b620001be6200091b565b604051620001cd9190620011b8565b60405180910390f35b620001f46004803603810190620001ee919062001341565b62000927565b005b6200020062000b2d565b6040516200020f9190620011b8565b60405180910390f35b620002366004803603810190620002309190620010dc565b62000b33565b604051620002479392919062001298565b60405180910390f35b60606200025c6200091b565b821115620002a1576040517f08c379a00000000000000000000000000000000000000000000000000000000081526004016200029890620013fe565b60405180910390fd5b5f82620002ad6200091b565b620002b991906200144b565b9050838110620002ca5783620002cc565b805b905060148110620002df576014620002e1565b805b90508067ffffffffffffffff8111156200030057620002ff62000e18565b5b6040519080825280602002602001820160405280156200032f5781602001602082028036833780820191505090505b5091505f5b81811015620003ef57600281856200034d919062001485565b81548110620003615762000360620014bf565b5b905f5260205f20015f9054906101000a900473ffffffffffffffffffffffffffffffffffffffff168382815181106200039f576200039e620014bf565b5b602002602001019073ffffffffffffffffffffffffffffffffffffffff16908173ffffffffffffffffffffffffffffffffffffffff16815250508080620003e690620014ec565b91505062000334565b505092915050565b60146002805490501062000442576040517f08c379a0000000000000000000000000000000000000000000000000000000008152600401620004399062001586565b60405180910390fd5b60015f8154809291906200045690620014ec565b91905055505f6001548686868686604051620004729062000c06565b6200048396959493929190620015b7565b604051809103905ff0801580156200049d573d5f803e3d5ffd5b509050600281908060018154018082558091505060019003905f5260205f20015f9091909190916101000a81548173ffffffffffffffffffffffffffffffffffffffff021916908373ffffffffffffffffffffffffffffffffffffffff1602179055503373ffffffffffffffffffffffffffffffffffffffff168173ffffffffffffffffffffffffffffffffffffffff167fa2398daac0c8053a1e3c0280916c2ec6bc884f0959c27e639a4db829b7eabfb160405160405180910390a3505050505050565b5f8060035f8473ffffffffffffffffffffffffffffffffffffffff1673ffffffffffffffffffffffffffffffffffffffff1681526020019081526020015f206002018054620005b1906200166b565b9050119050919050565b5f81510362000601576040517f08c379a0000000000000000000000000000000000000000000000000000000008152600401620005f890620016ed565b60405180910390fd5b6200060c8262000562565b156200064f576040517f08c379a000000000000000000000000000000000000000000000000000000000815260040162000646906200175b565b60405180910390fd5b5f808154809291906200066290620014ec565b919050555060405180606001604052805f5481526020018373ffffffffffffffffffffffffffffffffffffffff1681526020018281525060035f8473ffffffffffffffffffffffffffffffffffffffff1673ffffffffffffffffffffffffffffffffffffffff1681526020019081526020015f205f820151815f01556020820151816001015f6101000a81548173ffffffffffffffffffffffffffffffffffffffff021916908373ffffffffffffffffffffffffffffffffffffffff16021790555060408201518160020190816200073b919062001935565b5090505060405180606001604052805f5481526020018373ffffffffffffffffffffffffffffffffffffffff1681526020018281525060045f805481526020019081526020015f205f820151815f01556020820151816001015f6101000a81548173ffffffffffffffffffffffffffffffffffffffff021916908373ffffffffffffffffffffffffffffffffffffffff1602179055506040820151816002019081620007e8919062001935565b509050508173ffffffffffffffffffffffffffffffffffffffff167f4cc4fa983652fefacb3733f067dd8033256cc7c7ae42a43580e89c8936ecc0bd5f54836040516200083792919062001a67565b60405180910390a25050565b5f5481565b6004602052805f5260405f205f91509050805f015490806001015f9054906101000a900473ffffffffffffffffffffffffffffffffffffffff169080600201805462000894906200166b565b80601f0160208091040260200160405190810160405280929190818152602001828054620008c2906200166b565b8015620009115780601f10620008e75761010080835404028352916020019162000911565b820191905f5260205f20905b815481529060010190602001808311620008f357829003601f168201915b5050505050905083565b5f600280549050905090565b5f60035f3373ffffffffffffffffffffffffffffffffffffffff1673ffffffffffffffffffffffffffffffffffffffff1681526020019081526020015f205f015403620009ab576040517f08c379a0000000000000000000000000000000000000000000000000000000008152600401620009a29062001afc565b60405180910390fd5b5f84118015620009bd57506001548411155b620009ff576040517f08c379a0000000000000000000000000000000000000000000000000000000008152600401620009f69062001b6a565b60405180910390fd5b5f600260018662000a1191906200144b565b8154811062000a255762000a24620014bf565b5b905f5260205f20015f9054906101000a900473ffffffffffffffffffffffffffffffffffffffff1690508073ffffffffffffffffffffffffffffffffffffffff16632c94c33f8585856040518463ffffffff1660e01b815260040162000a8e9392919062001b9b565b5f604051808303815f87803b15801562000aa6575f80fd5b505af115801562000ab9573d5f803e3d5ffd5b505050503373ffffffffffffffffffffffffffffffffffffffff168173ffffffffffffffffffffffffffffffffffffffff167f2a4c5611dee40ede10d991958c829789fa3a11c0d057d6d5a9dee617cd3c64cf868660405162000b1e92919062001bd6565b60405180910390a35050505050565b60015481565b6003602052805f5260405f205f91509050805f015490806001015f9054906101000a900473ffffffffffffffffffffffffffffffffffffffff169080600201805462000b7f906200166b565b80601f016020809104026020016040519081016040528092919081815260200182805462000bad906200166b565b801562000bfc5780601f1062000bd25761010080835404028352916020019162000bfc565b820191905f5260205f20905b81548152906001019060200180831162000bde57829003601f168201915b5050505050905083565b6121168062001c0283390190565b5f604051905090565b5f80fd5b5f80fd5b5f819050919050565b62000c398162000c25565b811462000c44575f80fd5b50565b5f8135905062000c578162000c2e565b92915050565b5f806040838503121562000c765762000c7562000c1d565b5b5f62000c858582860162000c47565b925050602062000c988582860162000c47565b9150509250929050565b5f81519050919050565b5f82825260208201905092915050565b5f819050602082019050919050565b5f73ffffffffffffffffffffffffffffffffffffffff82169050919050565b5f819050919050565b5f62000d1362000d0d62000d078462000ccb565b62000cea565b62000ccb565b9050919050565b5f62000d268262000cf3565b9050919050565b5f62000d398262000d1a565b9050919050565b62000d4b8162000d2d565b82525050565b5f62000d5e838362000d40565b60208301905092915050565b5f602082019050919050565b5f62000d828262000ca2565b62000d8e818562000cac565b935062000d9b8362000cbc565b805f5b8381101562000dd157815162000db5888262000d51565b975062000dc28362000d6a565b92505060018101905062000d9e565b5085935050505092915050565b5f6020820190508181035f83015262000df8818462000d76565b905092915050565b5f80fd5b5f80fd5b5f601f19601f8301169050919050565b7f4e487b71000000000000000000000000000000000000000000000000000000005f52604160045260245ffd5b62000e508262000e08565b810181811067ffffffffffffffff8211171562000e725762000e7162000e18565b5b80604052505050565b5f62000e8662000c14565b905062000e94828262000e45565b919050565b5f67ffffffffffffffff82111562000eb65762000eb562000e18565b5b62000ec18262000e08565b9050602081019050919050565b828183375f83830152505050565b5f62000ef262000eec8462000e99565b62000e7b565b90508281526020810184848401111562000f115762000f1062000e04565b5b62000f1e84828562000ece565b509392505050565b5f82601f83011262000f3d5762000f3c62000e00565b5b813562000f4f84826020860162000edc565b91505092915050565b5f62000f648262000ccb565b9050919050565b62000f768162000f58565b811462000f81575f80fd5b50565b5f8135905062000f948162000f6b565b92915050565b5f805f805f60a0868803121562000fb65762000fb562000c1d565b5b5f86013567ffffffffffffffff81111562000fd65762000fd562000c21565b5b62000fe48882890162000f26565b955050602086013567ffffffffffffffff81111562001008576200100762000c21565b5b620010168882890162000f26565b945050604086013567ffffffffffffffff8111156200103a576200103962000c21565b5b620010488882890162000f26565b935050606086013567ffffffffffffffff8111156200106c576200106b62000c21565b5b6200107a8882890162000f26565b92505060806200108d8882890162000f84565b9150509295509295909350565b5f620010a68262000ccb565b9050919050565b620010b8816200109a565b8114620010c3575f80fd5b50565b5f81359050620010d681620010ad565b92915050565b5f60208284031215620010f457620010f362000c1d565b5b5f6200110384828501620010c6565b91505092915050565b5f8115159050919050565b62001122816200110c565b82525050565b5f6020820190506200113d5f83018462001117565b92915050565b5f80604083850312156200115c576200115b62000c1d565b5b5f6200116b85828601620010c6565b925050602083013567ffffffffffffffff8111156200118f576200118e62000c21565b5b6200119d8582860162000f26565b9150509250929050565b620011b28162000c25565b82525050565b5f602082019050620011cd5f830184620011a7565b92915050565b5f60208284031215620011eb57620011ea62000c1d565b5b5f620011fa8482850162000c47565b91505092915050565b6200120e816200109a565b82525050565b5f81519050919050565b5f82825260208201905092915050565b5f5b838110156200124d57808201518184015260208101905062001230565b5f8484015250505050565b5f620012648262001214565b6200127081856200121e565b9350620012828185602086016200122e565b6200128d8162000e08565b840191505092915050565b5f606082019050620012ad5f830186620011a7565b620012bc602083018562001203565b8181036040830152620012d0818462001258565b9050949350505050565b620012e5816200110c565b8114620012f0575f80fd5b50565b5f813590506200130381620012da565b92915050565b5f819050919050565b6200131d8162001309565b811462001328575f80fd5b50565b5f813590506200133b8162001312565b92915050565b5f805f80608085870312156200135c576200135b62000c1d565b5b5f6200136b8782880162000c47565b94505060206200137e87828801620012f3565b935050604062001391878288016200132b565b9250506060620013a487828801620010c6565b91505092959194509250565b7f4f6666736574206f7574206f6620626f756e64730000000000000000000000005f82015250565b5f620013e66014836200121e565b9150620013f382620013b0565b602082019050919050565b5f6020820190508181035f8301526200141781620013d8565b9050919050565b7f4e487b71000000000000000000000000000000000000000000000000000000005f52601160045260245ffd5b5f620014578262000c25565b9150620014648362000c25565b92508282039050818111156200147f576200147e6200141e565b5b92915050565b5f620014918262000c25565b91506200149e8362000c25565b9250828201905080821115620014b957620014b86200141e565b5b92915050565b7f4e487b71000000000000000000000000000000000000000000000000000000005f52603260045260245ffd5b5f620014f88262000c25565b91507fffffffffffffffffffffffffffffffffffffffffffffffffffffffffffffffff82036200152d576200152c6200141e565b5b600182019050919050565b7f46756e64726169736572206c696d6974207265616368656400000000000000005f82015250565b5f6200156e6018836200121e565b91506200157b8262001538565b602082019050919050565b5f6020820190508181035f8301526200159f8162001560565b9050919050565b620015b18162000f58565b82525050565b5f60c082019050620015cc5f830189620011a7565b8181036020830152620015e0818862001258565b90508181036040830152620015f6818762001258565b905081810360608301526200160c818662001258565b9050818103608083015262001622818562001258565b90506200163360a0830184620015a6565b979650505050505050565b7f4e487b71000000000000000000000000000000000000000000000000000000005f52602260045260245ffd5b5f60028204905060018216806200168357607f821691505b6020821081036200169957620016986200163e565b5b50919050565b7f4e616d65206973206e6f742076616c69640000000000000000000000000000005f82015250565b5f620016d56011836200121e565b9150620016e2826200169f565b602082019050919050565b5f6020820190508181035f8301526200170681620016c7565b9050919050565b7f55736572206d757374206e6f74206265207265676973746572656400000000005f82015250565b5f62001743601b836200121e565b915062001750826200170d565b602082019050919050565b5f6020820190508181035f830152620017748162001735565b9050919050565b5f819050815f5260205f209050919050565b5f6020601f8301049050919050565b5f82821b905092915050565b5f60088302620017d97fffffffffffffffffffffffffffffffffffffffffffffffffffffffffffffffff826200179c565b620017e586836200179c565b95508019841693508086168417925050509392505050565b5f6200181d62001817620018118462000c25565b62000cea565b62000c25565b9050919050565b5f819050919050565b6200183883620017fd565b62001850620018478262001824565b848454620017a8565b825550505050565b5f90565b6200186662001858565b620018738184846200182d565b505050565b5b818110156200189a576200188e5f826200185c565b60018101905062001879565b5050565b601f821115620018e957620018b3816200177b565b620018be846200178d565b81016020851015620018ce578190505b620018e6620018dd856200178d565b83018262001878565b50505b505050565b5f82821c905092915050565b5f6200190b5f1984600802620018ee565b1980831691505092915050565b5f620019258383620018fa565b9150826002028217905092915050565b620019408262001214565b67ffffffffffffffff8111156200195c576200195b62000e18565b5b6200196882546200166b565b620019758282856200189e565b5f60209050601f831160018114620019ab575f841562001996578287015190505b620019a2858262001918565b86555062001a11565b601f198416620019bb866200177b565b5f5b82811015620019e457848901518255600182019150602085019450602081019050620019bd565b8683101562001a04578489015162001a00601f891682620018fa565b8355505b6001600288020188555050505b505050505050565b7f56616c696461746f72207375636365737366756c6c79206372656174656400005f82015250565b5f62001a4f601e836200121e565b915062001a5c8262001a19565b602082019050919050565b5f60608201905062001a7c5f830185620011a7565b818103602083015262001a90818462001258565b9050818103604083015262001aa58162001a41565b90509392505050565b7f43616c6c6572206973206e6f7420612076616c696461746f72000000000000005f82015250565b5f62001ae46019836200121e565b915062001af18262001aae565b602082019050919050565b5f6020820190508181035f83015262001b158162001ad6565b9050919050565b7f496e76616c69642066756e6472616973657220494400000000000000000000005f82015250565b5f62001b526015836200121e565b915062001b5f8262001b1c565b602082019050919050565b5f6020820190508181035f83015262001b838162001b44565b9050919050565b62001b958162001309565b82525050565b5f60608201905062001bb05f83018662001117565b62001bbf602083018562001b8a565b62001bce604083018462001203565b949350505050565b5f60408201905062001beb5f83018562001117565b62001bfa602083018462001b8a565b939250505056fe608060405234801562000010575f80fd5b506040516200211638038062002116833981810160405281019062000036919062000498565b335f73ffffffffffffffffffffffffffffffffffffffff168173ffffffffffffffffffffffffffffffffffffffff1603620000aa575f6040517f1e4fbdf7000000000000000000000000000000000000000000000000000000008152600401620000a19190620005d0565b60405180910390fd5b620000bb81620001b960201b60201c565b50856002819055508460039081620000d4919062000819565b508360049081620000e6919062000819565b508260059081620000f8919062000819565b5081600690816200010a919062000819565b5080600a5f6101000a81548173ffffffffffffffffffffffffffffffffffffffff021916908373ffffffffffffffffffffffffffffffffffffffff1602179055505f60075f6101000a81548160ff0219169083151502179055505f801b6008819055505f60095f6101000a81548173ffffffffffffffffffffffffffffffffffffffff021916908373ffffffffffffffffffffffffffffffffffffffff160217905550505050505050620008fd565b5f805f9054906101000a900473ffffffffffffffffffffffffffffffffffffffff169050815f806101000a81548173ffffffffffffffffffffffffffffffffffffffff021916908373ffffffffffffffffffffffffffffffffffffffff1602179055508173ffffffffffffffffffffffffffffffffffffffff168173ffffffffffffffffffffffffffffffffffffffff167f8be0079c531659141344cd1fd0a4f28419497f9722a3daafe3b4186f6b6457e060405160405180910390a35050565b5f604051905090565b5f80fd5b5f80fd5b5f819050919050565b6200029f816200028b565b8114620002aa575f80fd5b50565b5f81519050620002bd8162000294565b92915050565b5f80fd5b5f80fd5b5f601f19601f8301169050919050565b7f4e487b71000000000000000000000000000000000000000000000000000000005f52604160045260245ffd5b6200031382620002cb565b810181811067ffffffffffffffff82111715620003355762000334620002db565b5b80604052505050565b5f620003496200027a565b905062000357828262000308565b919050565b5f67ffffffffffffffff821115620003795762000378620002db565b5b6200038482620002cb565b9050602081019050919050565b5f5b83811015620003b057808201518184015260208101905062000393565b5f8484015250505050565b5f620003d1620003cb846200035c565b6200033e565b905082815260208101848484011115620003f057620003ef620002c7565b5b620003fd84828562000391565b509392505050565b5f82601f8301126200041c576200041b620002c3565b5b81516200042e848260208601620003bb565b91505092915050565b5f73ffffffffffffffffffffffffffffffffffffffff82169050919050565b5f620004628262000437565b9050919050565b620004748162000456565b81146200047f575f80fd5b50565b5f81519050620004928162000469565b92915050565b5f805f805f8060c08789031215620004b557620004b462000283565b5b5f620004c489828a01620002ad565b965050602087015167ffffffffffffffff811115620004e857620004e762000287565b5b620004f689828a0162000405565b955050604087015167ffffffffffffffff8111156200051a576200051962000287565b5b6200052889828a0162000405565b945050606087015167ffffffffffffffff8111156200054c576200054b62000287565b5b6200055a89828a0162000405565b935050608087015167ffffffffffffffff8111156200057e576200057d62000287565b5b6200058c89828a0162000405565b92505060a06200059f89828a0162000482565b9150509295509295509295565b5f620005b88262000437565b9050919050565b620005ca81620005ac565b82525050565b5f602082019050620005e55f830184620005bf565b92915050565b5f81519050919050565b7f4e487b71000000000000000000000000000000000000000000000000000000005f52602260045260245ffd5b5f60028204905060018216806200063a57607f821691505b60208210810362000650576200064f620005f5565b5b50919050565b5f819050815f5260205f209050919050565b5f6020601f8301049050919050565b5f82821b905092915050565b5f60088302620006b47fffffffffffffffffffffffffffffffffffffffffffffffffffffffffffffffff8262000677565b620006c0868362000677565b95508019841693508086168417925050509392505050565b5f819050919050565b5f62000701620006fb620006f5846200028b565b620006d8565b6200028b565b9050919050565b5f819050919050565b6200071c83620006e1565b620007346200072b8262000708565b84845462000683565b825550505050565b5f90565b6200074a6200073c565b6200075781848462000711565b505050565b5b818110156200077e57620007725f8262000740565b6001810190506200075d565b5050565b601f821115620007cd57620007978162000656565b620007a28462000668565b81016020851015620007b2578190505b620007ca620007c18562000668565b8301826200075c565b50505b505050565b5f82821c905092915050565b5f620007ef5f1984600802620007d2565b1980831691505092915050565b5f620008098383620007de565b9150826002028217905092915050565b6200082482620005eb565b67ffffffffffffffff81111562000840576200083f620002db565b5b6200084c825462000622565b6200085982828562000782565b5f60209050601f8311600181146200088f575f84156200087a578287015190505b620008868582620007fc565b865550620008f5565b601f1984166200089f8662000656565b5f5b82811015620008c857848901518255600182019150602085019450602081019050620008a1565b86831015620008e85784890151620008e4601f891682620007de565b8355505b6001600288020188555050505b505050505050565b61180b806200090b5f395ff3fe608060405260043610610113575f3560e01c80635600f04f1161009f578063af640d0f11610063578063af640d0f14610335578063b90497e01461035f578063de2ed89314610389578063ed88c68e146103b3578063f2fde38b146103bd57610113565b80635600f04f146102795780636049a45d146102a3578063715018a6146102cb5780637284e416146102e15780638da5cb5b1461030b57610113565b80633ccfd60b116100e65780633ccfd60b146101bb5780633fe4676e146101d157806344a2563b146101fb5780634a79d50c1461022557806351ff48471461024f57610113565b80630180b97c146101175780631c31f710146101415780632c94c33f1461016957806338af3eed14610191575b5f80fd5b348015610122575f80fd5b5061012b6103e5565b6040516101389190610d0c565b60405180910390f35b34801561014c575f80fd5b5061016760048036038101906101629190610d87565b61042c565b005b348015610174575f80fd5b5061018f600480360381019061018a9190610e55565b610477565b005b34801561019c575f80fd5b506101a5610538565b6040516101b29190610eb4565b60405180910390f35b3480156101c6575f80fd5b506101cf61055d565b005b3480156101dc575f80fd5b506101e561064a565b6040516101f29190610edc565b60405180910390f35b348015610206575f80fd5b5061020f61066f565b60405161021c9190610f04565b60405180910390f35b348015610230575f80fd5b50610239610681565b6040516102469190610fa7565b60405180910390f35b34801561025a575f80fd5b5061026361070d565b6040516102709190610fd6565b60405180910390f35b348015610284575f80fd5b5061028d610713565b60405161029a9190610fa7565b60405180910390f35b3480156102ae575f80fd5b506102c960048036038101906102c49190611050565b61079f565b005b3480156102d6575f80fd5b506102df61083a565b005b3480156102ec575f80fd5b506102f561084d565b6040516103029190610fa7565b60405180910390f35b348015610316575f80fd5b5061031f6108d9565b60405161032c9190610edc565b60405180910390f35b348015610340575f80fd5b50610349610900565b6040516103569190610d0c565b60405180910390f35b34801561036a575f80fd5b50610373610906565b6040516103809190610fa7565b60405180910390f35b348015610394575f80fd5b5061039d610992565b6040516103aa9190610d0c565b60405180910390f35b6103bb610998565b005b3480156103c8575f80fd5b506103e360048036038101906103de9190611134565b610b21565b005b5f60015f3373ffffffffffffffffffffffffffffffffffffffff1673ffffffffffffffffffffffffffffffffffffffff1681526020019081526020015f2080549050905090565b610434610ba5565b80600a5f6101000a81548173ffffffffffffffffffffffffffffffffffffffff021916908373ffffffffffffffffffffffffffffffffffffffff16021790555050565b61047f610ba5565b5f151560075f9054906101000a900460ff161515146104d3576040517f08c379a00000000000000000000000000000000000000000000000000000000081526004016104ca906111cf565b60405180910390fd5b8260075f6101000a81548160ff021916908315150217905550816008819055508060095f6101000a81548173ffffffffffffffffffffffffffffffffffffffff021916908373ffffffffffffffffffffffffffffffffffffffff160217905550505050565b600a5f9054906101000a900473ffffffffffffffffffffffffffffffffffffffff1681565b610565610ba5565b5f47116105a7576040517f08c379a000000000000000000000000000000000000000000000000000000000815260040161059e9061125d565b60405180910390fd5b5f479050600a5f9054906101000a900473ffffffffffffffffffffffffffffffffffffffff1673ffffffffffffffffffffffffffffffffffffffff166108fc8290811502906040515f60405180830381858888f1935050505015801561060f573d5f803e3d5ffd5b507f5b6b431d4476a211bb7d41c20d1aab9ae2321deee0d20be3d9fc9b1093fa6e3d8160405161063f9190610d0c565b60405180910390a150565b60095f9054906101000a900473ffffffffffffffffffffffffffffffffffffffff1681565b60075f9054906101000a900460ff1681565b6003805461068e906112a8565b80601f01602080910402602001604051908101604052809291908181526020018280546106ba906112a8565b80156107055780601f106106dc57610100808354040283529160200191610705565b820191905f5260205f20905b8154815290600101906020018083116106e857829003601f168201915b505050505081565b60085481565b60058054610720906112a8565b80601f016020809104026020016040519081016040528092919081815260200182805461074c906112a8565b80156107975780601f1061076e57610100808354040283529160200191610797565b820191905f5260205f20905b81548152906001019060200180831161077a57829003601f168201915b505050505081565b6107a7610ba5565b8787600391826107b89291906114ac565b508585600491826107ca9291906114ac565b508383600591826107dc9291906114ac565b508181600691826107ee9291906114ac565b507fab7b858a76f7f410a859fcd42382d57f243f86330875a685d74d96f60a6337f9600360046005600660405161082894939291906115fa565b60405180910390a15050505050505050565b610842610ba5565b61084b5f610c2c565b565b6004805461085a906112a8565b80601f0160208091040260200160405190810160405280929190818152602001828054610886906112a8565b80156108d15780601f106108a8576101008083540402835291602001916108d1565b820191905f5260205f20905b8154815290600101906020018083116108b457829003601f168201915b505050505081565b5f805f9054906101000a900473ffffffffffffffffffffffffffffffffffffffff16905090565b60025481565b60068054610913906112a8565b80601f016020809104026020016040519081016040528092919081815260200182805461093f906112a8565b801561098a5780601f106109615761010080835404028352916020019161098a565b820191905f5260205f20905b81548152906001019060200180831161096d57829003601f168201915b505050505081565b600b5481565b60075f9054906101000a900460ff166109e6576040517f08c379a00000000000000000000000000000000000000000000000000000000081526004016109dd906116c9565b60405180910390fd5b5f3411610a28576040517f08c379a0000000000000000000000000000000000000000000000000000000008152600401610a1f90611757565b60405180910390fd5b5f604051806040016040528034815260200142815250905060015f3373ffffffffffffffffffffffffffffffffffffffff1673ffffffffffffffffffffffffffffffffffffffff1681526020019081526020015f2081908060018154018082558091505060019003905f5260205f2090600202015f909190919091505f820151815f015560208201518160010155505034600b5f828254610ac991906117a2565b925050819055503373ffffffffffffffffffffffffffffffffffffffff167f264f630d9efa0d07053a31163641d9fcc0adafc9d9e76f1c37c2ce3a558d2c5234604051610b169190610d0c565b60405180910390a250565b610b29610ba5565b5f73ffffffffffffffffffffffffffffffffffffffff168173ffffffffffffffffffffffffffffffffffffffff1603610b99575f6040517f1e4fbdf7000000000000000000000000000000000000000000000000000000008152600401610b909190610edc565b60405180910390fd5b610ba281610c2c565b50565b610bad610ced565b73ffffffffffffffffffffffffffffffffffffffff16610bcb6108d9565b73ffffffffffffffffffffffffffffffffffffffff1614610c2a57610bee610ced565b6040517f118cdaa7000000000000000000000000000000000000000000000000000000008152600401610c219190610edc565b60405180910390fd5b565b5f805f9054906101000a900473ffffffffffffffffffffffffffffffffffffffff169050815f806101000a81548173ffffffffffffffffffffffffffffffffffffffff021916908373ffffffffffffffffffffffffffffffffffffffff1602179055508173ffffffffffffffffffffffffffffffffffffffff168173ffffffffffffffffffffffffffffffffffffffff167f8be0079c531659141344cd1fd0a4f28419497f9722a3daafe3b4186f6b6457e060405160405180910390a35050565b5f33905090565b5f819050919050565b610d0681610cf4565b82525050565b5f602082019050610d1f5f830184610cfd565b92915050565b5f80fd5b5f80fd5b5f73ffffffffffffffffffffffffffffffffffffffff82169050919050565b5f610d5682610d2d565b9050919050565b610d6681610d4c565b8114610d70575f80fd5b50565b5f81359050610d8181610d5d565b92915050565b5f60208284031215610d9c57610d9b610d25565b5b5f610da984828501610d73565b91505092915050565b5f8115159050919050565b610dc681610db2565b8114610dd0575f80fd5b50565b5f81359050610de181610dbd565b92915050565b5f819050919050565b610df981610de7565b8114610e03575f80fd5b50565b5f81359050610e1481610df0565b92915050565b5f610e2482610d2d565b9050919050565b610e3481610e1a565b8114610e3e575f80fd5b50565b5f81359050610e4f81610e2b565b92915050565b5f805f60608486031215610e6c57610e6b610d25565b5b5f610e7986828701610dd3565b9350506020610e8a86828701610e06565b9250506040610e9b86828701610e41565b9150509250925092565b610eae81610d4c565b82525050565b5f602082019050610ec75f830184610ea5565b92915050565b610ed681610e1a565b82525050565b5f602082019050610eef5f830184610ecd565b92915050565b610efe81610db2565b82525050565b5f602082019050610f175f830184610ef5565b92915050565b5f81519050919050565b5f82825260208201905092915050565b5f5b83811015610f54578082015181840152602081019050610f39565b5f8484015250505050565b5f601f19601f8301169050919050565b5f610f7982610f1d565b610f838185610f27565b9350610f93818560208601610f37565b610f9c81610f5f565b840191505092915050565b5f6020820190508181035f830152610fbf8184610f6f565b905092915050565b610fd081610de7565b82525050565b5f602082019050610fe95f830184610fc7565b92915050565b5f80fd5b5f80fd5b5f80fd5b5f8083601f8401126110105761100f610fef565b5b8235905067ffffffffffffffff81111561102d5761102c610ff3565b5b60208301915083600182028301111561104957611048610ff7565b5b9250929050565b5f805f805f805f806080898b03121561106c5761106b610d25565b5b5f89013567ffffffffffffffff81111561108957611088610d29565b5b6110958b828c01610ffb565b9850985050602089013567ffffffffffffffff8111156110b8576110b7610d29565b5b6110c48b828c01610ffb565b9650965050604089013567ffffffffffffffff8111156110e7576110e6610d29565b5b6110f38b828c01610ffb565b9450945050606089013567ffffffffffffffff81111561111657611115610d29565b5b6111228b828c01610ffb565b92509250509295985092959890939650565b5f6020828403121561114957611148610d25565b5b5f61115684828501610e41565b91505092915050565b7f46756e647261697365722068617320616c7265616479206265656e2076616c695f8201527f6461746564000000000000000000000000000000000000000000000000000000602082015250565b5f6111b9602583610f27565b91506111c48261115f565b604082019050919050565b5f6020820190508181035f8301526111e6816111ad565b9050919050565b7f4e6f2066756e647320617661696c61626c6520666f72207769746864726177615f8201527f6c00000000000000000000000000000000000000000000000000000000000000602082015250565b5f611247602183610f27565b9150611252826111ed565b604082019050919050565b5f6020820190508181035f8301526112748161123b565b9050919050565b7f4e487b71000000000000000000000000000000000000000000000000000000005f52602260045260245ffd5b5f60028204905060018216806112bf57607f821691505b6020821081036112d2576112d161127b565b5b50919050565b5f82905092915050565b7f4e487b71000000000000000000000000000000000000000000000000000000005f52604160045260245ffd5b5f819050815f5260205f209050919050565b5f6020601f8301049050919050565b5f82821b905092915050565b5f6008830261136b7fffffffffffffffffffffffffffffffffffffffffffffffffffffffffffffffff82611330565b6113758683611330565b95508019841693508086168417925050509392505050565b5f819050919050565b5f6113b06113ab6113a684610cf4565b61138d565b610cf4565b9050919050565b5f819050919050565b6113c983611396565b6113dd6113d5826113b7565b84845461133c565b825550505050565b5f90565b6113f16113e5565b6113fc8184846113c0565b505050565b5b8181101561141f576114145f826113e9565b600181019050611402565b5050565b601f821115611464576114358161130f565b61143e84611321565b8101602085101561144d578190505b61146161145985611321565b830182611401565b50505b505050565b5f82821c905092915050565b5f6114845f1984600802611469565b1980831691505092915050565b5f61149c8383611475565b9150826002028217905092915050565b6114b683836112d8565b67ffffffffffffffff8111156114cf576114ce6112e2565b5b6114d982546112a8565b6114e4828285611423565b5f601f831160018114611511575f84156114ff578287013590505b6115098582611491565b865550611570565b601f19841661151f8661130f565b5f5b8281101561154657848901358255600182019150602085019450602081019050611521565b86831015611563578489013561155f601f891682611475565b8355505b6001600288020188555050505b50505050505050565b5f8154611585816112a8565b61158f8186610f27565b9450600182165f81146115a957600181146115bf576115f1565b60ff1983168652811515602002860193506115f1565b6115c88561130f565b5f5b838110156115e9578154818901526001820191506020810190506115ca565b808801955050505b50505092915050565b5f6080820190508181035f8301526116128187611579565b905081810360208301526116268186611579565b9050818103604083015261163a8185611579565b9050818103606083015261164e8184611579565b905095945050505050565b7f46756e6472616973657220686173206e6f74206265656e2076616c69646174655f8201527f6420796574000000000000000000000000000000000000000000000000000000602082015250565b5f6116b3602583610f27565b91506116be82611659565b604082019050919050565b5f6020820190508181035f8301526116e0816116a7565b9050919050565b7f446f6e6174696f6e20616d6f756e74206d7573742062652067726561746572205f8201527f7468616e20300000000000000000000000000000000000000000000000000000602082015250565b5f611741602683610f27565b915061174c826116e7565b604082019050919050565b5f6020820190508181035f83015261176e81611735565b9050919050565b7f4e487b71000000000000000000000000000000000000000000000000000000005f52601160045260245ffd5b5f6117ac82610cf4565b91506117b783610cf4565b92508282019050808211156117cf576117ce611775565b5b9291505056fea2646970667358221220290355d6be625eb4ac706a4a7fd1fd8529d48ee7a93324f4bf94e620ffc3976464736f6c63430008140033a26469706673582212204a19e0f5dea945e50b0c8d102ca3342313b51711cec2d5d7699e4b696064396464736f6c63430008140033",
  "immutableReferences": {},
  "source": "// SPDX-License-Identifier: GPL-3.0\r\npragma solidity >=0.8.2 <0.9.0;\r\n\r\nimport \"./Fundraiser.sol\";\r\n\r\ncontract Factory {\r\n    uint256 constant maxLimit = 20;\r\n    uint256 public validatorIdCounter = 0;\r\n    uint256 public fundraiserIdCounter = 0;\r\n    Fundraiser[] private _fundraisers;\r\n\r\n    struct Validator {\r\n        uint256 id; \r\n        address validatorAddress;\r\n        string name;\r\n    }\r\n\r\n    modifier onlyValidator() {\r\n        require(validatorsByAddress[msg.sender].id != 0, \"Caller is not a validator\");\r\n        _;\r\n    }\r\n\r\n    mapping(address => Validator) public validatorsByAddress;\r\n    mapping(uint256 => Validator) public validatorsById;\r\n\r\n    event FundraiserCreated(\r\n        Fundraiser indexed fundraiser,\r\n        address indexed owner\r\n    );\r\n\r\n    event ValidatorCreated(\r\n        uint256 id,\r\n        address indexed validatorAddress,\r\n        string name,\r\n        string log\r\n    );\r\n\r\n    event FundraiserSigned(\r\n        Fundraiser indexed fundraiser,\r\n        address indexed validator,\r\n        bool status,\r\n        bytes32 signature\r\n    );\r\n\r\n    function fundraisersCount() public view returns (uint256) {\r\n        return _fundraisers.length;\r\n    }\r\n    \r\n    function getRegisterStatus(address _address) public view returns (bool) { //mengembalikan data boolean\r\n        return bytes(validatorsByAddress[_address].name).length > 0;\r\n    }\r\n\r\n    function registerValidator(\r\n        address _address,\r\n        string memory _name\r\n    ) public {\r\n        require(bytes(_name).length != 0, \"Name is not valid\");\r\n        require(!getRegisterStatus(_address), \"User must not be registered\");\r\n\r\n        validatorIdCounter++; \r\n\r\n        validatorsByAddress[_address] = Validator(\r\n            validatorIdCounter,\r\n            _address,\r\n            _name\r\n        );\r\n\r\n        validatorsById[validatorIdCounter] = Validator(\r\n            validatorIdCounter,\r\n            _address,\r\n            _name\r\n        );\r\n\r\n        //mengisi event validator Created\r\n        emit ValidatorCreated(\r\n            validatorIdCounter,\r\n            _address,\r\n            _name,\r\n            \"Validator successfully created\"\r\n        );\r\n    }\r\n\r\n    \r\n    function createFundraiser(\r\n    string memory title,\r\n    string memory description,\r\n    string memory url,\r\n    string memory imageURL,\r\n    address payable beneficiary\r\n    ) public {\r\n        // Check if the limit for fundraisers is reached\r\n        require(_fundraisers.length < maxLimit, \"Fundraiser limit reached\");\r\n\r\n        fundraiserIdCounter++;\r\n\r\n        Fundraiser fundraiser = new Fundraiser(\r\n            fundraiserIdCounter,\r\n            title,\r\n            description,\r\n            url,\r\n            imageURL,\r\n            beneficiary\r\n        );\r\n\r\n        _fundraisers.push(fundraiser);\r\n        emit FundraiserCreated(fundraiser, msg.sender);\r\n    }\r\n\r\n\r\n    function signFundraiser(uint256 fundraiserId, bool status, bytes32 signature, address validatorAddress) public onlyValidator {\r\n        require(fundraiserId > 0 && fundraiserId <= fundraiserIdCounter, \"Invalid fundraiser ID\");\r\n        Fundraiser fundraiser = _fundraisers[fundraiserId - 1];\r\n        fundraiser.signFundraiser(status, signature, validatorAddress);\r\n        emit FundraiserSigned(fundraiser, msg.sender, status, signature);\r\n    }\r\n\r\n    function getFundraisers(uint256 limit, uint256 offset)\r\n        external\r\n        view\r\n        returns (Fundraiser[] memory coll)\r\n    {\r\n        require(offset <= fundraisersCount(), \"Offset out of bounds\");\r\n\r\n        uint256 size = fundraisersCount() - offset;\r\n        size = size < limit ? size : limit;\r\n        size = size < maxLimit ? size : maxLimit;\r\n\r\n        coll = new Fundraiser[](size);\r\n        for (uint256 i = 0; i < size; i++) {\r\n            coll[i] = _fundraisers[offset + i];\r\n        }\r\n\r\n        return coll;\r\n    }\r\n}\r\n",
  "sourcePath": "C:\\Users\\Diky Wiraguna\\Desktop\\cwfund-dgtsign\\contracts\\Factory.sol",
  "compiler": {
    "name": "solc",
    "version": "0.8.20+commit.a1b79de6.Emscripten.clang"
  },
  "schemaVersion": "3.4.16",
  "updatedAt": "2024-03-03T17:58:51.583Z",
  "networkType": "ethereum",
  "devdoc": {
    "kind": "dev",
    "methods": {},
    "version": 1
  },
  "userdoc": {
    "kind": "user",
    "methods": {},
    "version": 1
  }
}