{
  "contractName": "Factory",
  "abi": [
    {
      "anonymous": false,
      "inputs": [
        {
          "indexed": true,
          "internalType": "contract Fundraiser",
          "name": "fundraiser",
          "type": "address"
        },
        {
          "indexed": true,
          "internalType": "address",
          "name": "owner",
          "type": "address"
        }
      ],
      "name": "FundraiserCreated",
      "type": "event"
    },
    {
      "anonymous": false,
      "inputs": [
        {
          "indexed": true,
          "internalType": "contract Fundraiser",
          "name": "fundraiser",
          "type": "address"
        },
        {
          "indexed": true,
          "internalType": "address",
          "name": "validator",
          "type": "address"
        },
        {
          "indexed": false,
          "internalType": "bool",
          "name": "status",
          "type": "bool"
        },
        {
          "indexed": false,
          "internalType": "bytes32",
          "name": "signature",
          "type": "bytes32"
        }
      ],
      "name": "FundraiserSigned",
      "type": "event"
    },
    {
      "anonymous": false,
      "inputs": [
        {
          "indexed": false,
          "internalType": "uint256",
          "name": "id",
          "type": "uint256"
        },
        {
          "indexed": true,
          "internalType": "address",
          "name": "validatorAddress",
          "type": "address"
        },
        {
          "indexed": false,
          "internalType": "string",
          "name": "name",
          "type": "string"
        },
        {
          "indexed": false,
          "internalType": "string",
          "name": "log",
          "type": "string"
        }
      ],
      "name": "ValidatorCreated",
      "type": "event"
    },
    {
      "inputs": [],
      "name": "fundraiserIdCounter",
      "outputs": [
        {
          "internalType": "uint256",
          "name": "",
          "type": "uint256"
        }
      ],
      "stateMutability": "view",
      "type": "function",
      "constant": true
    },
    {
      "inputs": [],
      "name": "validatorIdCounter",
      "outputs": [
        {
          "internalType": "uint256",
          "name": "",
          "type": "uint256"
        }
      ],
      "stateMutability": "view",
      "type": "function",
      "constant": true
    },
    {
      "inputs": [
        {
          "internalType": "address",
          "name": "",
          "type": "address"
        }
      ],
      "name": "validatorsByAddress",
      "outputs": [
        {
          "internalType": "uint256",
          "name": "id",
          "type": "uint256"
        },
        {
          "internalType": "address",
          "name": "validatorAddress",
          "type": "address"
        },
        {
          "internalType": "string",
          "name": "name",
          "type": "string"
        }
      ],
      "stateMutability": "view",
      "type": "function",
      "constant": true
    },
    {
      "inputs": [
        {
          "internalType": "uint256",
          "name": "",
          "type": "uint256"
        }
      ],
      "name": "validatorsById",
      "outputs": [
        {
          "internalType": "uint256",
          "name": "id",
          "type": "uint256"
        },
        {
          "internalType": "address",
          "name": "validatorAddress",
          "type": "address"
        },
        {
          "internalType": "string",
          "name": "name",
          "type": "string"
        }
      ],
      "stateMutability": "view",
      "type": "function",
      "constant": true
    },
    {
      "inputs": [],
      "name": "fundraisersCount",
      "outputs": [
        {
          "internalType": "uint256",
          "name": "",
          "type": "uint256"
        }
      ],
      "stateMutability": "view",
      "type": "function",
      "constant": true
    },
    {
      "inputs": [
        {
          "internalType": "address",
          "name": "_address",
          "type": "address"
        }
      ],
      "name": "getRegisterStatus",
      "outputs": [
        {
          "internalType": "bool",
          "name": "",
          "type": "bool"
        }
      ],
      "stateMutability": "view",
      "type": "function",
      "constant": true
    },
    {
      "inputs": [
        {
          "internalType": "address",
          "name": "_address",
          "type": "address"
        },
        {
          "internalType": "string",
          "name": "_name",
          "type": "string"
        }
      ],
      "name": "registerValidator",
      "outputs": [],
      "stateMutability": "nonpayable",
      "type": "function"
    },
    {
      "inputs": [
        {
          "internalType": "string",
          "name": "title",
          "type": "string"
        },
        {
          "internalType": "string",
          "name": "description",
          "type": "string"
        },
        {
          "internalType": "string",
          "name": "url",
          "type": "string"
        },
        {
          "internalType": "string",
          "name": "imageURL",
          "type": "string"
        },
        {
          "internalType": "address payable",
          "name": "beneficiary",
          "type": "address"
        }
      ],
      "name": "createFundraiser",
      "outputs": [],
      "stateMutability": "nonpayable",
      "type": "function"
    },
    {
      "inputs": [
        {
          "internalType": "uint256",
          "name": "fundraiserId",
          "type": "uint256"
        },
        {
          "internalType": "bool",
          "name": "status",
          "type": "bool"
        },
        {
          "internalType": "bytes32",
          "name": "signature",
          "type": "bytes32"
        },
        {
          "internalType": "address",
          "name": "validatorAddress",
          "type": "address"
        }
      ],
      "name": "signFundraiser",
      "outputs": [],
      "stateMutability": "nonpayable",
      "type": "function"
    },
    {
      "inputs": [
        {
          "internalType": "uint256",
          "name": "limit",
          "type": "uint256"
        },
        {
          "internalType": "uint256",
          "name": "offset",
          "type": "uint256"
        }
      ],
      "name": "getFundraisers",
      "outputs": [
        {
          "internalType": "contract Fundraiser[]",
          "name": "coll",
          "type": "address[]"
        }
      ],
      "stateMutability": "view",
      "type": "function",
      "constant": true
    }
  ],
  "bytecode": "0x60806040525f80555f600155348015610016575f80fd5b506140c5806100245f395ff3fe608060405234801562000010575f80fd5b5060043610620000aa575f3560e01c8063919dd0d0116200006d578063919dd0d0146200017c5780639d3b435514620001b4578063c4c4484914620001d6578063d70f367414620001f6578063f8034195146200021857620000aa565b80630982208714620000ae57806311d752ad14620000e4578063426e236d146200010457806375c0f6b2146200013a5780638f029d5e146200015a575b5f80fd5b620000cc6004803603810190620000c6919062000c5f565b62000250565b604051620000db919062000de0565b60405180910390f35b620001026004803603810190620000fc919062000f9c565b620003f7565b005b6200012260048036038101906200011c9190620010de565b62000564565b6040516200013191906200112a565b60405180910390f35b62000158600480360381019062000152919062001145565b620005bd565b005b6200016462000845565b604051620001739190620011ba565b60405180910390f35b6200019a6004803603810190620001949190620011d5565b6200084a565b604051620001ab939291906200129a565b60405180910390f35b620001be6200091d565b604051620001cd9190620011ba565b60405180910390f35b620001f46004803603810190620001ee919062001343565b62000929565b005b6200020062000b2f565b6040516200020f9190620011ba565b60405180910390f35b620002366004803603810190620002309190620010de565b62000b35565b60405162000247939291906200129a565b60405180910390f35b60606200025c6200091d565b821115620002a1576040517f08c379a0000000000000000000000000000000000000000000000000000000008152600401620002989062001400565b60405180910390fd5b5f82620002ad6200091d565b620002b991906200144d565b9050838110620002ca5783620002cc565b805b905060148110620002df576014620002e1565b805b90508067ffffffffffffffff8111156200030057620002ff62000e1a565b5b6040519080825280602002602001820160405280156200032f5781602001602082028036833780820191505090505b5091505f5b81811015620003ef57600281856200034d919062001487565b81548110620003615762000360620014c1565b5b905f5260205f20015f9054906101000a900473ffffffffffffffffffffffffffffffffffffffff168382815181106200039f576200039e620014c1565b5b602002602001019073ffffffffffffffffffffffffffffffffffffffff16908173ffffffffffffffffffffffffffffffffffffffff16815250508080620003e690620014ee565b91505062000334565b505092915050565b60146002805490501062000442576040517f08c379a0000000000000000000000000000000000000000000000000000000008152600401620004399062001588565b60405180910390fd5b60015f8154809291906200045690620014ee565b91905055505f600154868686868633604051620004739062000c08565b620004859796959493929190620015b9565b604051809103905ff0801580156200049f573d5f803e3d5ffd5b509050600281908060018154018082558091505060019003905f5260205f20015f9091909190916101000a81548173ffffffffffffffffffffffffffffffffffffffff021916908373ffffffffffffffffffffffffffffffffffffffff1602179055503373ffffffffffffffffffffffffffffffffffffffff168173ffffffffffffffffffffffffffffffffffffffff167fa2398daac0c8053a1e3c0280916c2ec6bc884f0959c27e639a4db829b7eabfb160405160405180910390a3505050505050565b5f8060035f8473ffffffffffffffffffffffffffffffffffffffff1673ffffffffffffffffffffffffffffffffffffffff1681526020019081526020015f206002018054620005b3906200167d565b9050119050919050565b5f81510362000603576040517f08c379a0000000000000000000000000000000000000000000000000000000008152600401620005fa90620016ff565b60405180910390fd5b6200060e8262000564565b1562000651576040517f08c379a000000000000000000000000000000000000000000000000000000000815260040162000648906200176d565b60405180910390fd5b5f808154809291906200066490620014ee565b919050555060405180606001604052805f5481526020018373ffffffffffffffffffffffffffffffffffffffff1681526020018281525060035f8473ffffffffffffffffffffffffffffffffffffffff1673ffffffffffffffffffffffffffffffffffffffff1681526020019081526020015f205f820151815f01556020820151816001015f6101000a81548173ffffffffffffffffffffffffffffffffffffffff021916908373ffffffffffffffffffffffffffffffffffffffff16021790555060408201518160020190816200073d919062001947565b5090505060405180606001604052805f5481526020018373ffffffffffffffffffffffffffffffffffffffff1681526020018281525060045f805481526020019081526020015f205f820151815f01556020820151816001015f6101000a81548173ffffffffffffffffffffffffffffffffffffffff021916908373ffffffffffffffffffffffffffffffffffffffff1602179055506040820151816002019081620007ea919062001947565b509050508173ffffffffffffffffffffffffffffffffffffffff167f4cc4fa983652fefacb3733f067dd8033256cc7c7ae42a43580e89c8936ecc0bd5f54836040516200083992919062001a79565b60405180910390a25050565b5f5481565b6004602052805f5260405f205f91509050805f015490806001015f9054906101000a900473ffffffffffffffffffffffffffffffffffffffff169080600201805462000896906200167d565b80601f0160208091040260200160405190810160405280929190818152602001828054620008c4906200167d565b8015620009135780601f10620008e95761010080835404028352916020019162000913565b820191905f5260205f20905b815481529060010190602001808311620008f557829003601f168201915b5050505050905083565b5f600280549050905090565b5f60035f3373ffffffffffffffffffffffffffffffffffffffff1673ffffffffffffffffffffffffffffffffffffffff1681526020019081526020015f205f015403620009ad576040517f08c379a0000000000000000000000000000000000000000000000000000000008152600401620009a49062001b0e565b60405180910390fd5b5f84118015620009bf57506001548411155b62000a01576040517f08c379a0000000000000000000000000000000000000000000000000000000008152600401620009f89062001b7c565b60405180910390fd5b5f600260018662000a1391906200144d565b8154811062000a275762000a26620014c1565b5b905f5260205f20015f9054906101000a900473ffffffffffffffffffffffffffffffffffffffff1690508073ffffffffffffffffffffffffffffffffffffffff16632c94c33f8585856040518463ffffffff1660e01b815260040162000a909392919062001bad565b5f604051808303815f87803b15801562000aa8575f80fd5b505af115801562000abb573d5f803e3d5ffd5b505050503373ffffffffffffffffffffffffffffffffffffffff168173ffffffffffffffffffffffffffffffffffffffff167f2a4c5611dee40ede10d991958c829789fa3a11c0d057d6d5a9dee617cd3c64cf868660405162000b2092919062001be8565b60405180910390a35050505050565b60015481565b6003602052805f5260405f205f91509050805f015490806001015f9054906101000a900473ffffffffffffffffffffffffffffffffffffffff169080600201805462000b81906200167d565b80601f016020809104026020016040519081016040528092919081815260200182805462000baf906200167d565b801562000bfe5780601f1062000bd45761010080835404028352916020019162000bfe565b820191905f5260205f20905b81548152906001019060200180831162000be057829003601f168201915b5050505050905083565b61247c8062001c1483390190565b5f604051905090565b5f80fd5b5f80fd5b5f819050919050565b62000c3b8162000c27565b811462000c46575f80fd5b50565b5f8135905062000c598162000c30565b92915050565b5f806040838503121562000c785762000c7762000c1f565b5b5f62000c878582860162000c49565b925050602062000c9a8582860162000c49565b9150509250929050565b5f81519050919050565b5f82825260208201905092915050565b5f819050602082019050919050565b5f73ffffffffffffffffffffffffffffffffffffffff82169050919050565b5f819050919050565b5f62000d1562000d0f62000d098462000ccd565b62000cec565b62000ccd565b9050919050565b5f62000d288262000cf5565b9050919050565b5f62000d3b8262000d1c565b9050919050565b62000d4d8162000d2f565b82525050565b5f62000d60838362000d42565b60208301905092915050565b5f602082019050919050565b5f62000d848262000ca4565b62000d90818562000cae565b935062000d9d8362000cbe565b805f5b8381101562000dd357815162000db7888262000d53565b975062000dc48362000d6c565b92505060018101905062000da0565b5085935050505092915050565b5f6020820190508181035f83015262000dfa818462000d78565b905092915050565b5f80fd5b5f80fd5b5f601f19601f8301169050919050565b7f4e487b71000000000000000000000000000000000000000000000000000000005f52604160045260245ffd5b62000e528262000e0a565b810181811067ffffffffffffffff8211171562000e745762000e7362000e1a565b5b80604052505050565b5f62000e8862000c16565b905062000e96828262000e47565b919050565b5f67ffffffffffffffff82111562000eb85762000eb762000e1a565b5b62000ec38262000e0a565b9050602081019050919050565b828183375f83830152505050565b5f62000ef462000eee8462000e9b565b62000e7d565b90508281526020810184848401111562000f135762000f1262000e06565b5b62000f2084828562000ed0565b509392505050565b5f82601f83011262000f3f5762000f3e62000e02565b5b813562000f5184826020860162000ede565b91505092915050565b5f62000f668262000ccd565b9050919050565b62000f788162000f5a565b811462000f83575f80fd5b50565b5f8135905062000f968162000f6d565b92915050565b5f805f805f60a0868803121562000fb85762000fb762000c1f565b5b5f86013567ffffffffffffffff81111562000fd85762000fd762000c23565b5b62000fe68882890162000f28565b955050602086013567ffffffffffffffff8111156200100a576200100962000c23565b5b620010188882890162000f28565b945050604086013567ffffffffffffffff8111156200103c576200103b62000c23565b5b6200104a8882890162000f28565b935050606086013567ffffffffffffffff8111156200106e576200106d62000c23565b5b6200107c8882890162000f28565b92505060806200108f8882890162000f86565b9150509295509295909350565b5f620010a88262000ccd565b9050919050565b620010ba816200109c565b8114620010c5575f80fd5b50565b5f81359050620010d881620010af565b92915050565b5f60208284031215620010f657620010f562000c1f565b5b5f6200110584828501620010c8565b91505092915050565b5f8115159050919050565b62001124816200110e565b82525050565b5f6020820190506200113f5f83018462001119565b92915050565b5f80604083850312156200115e576200115d62000c1f565b5b5f6200116d85828601620010c8565b925050602083013567ffffffffffffffff81111562001191576200119062000c23565b5b6200119f8582860162000f28565b9150509250929050565b620011b48162000c27565b82525050565b5f602082019050620011cf5f830184620011a9565b92915050565b5f60208284031215620011ed57620011ec62000c1f565b5b5f620011fc8482850162000c49565b91505092915050565b62001210816200109c565b82525050565b5f81519050919050565b5f82825260208201905092915050565b5f5b838110156200124f57808201518184015260208101905062001232565b5f8484015250505050565b5f620012668262001216565b62001272818562001220565b93506200128481856020860162001230565b6200128f8162000e0a565b840191505092915050565b5f606082019050620012af5f830186620011a9565b620012be602083018562001205565b8181036040830152620012d281846200125a565b9050949350505050565b620012e7816200110e565b8114620012f2575f80fd5b50565b5f813590506200130581620012dc565b92915050565b5f819050919050565b6200131f816200130b565b81146200132a575f80fd5b50565b5f813590506200133d8162001314565b92915050565b5f805f80608085870312156200135e576200135d62000c1f565b5b5f6200136d8782880162000c49565b94505060206200138087828801620012f5565b935050604062001393878288016200132d565b9250506060620013a687828801620010c8565b91505092959194509250565b7f4f6666736574206f7574206f6620626f756e64730000000000000000000000005f82015250565b5f620013e860148362001220565b9150620013f582620013b2565b602082019050919050565b5f6020820190508181035f8301526200141981620013da565b9050919050565b7f4e487b71000000000000000000000000000000000000000000000000000000005f52601160045260245ffd5b5f620014598262000c27565b9150620014668362000c27565b925082820390508181111562001481576200148062001420565b5b92915050565b5f620014938262000c27565b9150620014a08362000c27565b9250828201905080821115620014bb57620014ba62001420565b5b92915050565b7f4e487b71000000000000000000000000000000000000000000000000000000005f52603260045260245ffd5b5f620014fa8262000c27565b91507fffffffffffffffffffffffffffffffffffffffffffffffffffffffffffffffff82036200152f576200152e62001420565b5b600182019050919050565b7f46756e64726169736572206c696d6974207265616368656400000000000000005f82015250565b5f6200157060188362001220565b91506200157d826200153a565b602082019050919050565b5f6020820190508181035f830152620015a18162001562565b9050919050565b620015b38162000f5a565b82525050565b5f60e082019050620015ce5f83018a620011a9565b8181036020830152620015e281896200125a565b90508181036040830152620015f881886200125a565b905081810360608301526200160e81876200125a565b905081810360808301526200162481866200125a565b90506200163560a0830185620015a8565b6200164460c083018462001205565b98975050505050505050565b7f4e487b71000000000000000000000000000000000000000000000000000000005f52602260045260245ffd5b5f60028204905060018216806200169557607f821691505b602082108103620016ab57620016aa62001650565b5b50919050565b7f4e616d65206973206e6f742076616c69640000000000000000000000000000005f82015250565b5f620016e760118362001220565b9150620016f482620016b1565b602082019050919050565b5f6020820190508181035f8301526200171881620016d9565b9050919050565b7f55736572206d757374206e6f74206265207265676973746572656400000000005f82015250565b5f62001755601b8362001220565b915062001762826200171f565b602082019050919050565b5f6020820190508181035f830152620017868162001747565b9050919050565b5f819050815f5260205f209050919050565b5f6020601f8301049050919050565b5f82821b905092915050565b5f60088302620017eb7fffffffffffffffffffffffffffffffffffffffffffffffffffffffffffffffff82620017ae565b620017f78683620017ae565b95508019841693508086168417925050509392505050565b5f6200182f62001829620018238462000c27565b62000cec565b62000c27565b9050919050565b5f819050919050565b6200184a836200180f565b62001862620018598262001836565b848454620017ba565b825550505050565b5f90565b620018786200186a565b620018858184846200183f565b505050565b5b81811015620018ac57620018a05f826200186e565b6001810190506200188b565b5050565b601f821115620018fb57620018c5816200178d565b620018d0846200179f565b81016020851015620018e0578190505b620018f8620018ef856200179f565b8301826200188a565b50505b505050565b5f82821c905092915050565b5f6200191d5f198460080262001900565b1980831691505092915050565b5f6200193783836200190c565b9150826002028217905092915050565b620019528262001216565b67ffffffffffffffff8111156200196e576200196d62000e1a565b5b6200197a82546200167d565b62001987828285620018b0565b5f60209050601f831160018114620019bd575f8415620019a8578287015190505b620019b485826200192a565b86555062001a23565b601f198416620019cd866200178d565b5f5b82811015620019f657848901518255600182019150602085019450602081019050620019cf565b8683101562001a16578489015162001a12601f8916826200190c565b8355505b6001600288020188555050505b505050505050565b7f56616c696461746f72207375636365737366756c6c79206372656174656400005f82015250565b5f62001a61601e8362001220565b915062001a6e8262001a2b565b602082019050919050565b5f60608201905062001a8e5f830185620011a9565b818103602083015262001aa281846200125a565b9050818103604083015262001ab78162001a53565b90509392505050565b7f43616c6c6572206973206e6f7420612076616c696461746f72000000000000005f82015250565b5f62001af660198362001220565b915062001b038262001ac0565b602082019050919050565b5f6020820190508181035f83015262001b278162001ae8565b9050919050565b7f496e76616c69642066756e6472616973657220494400000000000000000000005f82015250565b5f62001b6460158362001220565b915062001b718262001b2e565b602082019050919050565b5f6020820190508181035f83015262001b958162001b56565b9050919050565b62001ba7816200130b565b82525050565b5f60608201905062001bc25f83018662001119565b62001bd1602083018562001b9c565b62001be0604083018462001205565b949350505050565b5f60408201905062001bfd5f83018562001119565b62001c0c602083018462001b9c565b939250505056fe608060405234801562000010575f80fd5b506040516200247c3803806200247c8339818101604052810190620000369190620004ed565b335f73ffffffffffffffffffffffffffffffffffffffff168173ffffffffffffffffffffffffffffffffffffffff1603620000aa575f6040517f1e4fbdf7000000000000000000000000000000000000000000000000000000008152600401620000a1919062000628565b60405180910390fd5b620000bb81620001cc60201b60201c565b50866002819055508560039081620000d4919062000871565b508460049081620000e6919062000871565b508360059081620000f8919062000871565b5082600690816200010a919062000871565b508160075f6101000a81548173ffffffffffffffffffffffffffffffffffffffff021916908373ffffffffffffffffffffffffffffffffffffffff1602179055506200015c81620001cc60201b60201c565b5f600760146101000a81548160ff0219169083151502179055505f801b6008819055505f60095f6101000a81548173ffffffffffffffffffffffffffffffffffffffff021916908373ffffffffffffffffffffffffffffffffffffffff1602179055505050505050505062000955565b5f805f9054906101000a900473ffffffffffffffffffffffffffffffffffffffff169050815f806101000a81548173ffffffffffffffffffffffffffffffffffffffff021916908373ffffffffffffffffffffffffffffffffffffffff1602179055508173ffffffffffffffffffffffffffffffffffffffff168173ffffffffffffffffffffffffffffffffffffffff167f8be0079c531659141344cd1fd0a4f28419497f9722a3daafe3b4186f6b6457e060405160405180910390a35050565b5f604051905090565b5f80fd5b5f80fd5b5f819050919050565b620002b2816200029e565b8114620002bd575f80fd5b50565b5f81519050620002d081620002a7565b92915050565b5f80fd5b5f80fd5b5f601f19601f8301169050919050565b7f4e487b71000000000000000000000000000000000000000000000000000000005f52604160045260245ffd5b6200032682620002de565b810181811067ffffffffffffffff82111715620003485762000347620002ee565b5b80604052505050565b5f6200035c6200028d565b90506200036a82826200031b565b919050565b5f67ffffffffffffffff8211156200038c576200038b620002ee565b5b6200039782620002de565b9050602081019050919050565b5f5b83811015620003c3578082015181840152602081019050620003a6565b5f8484015250505050565b5f620003e4620003de846200036f565b62000351565b905082815260208101848484011115620004035762000402620002da565b5b62000410848285620003a4565b509392505050565b5f82601f8301126200042f576200042e620002d6565b5b815162000441848260208601620003ce565b91505092915050565b5f73ffffffffffffffffffffffffffffffffffffffff82169050919050565b5f62000475826200044a565b9050919050565b620004878162000469565b811462000492575f80fd5b50565b5f81519050620004a5816200047c565b92915050565b5f620004b7826200044a565b9050919050565b620004c981620004ab565b8114620004d4575f80fd5b50565b5f81519050620004e781620004be565b92915050565b5f805f805f805f60e0888a0312156200050b576200050a62000296565b5b5f6200051a8a828b01620002c0565b975050602088015167ffffffffffffffff8111156200053e576200053d6200029a565b5b6200054c8a828b0162000418565b965050604088015167ffffffffffffffff81111562000570576200056f6200029a565b5b6200057e8a828b0162000418565b955050606088015167ffffffffffffffff811115620005a257620005a16200029a565b5b620005b08a828b0162000418565b945050608088015167ffffffffffffffff811115620005d457620005d36200029a565b5b620005e28a828b0162000418565b93505060a0620005f58a828b0162000495565b92505060c0620006088a828b01620004d7565b91505092959891949750929550565b6200062281620004ab565b82525050565b5f6020820190506200063d5f83018462000617565b92915050565b5f81519050919050565b7f4e487b71000000000000000000000000000000000000000000000000000000005f52602260045260245ffd5b5f60028204905060018216806200069257607f821691505b602082108103620006a857620006a76200064d565b5b50919050565b5f819050815f5260205f209050919050565b5f6020601f8301049050919050565b5f82821b905092915050565b5f600883026200070c7fffffffffffffffffffffffffffffffffffffffffffffffffffffffffffffffff82620006cf565b620007188683620006cf565b95508019841693508086168417925050509392505050565b5f819050919050565b5f62000759620007536200074d846200029e565b62000730565b6200029e565b9050919050565b5f819050919050565b620007748362000739565b6200078c620007838262000760565b848454620006db565b825550505050565b5f90565b620007a262000794565b620007af81848462000769565b505050565b5b81811015620007d657620007ca5f8262000798565b600181019050620007b5565b5050565b601f8211156200082557620007ef81620006ae565b620007fa84620006c0565b810160208510156200080a578190505b620008226200081985620006c0565b830182620007b4565b50505b505050565b5f82821c905092915050565b5f620008475f19846008026200082a565b1980831691505092915050565b5f62000861838362000836565b9150826002028217905092915050565b6200087c8262000643565b67ffffffffffffffff811115620008985762000897620002ee565b5b620008a482546200067a565b620008b1828285620007da565b5f60209050601f831160018114620008e7575f8415620008d2578287015190505b620008de858262000854565b8655506200094d565b601f198416620008f786620006ae565b5f5b828110156200092057848901518255600182019150602085019450602081019050620008f9565b868310156200094057848901516200093c601f89168262000836565b8355505b6001600288020188555050505b505050505050565b611b1980620009635f395ff3fe60806040526004361061011e575f3560e01c80635600f04f1161009f578063af640d0f11610063578063af640d0f1461036b578063b90497e014610395578063de2ed893146103bf578063ed88c68e146103e9578063f2fde38b146103f35761011e565b80635600f04f146102af5780636049a45d146102d9578063715018a6146103015780637284e416146103175780638da5cb5b146103415761011e565b80633ccfd60b116100e65780633ccfd60b146101f15780633fe4676e1461020757806344a2563b146102315780634a79d50c1461025b57806351ff4847146102855761011e565b80631a57f7b4146101225780631c31f7101461014d5780631f522595146101755780632c94c33f1461019f57806338af3eed146101c7575b5f80fd5b34801561012d575f80fd5b5061013661041b565b604051610144929190610f62565b60405180910390f35b348015610158575f80fd5b50610173600480360381019061016e9190610ff9565b6105c1565b005b348015610180575f80fd5b5061018961060c565b6040516101969190611033565b60405180910390f35b3480156101aa575f80fd5b506101c560048036038101906101c091906110ef565b610612565b005b3480156101d2575f80fd5b506101db6106cd565b6040516101e8919061114e565b60405180910390f35b3480156101fc575f80fd5b506102056106f2565b005b348015610212575f80fd5b5061021b6107df565b6040516102289190611176565b60405180910390f35b34801561023c575f80fd5b50610245610804565b604051610252919061119e565b60405180910390f35b348015610266575f80fd5b5061026f610817565b60405161027c9190611241565b60405180910390f35b348015610290575f80fd5b506102996108a3565b6040516102a69190611270565b60405180910390f35b3480156102ba575f80fd5b506102c36108a9565b6040516102d09190611241565b60405180910390f35b3480156102e4575f80fd5b506102ff60048036038101906102fa91906112ea565b610935565b005b34801561030c575f80fd5b506103156109d0565b005b348015610322575f80fd5b5061032b6109e3565b6040516103389190611241565b60405180910390f35b34801561034c575f80fd5b50610355610a6f565b6040516103629190611176565b60405180910390f35b348015610376575f80fd5b5061037f610a96565b60405161038c9190611033565b60405180910390f35b3480156103a0575f80fd5b506103a9610a9c565b6040516103b69190611241565b60405180910390f35b3480156103ca575f80fd5b506103d3610b28565b6040516103e09190611033565b60405180910390f35b6103f1610b2e565b005b3480156103fe575f80fd5b50610419600480360381019061041491906113ce565b610ccf565b005b6060805f60015f3373ffffffffffffffffffffffffffffffffffffffff1673ffffffffffffffffffffffffffffffffffffffff1681526020019081526020015f208054905090508067ffffffffffffffff81111561047c5761047b6113f9565b5b6040519080825280602002602001820160405280156104aa5781602001602082028036833780820191505090505b5092508067ffffffffffffffff8111156104c7576104c66113f9565b5b6040519080825280602002602001820160405280156104f55781602001602082028036833780820191505090505b5091505f5b818110156105bb575f60015f3373ffffffffffffffffffffffffffffffffffffffff1673ffffffffffffffffffffffffffffffffffffffff1681526020019081526020015f20828154811061055257610551611426565b5b905f5260205f2090600202019050805f015485838151811061057757610576611426565b5b602002602001018181525050806001015484838151811061059b5761059a611426565b5b6020026020010181815250505080806105b390611480565b9150506104fa565b50509091565b6105c9610d53565b8060075f6101000a81548173ffffffffffffffffffffffffffffffffffffffff021916908373ffffffffffffffffffffffffffffffffffffffff16021790555050565b600b5481565b5f1515600760149054906101000a900460ff16151514610667576040517f08c379a000000000000000000000000000000000000000000000000000000000815260040161065e90611537565b60405180910390fd5b82600760146101000a81548160ff021916908315150217905550816008819055508060095f6101000a81548173ffffffffffffffffffffffffffffffffffffffff021916908373ffffffffffffffffffffffffffffffffffffffff160217905550505050565b60075f9054906101000a900473ffffffffffffffffffffffffffffffffffffffff1681565b6106fa610d53565b5f471161073c576040517f08c379a0000000000000000000000000000000000000000000000000000000008152600401610733906115c5565b60405180910390fd5b5f47905060075f9054906101000a900473ffffffffffffffffffffffffffffffffffffffff1673ffffffffffffffffffffffffffffffffffffffff166108fc8290811502906040515f60405180830381858888f193505050501580156107a4573d5f803e3d5ffd5b507f5b6b431d4476a211bb7d41c20d1aab9ae2321deee0d20be3d9fc9b1093fa6e3d816040516107d49190611033565b60405180910390a150565b60095f9054906101000a900473ffffffffffffffffffffffffffffffffffffffff1681565b600760149054906101000a900460ff1681565b6003805461082490611610565b80601f016020809104026020016040519081016040528092919081815260200182805461085090611610565b801561089b5780601f106108725761010080835404028352916020019161089b565b820191905f5260205f20905b81548152906001019060200180831161087e57829003601f168201915b505050505081565b60085481565b600580546108b690611610565b80601f01602080910402602001604051908101604052809291908181526020018280546108e290611610565b801561092d5780601f106109045761010080835404028352916020019161092d565b820191905f5260205f20905b81548152906001019060200180831161091057829003601f168201915b505050505081565b61093d610d53565b87876003918261094e9291906117e7565b508585600491826109609291906117e7565b508383600591826109729291906117e7565b508181600691826109849291906117e7565b507fab7b858a76f7f410a859fcd42382d57f243f86330875a685d74d96f60a6337f960036004600560066040516109be9493929190611935565b60405180910390a15050505050505050565b6109d8610d53565b6109e15f610dda565b565b600480546109f090611610565b80601f0160208091040260200160405190810160405280929190818152602001828054610a1c90611610565b8015610a675780601f10610a3e57610100808354040283529160200191610a67565b820191905f5260205f20905b815481529060010190602001808311610a4a57829003601f168201915b505050505081565b5f805f9054906101000a900473ffffffffffffffffffffffffffffffffffffffff16905090565b60025481565b60068054610aa990611610565b80601f0160208091040260200160405190810160405280929190818152602001828054610ad590611610565b8015610b205780601f10610af757610100808354040283529160200191610b20565b820191905f5260205f20905b815481529060010190602001808311610b0357829003601f168201915b505050505081565b600a5481565b600760149054906101000a900460ff16610b7d576040517f08c379a0000000000000000000000000000000000000000000000000000000008152600401610b7490611a04565b60405180910390fd5b5f3411610bbf576040517f08c379a0000000000000000000000000000000000000000000000000000000008152600401610bb690611a92565b60405180910390fd5b5f604051806040016040528034815260200142815250905060015f3373ffffffffffffffffffffffffffffffffffffffff1673ffffffffffffffffffffffffffffffffffffffff1681526020019081526020015f2081908060018154018082558091505060019003905f5260205f2090600202015f909190919091505f820151815f015560208201518160010155505034600a5f828254610c609190611ab0565b92505081905550600b5f815480929190610c7990611480565b91905055503373ffffffffffffffffffffffffffffffffffffffff167f264f630d9efa0d07053a31163641d9fcc0adafc9d9e76f1c37c2ce3a558d2c5234604051610cc49190611033565b60405180910390a250565b610cd7610d53565b5f73ffffffffffffffffffffffffffffffffffffffff168173ffffffffffffffffffffffffffffffffffffffff1603610d47575f6040517f1e4fbdf7000000000000000000000000000000000000000000000000000000008152600401610d3e9190611176565b60405180910390fd5b610d5081610dda565b50565b610d5b610e9b565b73ffffffffffffffffffffffffffffffffffffffff16610d79610a6f565b73ffffffffffffffffffffffffffffffffffffffff1614610dd857610d9c610e9b565b6040517f118cdaa7000000000000000000000000000000000000000000000000000000008152600401610dcf9190611176565b60405180910390fd5b565b5f805f9054906101000a900473ffffffffffffffffffffffffffffffffffffffff169050815f806101000a81548173ffffffffffffffffffffffffffffffffffffffff021916908373ffffffffffffffffffffffffffffffffffffffff1602179055508173ffffffffffffffffffffffffffffffffffffffff168173ffffffffffffffffffffffffffffffffffffffff167f8be0079c531659141344cd1fd0a4f28419497f9722a3daafe3b4186f6b6457e060405160405180910390a35050565b5f33905090565b5f81519050919050565b5f82825260208201905092915050565b5f819050602082019050919050565b5f819050919050565b610edd81610ecb565b82525050565b5f610eee8383610ed4565b60208301905092915050565b5f602082019050919050565b5f610f1082610ea2565b610f1a8185610eac565b9350610f2583610ebc565b805f5b83811015610f55578151610f3c8882610ee3565b9750610f4783610efa565b925050600181019050610f28565b5085935050505092915050565b5f6040820190508181035f830152610f7a8185610f06565b90508181036020830152610f8e8184610f06565b90509392505050565b5f80fd5b5f80fd5b5f73ffffffffffffffffffffffffffffffffffffffff82169050919050565b5f610fc882610f9f565b9050919050565b610fd881610fbe565b8114610fe2575f80fd5b50565b5f81359050610ff381610fcf565b92915050565b5f6020828403121561100e5761100d610f97565b5b5f61101b84828501610fe5565b91505092915050565b61102d81610ecb565b82525050565b5f6020820190506110465f830184611024565b92915050565b5f8115159050919050565b6110608161104c565b811461106a575f80fd5b50565b5f8135905061107b81611057565b92915050565b5f819050919050565b61109381611081565b811461109d575f80fd5b50565b5f813590506110ae8161108a565b92915050565b5f6110be82610f9f565b9050919050565b6110ce816110b4565b81146110d8575f80fd5b50565b5f813590506110e9816110c5565b92915050565b5f805f6060848603121561110657611105610f97565b5b5f6111138682870161106d565b9350506020611124868287016110a0565b9250506040611135868287016110db565b9150509250925092565b61114881610fbe565b82525050565b5f6020820190506111615f83018461113f565b92915050565b611170816110b4565b82525050565b5f6020820190506111895f830184611167565b92915050565b6111988161104c565b82525050565b5f6020820190506111b15f83018461118f565b92915050565b5f81519050919050565b5f82825260208201905092915050565b5f5b838110156111ee5780820151818401526020810190506111d3565b5f8484015250505050565b5f601f19601f8301169050919050565b5f611213826111b7565b61121d81856111c1565b935061122d8185602086016111d1565b611236816111f9565b840191505092915050565b5f6020820190508181035f8301526112598184611209565b905092915050565b61126a81611081565b82525050565b5f6020820190506112835f830184611261565b92915050565b5f80fd5b5f80fd5b5f80fd5b5f8083601f8401126112aa576112a9611289565b5b8235905067ffffffffffffffff8111156112c7576112c661128d565b5b6020830191508360018202830111156112e3576112e2611291565b5b9250929050565b5f805f805f805f806080898b03121561130657611305610f97565b5b5f89013567ffffffffffffffff81111561132357611322610f9b565b5b61132f8b828c01611295565b9850985050602089013567ffffffffffffffff81111561135257611351610f9b565b5b61135e8b828c01611295565b9650965050604089013567ffffffffffffffff81111561138157611380610f9b565b5b61138d8b828c01611295565b9450945050606089013567ffffffffffffffff8111156113b0576113af610f9b565b5b6113bc8b828c01611295565b92509250509295985092959890939650565b5f602082840312156113e3576113e2610f97565b5b5f6113f0848285016110db565b91505092915050565b7f4e487b71000000000000000000000000000000000000000000000000000000005f52604160045260245ffd5b7f4e487b71000000000000000000000000000000000000000000000000000000005f52603260045260245ffd5b7f4e487b71000000000000000000000000000000000000000000000000000000005f52601160045260245ffd5b5f61148a82610ecb565b91507fffffffffffffffffffffffffffffffffffffffffffffffffffffffffffffffff82036114bc576114bb611453565b5b600182019050919050565b7f46756e647261697365722068617320616c7265616479206265656e2076616c695f8201527f6461746564000000000000000000000000000000000000000000000000000000602082015250565b5f6115216025836111c1565b915061152c826114c7565b604082019050919050565b5f6020820190508181035f83015261154e81611515565b9050919050565b7f4e6f2066756e647320617661696c61626c6520666f72207769746864726177615f8201527f6c00000000000000000000000000000000000000000000000000000000000000602082015250565b5f6115af6021836111c1565b91506115ba82611555565b604082019050919050565b5f6020820190508181035f8301526115dc816115a3565b9050919050565b7f4e487b71000000000000000000000000000000000000000000000000000000005f52602260045260245ffd5b5f600282049050600182168061162757607f821691505b60208210810361163a576116396115e3565b5b50919050565b5f82905092915050565b5f819050815f5260205f209050919050565b5f6020601f8301049050919050565b5f82821b905092915050565b5f600883026116a67fffffffffffffffffffffffffffffffffffffffffffffffffffffffffffffffff8261166b565b6116b0868361166b565b95508019841693508086168417925050509392505050565b5f819050919050565b5f6116eb6116e66116e184610ecb565b6116c8565b610ecb565b9050919050565b5f819050919050565b611704836116d1565b611718611710826116f2565b848454611677565b825550505050565b5f90565b61172c611720565b6117378184846116fb565b505050565b5b8181101561175a5761174f5f82611724565b60018101905061173d565b5050565b601f82111561179f576117708161164a565b6117798461165c565b81016020851015611788578190505b61179c6117948561165c565b83018261173c565b50505b505050565b5f82821c905092915050565b5f6117bf5f19846008026117a4565b1980831691505092915050565b5f6117d783836117b0565b9150826002028217905092915050565b6117f18383611640565b67ffffffffffffffff81111561180a576118096113f9565b5b6118148254611610565b61181f82828561175e565b5f601f83116001811461184c575f841561183a578287013590505b61184485826117cc565b8655506118ab565b601f19841661185a8661164a565b5f5b828110156118815784890135825560018201915060208501945060208101905061185c565b8683101561189e578489013561189a601f8916826117b0565b8355505b6001600288020188555050505b50505050505050565b5f81546118c081611610565b6118ca81866111c1565b9450600182165f81146118e457600181146118fa5761192c565b60ff19831686528115156020028601935061192c565b6119038561164a565b5f5b8381101561192457815481890152600182019150602081019050611905565b808801955050505b50505092915050565b5f6080820190508181035f83015261194d81876118b4565b9050818103602083015261196181866118b4565b9050818103604083015261197581856118b4565b9050818103606083015261198981846118b4565b905095945050505050565b7f46756e6472616973657220686173206e6f74206265656e2076616c69646174655f8201527f6420796574000000000000000000000000000000000000000000000000000000602082015250565b5f6119ee6025836111c1565b91506119f982611994565b604082019050919050565b5f6020820190508181035f830152611a1b816119e2565b9050919050565b7f446f6e6174696f6e20616d6f756e74206d7573742062652067726561746572205f8201527f7468616e20300000000000000000000000000000000000000000000000000000602082015250565b5f611a7c6026836111c1565b9150611a8782611a22565b604082019050919050565b5f6020820190508181035f830152611aa981611a70565b9050919050565b5f611aba82610ecb565b9150611ac583610ecb565b9250828201905080821115611add57611adc611453565b5b9291505056fea264697066735822122085b1fc4f63ff310ff2c781568c2b2392ab067da8c841a147fad615620e5324a264736f6c63430008140033a2646970667358221220114a35c1f34edfcb4bbcc926062821a30872e32f56fcb35ea7348a5cad3e9d1664736f6c63430008140033",
  "immutableReferences": {},
  "source": "// SPDX-License-Identifier: GPL-3.0\r\npragma solidity >=0.8.2 <0.9.0;\r\n\r\nimport \"./Fundraiser.sol\";\r\n\r\ncontract Factory {\r\n    uint256 constant maxLimit = 20;\r\n    uint256 public validatorIdCounter = 0;\r\n    uint256 public fundraiserIdCounter = 0;\r\n    Fundraiser[] private _fundraisers;\r\n\r\n    struct Validator {\r\n        uint256 id; \r\n        address validatorAddress;\r\n        string name;\r\n    }\r\n\r\n    modifier onlyValidator() {\r\n        require(validatorsByAddress[msg.sender].id != 0, \"Caller is not a validator\");\r\n        _;\r\n    }\r\n\r\n    mapping(address => Validator) public validatorsByAddress;\r\n    mapping(uint256 => Validator) public validatorsById;\r\n\r\n    event FundraiserCreated(\r\n        Fundraiser indexed fundraiser,\r\n        address indexed owner\r\n    );\r\n\r\n    event ValidatorCreated(\r\n        uint256 id,\r\n        address indexed validatorAddress,\r\n        string name,\r\n        string log\r\n    );\r\n\r\n    event FundraiserSigned(\r\n        Fundraiser indexed fundraiser,\r\n        address indexed validator,\r\n        bool status,\r\n        bytes32 signature\r\n    );\r\n\r\n    function fundraisersCount() public view returns (uint256) {\r\n        return _fundraisers.length;\r\n    }\r\n    \r\n    function getRegisterStatus(address _address) public view returns (bool) { \r\n        return bytes(validatorsByAddress[_address].name).length > 0;\r\n    }\r\n\r\n    function registerValidator(\r\n        address _address,\r\n        string memory _name\r\n    ) public {\r\n        require(bytes(_name).length != 0, \"Name is not valid\");\r\n        require(!getRegisterStatus(_address), \"User must not be registered\");\r\n\r\n        validatorIdCounter++; \r\n\r\n        validatorsByAddress[_address] = Validator(\r\n            validatorIdCounter,\r\n            _address,\r\n            _name\r\n        );\r\n\r\n        validatorsById[validatorIdCounter] = Validator(\r\n            validatorIdCounter,\r\n            _address,\r\n            _name\r\n        );\r\n\r\n        //mengisi event validator Created\r\n        emit ValidatorCreated(\r\n            validatorIdCounter,\r\n            _address,\r\n            _name,\r\n            \"Validator successfully created\"\r\n        );\r\n    }\r\n\r\n    \r\n    function createFundraiser(\r\n    string memory title,\r\n    string memory description,\r\n    string memory url,\r\n    string memory imageURL,\r\n    address payable beneficiary\r\n    ) public {\r\n        require(_fundraisers.length < maxLimit, \"Fundraiser limit reached\");\r\n\r\n        fundraiserIdCounter++;\r\n\r\n        Fundraiser fundraiser = new Fundraiser(\r\n            fundraiserIdCounter,\r\n            title,\r\n            description,\r\n            url,\r\n            imageURL,\r\n            beneficiary,\r\n            msg.sender\r\n        );\r\n\r\n        _fundraisers.push(fundraiser);\r\n        emit FundraiserCreated(fundraiser, msg.sender);\r\n    }\r\n\r\n\r\n    function signFundraiser(uint256 fundraiserId, bool status, bytes32 signature, address validatorAddress) public onlyValidator {\r\n        require(fundraiserId > 0 && fundraiserId <= fundraiserIdCounter, \"Invalid fundraiser ID\");\r\n        Fundraiser fundraiser = _fundraisers[fundraiserId - 1];\r\n        fundraiser.signFundraiser(status, signature, validatorAddress);\r\n        emit FundraiserSigned(fundraiser, msg.sender, status, signature);\r\n    }\r\n\r\n    function getFundraisers(uint256 limit, uint256 offset)\r\n        external\r\n        view\r\n        returns (Fundraiser[] memory coll)\r\n    {\r\n        require(offset <= fundraisersCount(), \"Offset out of bounds\");\r\n\r\n        uint256 size = fundraisersCount() - offset;\r\n        size = size < limit ? size : limit;\r\n        size = size < maxLimit ? size : maxLimit;\r\n\r\n        coll = new Fundraiser[](size);\r\n        for (uint256 i = 0; i < size; i++) {\r\n            coll[i] = _fundraisers[offset + i];\r\n        }\r\n\r\n        return coll;\r\n    }\r\n}\r\n",
  "sourcePath": "C:\\Users\\Diky Wiraguna\\Desktop\\cwfund-dgtsign\\contracts\\Factory.sol",
  "compiler": {
    "name": "solc",
    "version": "0.8.20+commit.a1b79de6.Emscripten.clang"
  },
  "schemaVersion": "3.4.16",
  "updatedAt": "2024-03-07T16:24:14.017Z",
  "networkType": "ethereum",
  "devdoc": {
    "kind": "dev",
    "methods": {},
    "version": 1
  },
  "userdoc": {
    "kind": "user",
    "methods": {},
    "version": 1
  }
}