{
  "contractName": "Fundraiser",
  "abi": [
    {
      "inputs": [
        {
          "internalType": "uint256",
          "name": "_id",
          "type": "uint256"
        },
        {
          "internalType": "string",
          "name": "_title",
          "type": "string"
        },
        {
          "internalType": "string",
          "name": "_description",
          "type": "string"
        },
        {
          "internalType": "string",
          "name": "_url",
          "type": "string"
        },
        {
          "internalType": "string",
          "name": "_imageURL",
          "type": "string"
        },
        {
          "internalType": "address payable",
          "name": "_beneficiary",
          "type": "address"
        },
        {
          "internalType": "address",
          "name": "_custodian",
          "type": "address"
        }
      ],
      "stateMutability": "nonpayable",
      "type": "constructor"
    },
    {
      "inputs": [
        {
          "internalType": "address",
          "name": "owner",
          "type": "address"
        }
      ],
      "name": "OwnableInvalidOwner",
      "type": "error"
    },
    {
      "inputs": [
        {
          "internalType": "address",
          "name": "account",
          "type": "address"
        }
      ],
      "name": "OwnableUnauthorizedAccount",
      "type": "error"
    },
    {
      "anonymous": false,
      "inputs": [
        {
          "indexed": false,
          "internalType": "string",
          "name": "title",
          "type": "string"
        },
        {
          "indexed": false,
          "internalType": "string",
          "name": "description",
          "type": "string"
        },
        {
          "indexed": false,
          "internalType": "string",
          "name": "url",
          "type": "string"
        },
        {
          "indexed": false,
          "internalType": "string",
          "name": "imageURL",
          "type": "string"
        }
      ],
      "name": "DetailsUpdated",
      "type": "event"
    },
    {
      "anonymous": false,
      "inputs": [
        {
          "indexed": true,
          "internalType": "address",
          "name": "donor",
          "type": "address"
        },
        {
          "indexed": false,
          "internalType": "uint256",
          "name": "value",
          "type": "uint256"
        }
      ],
      "name": "DonationReceived",
      "type": "event"
    },
    {
      "anonymous": false,
      "inputs": [
        {
          "indexed": true,
          "internalType": "address",
          "name": "previousOwner",
          "type": "address"
        },
        {
          "indexed": true,
          "internalType": "address",
          "name": "newOwner",
          "type": "address"
        }
      ],
      "name": "OwnershipTransferred",
      "type": "event"
    },
    {
      "anonymous": false,
      "inputs": [
        {
          "indexed": false,
          "internalType": "uint256",
          "name": "amount",
          "type": "uint256"
        }
      ],
      "name": "Withdraw",
      "type": "event"
    },
    {
      "stateMutability": "payable",
      "type": "fallback"
    },
    {
      "inputs": [],
      "name": "beneficiary",
      "outputs": [
        {
          "internalType": "address payable",
          "name": "",
          "type": "address"
        }
      ],
      "stateMutability": "view",
      "type": "function"
    },
    {
      "inputs": [],
      "name": "description",
      "outputs": [
        {
          "internalType": "string",
          "name": "",
          "type": "string"
        }
      ],
      "stateMutability": "view",
      "type": "function"
    },
    {
      "inputs": [],
      "name": "donationsCount",
      "outputs": [
        {
          "internalType": "uint256",
          "name": "",
          "type": "uint256"
        }
      ],
      "stateMutability": "view",
      "type": "function"
    },
    {
      "inputs": [],
      "name": "id",
      "outputs": [
        {
          "internalType": "uint256",
          "name": "",
          "type": "uint256"
        }
      ],
      "stateMutability": "view",
      "type": "function"
    },
    {
      "inputs": [],
      "name": "imageURL",
      "outputs": [
        {
          "internalType": "string",
          "name": "",
          "type": "string"
        }
      ],
      "stateMutability": "view",
      "type": "function"
    },
    {
      "inputs": [],
      "name": "owner",
      "outputs": [
        {
          "internalType": "address",
          "name": "",
          "type": "address"
        }
      ],
      "stateMutability": "view",
      "type": "function"
    },
    {
      "inputs": [],
      "name": "renounceOwnership",
      "outputs": [],
      "stateMutability": "nonpayable",
      "type": "function"
    },
    {
      "inputs": [],
      "name": "signature",
      "outputs": [
        {
          "internalType": "bytes32",
          "name": "",
          "type": "bytes32"
        }
      ],
      "stateMutability": "view",
      "type": "function"
    },
    {
      "inputs": [],
      "name": "title",
      "outputs": [
        {
          "internalType": "string",
          "name": "",
          "type": "string"
        }
      ],
      "stateMutability": "view",
      "type": "function"
    },
    {
      "inputs": [],
      "name": "totalDonations",
      "outputs": [
        {
          "internalType": "uint256",
          "name": "",
          "type": "uint256"
        }
      ],
      "stateMutability": "view",
      "type": "function"
    },
    {
      "inputs": [
        {
          "internalType": "address",
          "name": "newOwner",
          "type": "address"
        }
      ],
      "name": "transferOwnership",
      "outputs": [],
      "stateMutability": "nonpayable",
      "type": "function"
    },
    {
      "inputs": [],
      "name": "url",
      "outputs": [
        {
          "internalType": "string",
          "name": "",
          "type": "string"
        }
      ],
      "stateMutability": "view",
      "type": "function"
    },
    {
      "inputs": [],
      "name": "validationStatus",
      "outputs": [
        {
          "internalType": "bool",
          "name": "",
          "type": "bool"
        }
      ],
      "stateMutability": "view",
      "type": "function"
    },
    {
      "inputs": [],
      "name": "validatorAddress",
      "outputs": [
        {
          "internalType": "address",
          "name": "",
          "type": "address"
        }
      ],
      "stateMutability": "view",
      "type": "function"
    },
    {
      "stateMutability": "payable",
      "type": "receive"
    },
    {
      "inputs": [
        {
          "internalType": "bool",
          "name": "_status",
          "type": "bool"
        },
        {
          "internalType": "bytes32",
          "name": "_signature",
          "type": "bytes32"
        },
        {
          "internalType": "address",
          "name": "_validatorAddress",
          "type": "address"
        }
      ],
      "name": "signFundraiser",
      "outputs": [],
      "stateMutability": "nonpayable",
      "type": "function"
    },
    {
      "inputs": [
        {
          "internalType": "string",
          "name": "_title",
          "type": "string"
        },
        {
          "internalType": "string",
          "name": "_description",
          "type": "string"
        },
        {
          "internalType": "string",
          "name": "_url",
          "type": "string"
        },
        {
          "internalType": "string",
          "name": "_imageURL",
          "type": "string"
        }
      ],
      "name": "updateDetails",
      "outputs": [],
      "stateMutability": "nonpayable",
      "type": "function"
    },
    {
      "inputs": [
        {
          "internalType": "address payable",
          "name": "_beneficiary",
          "type": "address"
        }
      ],
      "name": "setBeneficiary",
      "outputs": [],
      "stateMutability": "nonpayable",
      "type": "function"
    },
    {
      "inputs": [],
      "name": "myDonationsCount",
      "outputs": [
        {
          "internalType": "uint256",
          "name": "",
          "type": "uint256"
        }
      ],
      "stateMutability": "view",
      "type": "function"
    },
    {
      "inputs": [],
      "name": "donate",
      "outputs": [],
      "stateMutability": "payable",
      "type": "function"
    },
    {
      "inputs": [],
      "name": "myDonations",
      "outputs": [
        {
          "internalType": "uint256[]",
          "name": "values",
          "type": "uint256[]"
        },
        {
          "internalType": "uint256[]",
          "name": "dates",
          "type": "uint256[]"
        }
      ],
      "stateMutability": "view",
      "type": "function"
    },
    {
      "inputs": [],
      "name": "withdraw",
      "outputs": [],
      "stateMutability": "nonpayable",
      "type": "function"
    }
  ],
  "bytecode": "0x608060405234801562000010575f80fd5b50604051620024b3380380620024b3833981810160405281019062000036919062000653565b805f73ffffffffffffffffffffffffffffffffffffffff168173ffffffffffffffffffffffffffffffffffffffff1603620000aa575f6040517f1e4fbdf7000000000000000000000000000000000000000000000000000000008152600401620000a191906200078e565b60405180910390fd5b620000bb81620001cb60201b60201c565b50866002819055508560039081620000d49190620009d7565b508460049081620000e69190620009d7565b508360059081620000f89190620009d7565b5082600690816200010a9190620009d7565b5081600a5f6101000a81548173ffffffffffffffffffffffffffffffffffffffff021916908373ffffffffffffffffffffffffffffffffffffffff1602179055505f60075f6101000a81548160ff0219169083151502179055505f801b6008819055505f60095f6101000a81548173ffffffffffffffffffffffffffffffffffffffff021916908373ffffffffffffffffffffffffffffffffffffffff160217905550620001be816200028c60201b60201c565b5050505050505062000abb565b5f805f9054906101000a900473ffffffffffffffffffffffffffffffffffffffff169050815f806101000a81548173ffffffffffffffffffffffffffffffffffffffff021916908373ffffffffffffffffffffffffffffffffffffffff1602179055508173ffffffffffffffffffffffffffffffffffffffff168173ffffffffffffffffffffffffffffffffffffffff167f8be0079c531659141344cd1fd0a4f28419497f9722a3daafe3b4186f6b6457e060405160405180910390a35050565b6200029c6200032360201b60201c565b5f73ffffffffffffffffffffffffffffffffffffffff168173ffffffffffffffffffffffffffffffffffffffff16036200030f575f6040517f1e4fbdf70000000000000000000000000000000000000000000000000000000081526004016200030691906200078e565b60405180910390fd5b6200032081620001cb60201b60201c565b50565b62000333620003c560201b60201c565b73ffffffffffffffffffffffffffffffffffffffff1662000359620003cc60201b60201c565b73ffffffffffffffffffffffffffffffffffffffff1614620003c35762000385620003c560201b60201c565b6040517f118cdaa7000000000000000000000000000000000000000000000000000000008152600401620003ba91906200078e565b60405180910390fd5b565b5f33905090565b5f805f9054906101000a900473ffffffffffffffffffffffffffffffffffffffff16905090565b5f604051905090565b5f80fd5b5f80fd5b5f819050919050565b620004188162000404565b811462000423575f80fd5b50565b5f8151905062000436816200040d565b92915050565b5f80fd5b5f80fd5b5f601f19601f8301169050919050565b7f4e487b71000000000000000000000000000000000000000000000000000000005f52604160045260245ffd5b6200048c8262000444565b810181811067ffffffffffffffff82111715620004ae57620004ad62000454565b5b80604052505050565b5f620004c2620003f3565b9050620004d0828262000481565b919050565b5f67ffffffffffffffff821115620004f257620004f162000454565b5b620004fd8262000444565b9050602081019050919050565b5f5b83811015620005295780820151818401526020810190506200050c565b5f8484015250505050565b5f6200054a6200054484620004d5565b620004b7565b90508281526020810184848401111562000569576200056862000440565b5b620005768482856200050a565b509392505050565b5f82601f8301126200059557620005946200043c565b5b8151620005a784826020860162000534565b91505092915050565b5f73ffffffffffffffffffffffffffffffffffffffff82169050919050565b5f620005db82620005b0565b9050919050565b620005ed81620005cf565b8114620005f8575f80fd5b50565b5f815190506200060b81620005e2565b92915050565b5f6200061d82620005b0565b9050919050565b6200062f8162000611565b81146200063a575f80fd5b50565b5f815190506200064d8162000624565b92915050565b5f805f805f805f60e0888a031215620006715762000670620003fc565b5b5f620006808a828b0162000426565b975050602088015167ffffffffffffffff811115620006a457620006a362000400565b5b620006b28a828b016200057e565b965050604088015167ffffffffffffffff811115620006d657620006d562000400565b5b620006e48a828b016200057e565b955050606088015167ffffffffffffffff81111562000708576200070762000400565b5b620007168a828b016200057e565b945050608088015167ffffffffffffffff8111156200073a576200073962000400565b5b620007488a828b016200057e565b93505060a06200075b8a828b01620005fb565b92505060c06200076e8a828b016200063d565b91505092959891949750929550565b620007888162000611565b82525050565b5f602082019050620007a35f8301846200077d565b92915050565b5f81519050919050565b7f4e487b71000000000000000000000000000000000000000000000000000000005f52602260045260245ffd5b5f6002820490506001821680620007f857607f821691505b6020821081036200080e576200080d620007b3565b5b50919050565b5f819050815f5260205f209050919050565b5f6020601f8301049050919050565b5f82821b905092915050565b5f60088302620008727fffffffffffffffffffffffffffffffffffffffffffffffffffffffffffffffff8262000835565b6200087e868362000835565b95508019841693508086168417925050509392505050565b5f819050919050565b5f620008bf620008b9620008b38462000404565b62000896565b62000404565b9050919050565b5f819050919050565b620008da836200089f565b620008f2620008e982620008c6565b84845462000841565b825550505050565b5f90565b62000908620008fa565b62000915818484620008cf565b505050565b5b818110156200093c57620009305f82620008fe565b6001810190506200091b565b5050565b601f8211156200098b57620009558162000814565b620009608462000826565b8101602085101562000970578190505b620009886200097f8562000826565b8301826200091a565b50505b505050565b5f82821c905092915050565b5f620009ad5f198460080262000990565b1980831691505092915050565b5f620009c783836200099c565b9150826002028217905092915050565b620009e282620007a9565b67ffffffffffffffff811115620009fe57620009fd62000454565b5b62000a0a8254620007e0565b62000a1782828562000940565b5f60209050601f83116001811462000a4d575f841562000a38578287015190505b62000a448582620009ba565b86555062000ab3565b601f19841662000a5d8662000814565b5f5b8281101562000a865784890151825560018201915060208501945060208101905062000a5f565b8683101562000aa6578489015162000aa2601f8916826200099c565b8355505b6001600288020188555050505b505050505050565b6119ea8062000ac95f395ff3fe60806040526004361061012d575f3560e01c806351ff4847116100aa5780638da5cb5b1161006e5780638da5cb5b1461038f578063af640d0f146103b9578063b90497e0146103e3578063de2ed8931461040d578063ed88c68e14610437578063f2fde38b146104415761013c565b806351ff4847146102d35780635600f04f146102fd5780636049a45d14610327578063715018a61461034f5780637284e416146103655761013c565b806338af3eed116100f157806338af3eed146102155780633ccfd60b1461023f5780633fe4676e1461025557806344a2563b1461027f5780634a79d50c146102a95761013c565b80630180b97c146101465780631a57f7b4146101705780631c31f7101461019b5780631f522595146101c35780632c94c33f146101ed5761013c565b3661013c5761013a610469565b005b610144610469565b005b348015610151575f80fd5b5061015a6104e8565b6040516101679190610ea7565b60405180910390f35b34801561017b575f80fd5b5061018461052f565b604051610192929190610f77565b60405180910390f35b3480156101a6575f80fd5b506101c160048036038101906101bc919061100e565b61069c565b005b3480156101ce575f80fd5b506101d76106e7565b6040516101e49190610ea7565b60405180910390f35b3480156101f8575f80fd5b50610213600480360381019061020e91906110dc565b6106ed565b005b348015610220575f80fd5b506102296107ae565b604051610236919061113b565b60405180910390f35b34801561024a575f80fd5b506102536107d3565b005b348015610260575f80fd5b5061026961087e565b6040516102769190611163565b60405180910390f35b34801561028a575f80fd5b506102936108a3565b6040516102a0919061118b565b60405180910390f35b3480156102b4575f80fd5b506102bd6108b5565b6040516102ca919061122e565b60405180910390f35b3480156102de575f80fd5b506102e7610941565b6040516102f4919061125d565b60405180910390f35b348015610308575f80fd5b50610311610947565b60405161031e919061122e565b60405180910390f35b348015610332575f80fd5b5061034d600480360381019061034891906112d7565b6109d3565b005b34801561035a575f80fd5b50610363610a6e565b005b348015610370575f80fd5b50610379610a81565b604051610386919061122e565b60405180910390f35b34801561039a575f80fd5b506103a3610b0d565b6040516103b09190611163565b60405180910390f35b3480156103c4575f80fd5b506103cd610b34565b6040516103da9190610ea7565b60405180910390f35b3480156103ee575f80fd5b506103f7610b3a565b604051610404919061122e565b60405180910390f35b348015610418575f80fd5b50610421610bc6565b60405161042e9190610ea7565b60405180910390f35b61043f610bcc565b005b34801561044c575f80fd5b50610467600480360381019061046291906113bb565b610cbc565b005b34600b5f82825461047a9190611413565b92505081905550600c5f81548092919061049390611446565b91905055503373ffffffffffffffffffffffffffffffffffffffff167f264f630d9efa0d07053a31163641d9fcc0adafc9d9e76f1c37c2ce3a558d2c52346040516104de9190610ea7565b60405180910390a2565b5f60015f3373ffffffffffffffffffffffffffffffffffffffff1673ffffffffffffffffffffffffffffffffffffffff1681526020019081526020015f2080549050905090565b6060805f61053b6104e8565b90508067ffffffffffffffff8111156105575761055661148d565b5b6040519080825280602002602001820160405280156105855781602001602082028036833780820191505090505b5092508067ffffffffffffffff8111156105a2576105a161148d565b5b6040519080825280602002602001820160405280156105d05781602001602082028036833780820191505090505b5091505f5b81811015610696575f60015f3373ffffffffffffffffffffffffffffffffffffffff1673ffffffffffffffffffffffffffffffffffffffff1681526020019081526020015f20828154811061062d5761062c6114ba565b5b905f5260205f2090600202019050805f0154858381518110610652576106516114ba565b5b6020026020010181815250508060010154848381518110610676576106756114ba565b5b60200260200101818152505050808061068e90611446565b9150506105d5565b50509091565b6106a4610d40565b80600a5f6101000a81548173ffffffffffffffffffffffffffffffffffffffff021916908373ffffffffffffffffffffffffffffffffffffffff16021790555050565b600c5481565b6106f5610d40565b5f151560075f9054906101000a900460ff16151514610749576040517f08c379a000000000000000000000000000000000000000000000000000000000815260040161074090611557565b60405180910390fd5b8260075f6101000a81548160ff021916908315150217905550816008819055508060095f6101000a81548173ffffffffffffffffffffffffffffffffffffffff021916908373ffffffffffffffffffffffffffffffffffffffff160217905550505050565b600a5f9054906101000a900473ffffffffffffffffffffffffffffffffffffffff1681565b6107db610d40565b5f479050600a5f9054906101000a900473ffffffffffffffffffffffffffffffffffffffff1673ffffffffffffffffffffffffffffffffffffffff166108fc8290811502906040515f60405180830381858888f19350505050158015610843573d5f803e3d5ffd5b507f5b6b431d4476a211bb7d41c20d1aab9ae2321deee0d20be3d9fc9b1093fa6e3d816040516108739190610ea7565b60405180910390a150565b60095f9054906101000a900473ffffffffffffffffffffffffffffffffffffffff1681565b60075f9054906101000a900460ff1681565b600380546108c2906115a2565b80601f01602080910402602001604051908101604052809291908181526020018280546108ee906115a2565b80156109395780601f1061091057610100808354040283529160200191610939565b820191905f5260205f20905b81548152906001019060200180831161091c57829003601f168201915b505050505081565b60085481565b60058054610954906115a2565b80601f0160208091040260200160405190810160405280929190818152602001828054610980906115a2565b80156109cb5780601f106109a2576101008083540402835291602001916109cb565b820191905f5260205f20905b8154815290600101906020018083116109ae57829003601f168201915b505050505081565b6109db610d40565b8787600391826109ec929190611779565b508585600491826109fe929190611779565b50838360059182610a10929190611779565b50818160069182610a22929190611779565b507fab7b858a76f7f410a859fcd42382d57f243f86330875a685d74d96f60a6337f96003600460056006604051610a5c94939291906118c7565b60405180910390a15050505050505050565b610a76610d40565b610a7f5f610dc7565b565b60048054610a8e906115a2565b80601f0160208091040260200160405190810160405280929190818152602001828054610aba906115a2565b8015610b055780601f10610adc57610100808354040283529160200191610b05565b820191905f5260205f20905b815481529060010190602001808311610ae857829003601f168201915b505050505081565b5f805f9054906101000a900473ffffffffffffffffffffffffffffffffffffffff16905090565b60025481565b60068054610b47906115a2565b80601f0160208091040260200160405190810160405280929190818152602001828054610b73906115a2565b8015610bbe5780601f10610b9557610100808354040283529160200191610bbe565b820191905f5260205f20905b815481529060010190602001808311610ba157829003601f168201915b505050505081565b600b5481565b6001151560075f9054906101000a900460ff16151514610c21576040517f08c379a0000000000000000000000000000000000000000000000000000000008152600401610c1890611996565b60405180910390fd5b5f604051806040016040528034815260200142815250905060015f3373ffffffffffffffffffffffffffffffffffffffff1673ffffffffffffffffffffffffffffffffffffffff1681526020019081526020015f2081908060018154018082558091505060019003905f5260205f2090600202015f909190919091505f820151815f0155602082015181600101555050610cb9610469565b50565b610cc4610d40565b5f73ffffffffffffffffffffffffffffffffffffffff168173ffffffffffffffffffffffffffffffffffffffff1603610d34575f6040517f1e4fbdf7000000000000000000000000000000000000000000000000000000008152600401610d2b9190611163565b60405180910390fd5b610d3d81610dc7565b50565b610d48610e88565b73ffffffffffffffffffffffffffffffffffffffff16610d66610b0d565b73ffffffffffffffffffffffffffffffffffffffff1614610dc557610d89610e88565b6040517f118cdaa7000000000000000000000000000000000000000000000000000000008152600401610dbc9190611163565b60405180910390fd5b565b5f805f9054906101000a900473ffffffffffffffffffffffffffffffffffffffff169050815f806101000a81548173ffffffffffffffffffffffffffffffffffffffff021916908373ffffffffffffffffffffffffffffffffffffffff1602179055508173ffffffffffffffffffffffffffffffffffffffff168173ffffffffffffffffffffffffffffffffffffffff167f8be0079c531659141344cd1fd0a4f28419497f9722a3daafe3b4186f6b6457e060405160405180910390a35050565b5f33905090565b5f819050919050565b610ea181610e8f565b82525050565b5f602082019050610eba5f830184610e98565b92915050565b5f81519050919050565b5f82825260208201905092915050565b5f819050602082019050919050565b610ef281610e8f565b82525050565b5f610f038383610ee9565b60208301905092915050565b5f602082019050919050565b5f610f2582610ec0565b610f2f8185610eca565b9350610f3a83610eda565b805f5b83811015610f6a578151610f518882610ef8565b9750610f5c83610f0f565b925050600181019050610f3d565b5085935050505092915050565b5f6040820190508181035f830152610f8f8185610f1b565b90508181036020830152610fa38184610f1b565b90509392505050565b5f80fd5b5f80fd5b5f73ffffffffffffffffffffffffffffffffffffffff82169050919050565b5f610fdd82610fb4565b9050919050565b610fed81610fd3565b8114610ff7575f80fd5b50565b5f8135905061100881610fe4565b92915050565b5f6020828403121561102357611022610fac565b5b5f61103084828501610ffa565b91505092915050565b5f8115159050919050565b61104d81611039565b8114611057575f80fd5b50565b5f8135905061106881611044565b92915050565b5f819050919050565b6110808161106e565b811461108a575f80fd5b50565b5f8135905061109b81611077565b92915050565b5f6110ab82610fb4565b9050919050565b6110bb816110a1565b81146110c5575f80fd5b50565b5f813590506110d6816110b2565b92915050565b5f805f606084860312156110f3576110f2610fac565b5b5f6111008682870161105a565b93505060206111118682870161108d565b9250506040611122868287016110c8565b9150509250925092565b61113581610fd3565b82525050565b5f60208201905061114e5f83018461112c565b92915050565b61115d816110a1565b82525050565b5f6020820190506111765f830184611154565b92915050565b61118581611039565b82525050565b5f60208201905061119e5f83018461117c565b92915050565b5f81519050919050565b5f82825260208201905092915050565b5f5b838110156111db5780820151818401526020810190506111c0565b5f8484015250505050565b5f601f19601f8301169050919050565b5f611200826111a4565b61120a81856111ae565b935061121a8185602086016111be565b611223816111e6565b840191505092915050565b5f6020820190508181035f83015261124681846111f6565b905092915050565b6112578161106e565b82525050565b5f6020820190506112705f83018461124e565b92915050565b5f80fd5b5f80fd5b5f80fd5b5f8083601f84011261129757611296611276565b5b8235905067ffffffffffffffff8111156112b4576112b361127a565b5b6020830191508360018202830111156112d0576112cf61127e565b5b9250929050565b5f805f805f805f806080898b0312156112f3576112f2610fac565b5b5f89013567ffffffffffffffff8111156113105761130f610fb0565b5b61131c8b828c01611282565b9850985050602089013567ffffffffffffffff81111561133f5761133e610fb0565b5b61134b8b828c01611282565b9650965050604089013567ffffffffffffffff81111561136e5761136d610fb0565b5b61137a8b828c01611282565b9450945050606089013567ffffffffffffffff81111561139d5761139c610fb0565b5b6113a98b828c01611282565b92509250509295985092959890939650565b5f602082840312156113d0576113cf610fac565b5b5f6113dd848285016110c8565b91505092915050565b7f4e487b71000000000000000000000000000000000000000000000000000000005f52601160045260245ffd5b5f61141d82610e8f565b915061142883610e8f565b92508282019050808211156114405761143f6113e6565b5b92915050565b5f61145082610e8f565b91507fffffffffffffffffffffffffffffffffffffffffffffffffffffffffffffffff8203611482576114816113e6565b5b600182019050919050565b7f4e487b71000000000000000000000000000000000000000000000000000000005f52604160045260245ffd5b7f4e487b71000000000000000000000000000000000000000000000000000000005f52603260045260245ffd5b7f46756e647261697365722068617320616c7265616479206265656e2076616c695f8201527f6461746564000000000000000000000000000000000000000000000000000000602082015250565b5f6115416025836111ae565b915061154c826114e7565b604082019050919050565b5f6020820190508181035f83015261156e81611535565b9050919050565b7f4e487b71000000000000000000000000000000000000000000000000000000005f52602260045260245ffd5b5f60028204905060018216806115b957607f821691505b6020821081036115cc576115cb611575565b5b50919050565b5f82905092915050565b5f819050815f5260205f209050919050565b5f6020601f8301049050919050565b5f82821b905092915050565b5f600883026116387fffffffffffffffffffffffffffffffffffffffffffffffffffffffffffffffff826115fd565b61164286836115fd565b95508019841693508086168417925050509392505050565b5f819050919050565b5f61167d61167861167384610e8f565b61165a565b610e8f565b9050919050565b5f819050919050565b61169683611663565b6116aa6116a282611684565b848454611609565b825550505050565b5f90565b6116be6116b2565b6116c981848461168d565b505050565b5b818110156116ec576116e15f826116b6565b6001810190506116cf565b5050565b601f82111561173157611702816115dc565b61170b846115ee565b8101602085101561171a578190505b61172e611726856115ee565b8301826116ce565b50505b505050565b5f82821c905092915050565b5f6117515f1984600802611736565b1980831691505092915050565b5f6117698383611742565b9150826002028217905092915050565b61178383836115d2565b67ffffffffffffffff81111561179c5761179b61148d565b5b6117a682546115a2565b6117b18282856116f0565b5f601f8311600181146117de575f84156117cc578287013590505b6117d6858261175e565b86555061183d565b601f1984166117ec866115dc565b5f5b82811015611813578489013582556001820191506020850194506020810190506117ee565b86831015611830578489013561182c601f891682611742565b8355505b6001600288020188555050505b50505050505050565b5f8154611852816115a2565b61185c81866111ae565b9450600182165f8114611876576001811461188c576118be565b60ff1983168652811515602002860193506118be565b611895856115dc565b5f5b838110156118b657815481890152600182019150602081019050611897565b808801955050505b50505092915050565b5f6080820190508181035f8301526118df8187611846565b905081810360208301526118f38186611846565b905081810360408301526119078185611846565b9050818103606083015261191b8184611846565b905095945050505050565b7f46756e6472616973657220686173206e6f74206265656e2076616c69646174655f8201527f6420796574000000000000000000000000000000000000000000000000000000602082015250565b5f6119806025836111ae565b915061198b82611926565b604082019050919050565b5f6020820190508181035f8301526119ad81611974565b905091905056fea2646970667358221220a585a862db6d09403b2c84fd7ec36389c79113c1e04dfa6310952a4c6e417dca64736f6c63430008140033",
  "immutableReferences": {},
  "source": "// SPDX-License-Identifier: GPL-3.0\r\npragma solidity >=0.8.2 <0.9.0;\r\n\r\nimport \"@openzeppelin/contracts/access/Ownable.sol\";\r\n\r\ncontract Fundraiser is Ownable {\r\n    struct Donation {\r\n        uint256 value;\r\n        uint256 date;\r\n    }\r\n\r\n    mapping(address => Donation[]) private _donations;\r\n\r\n    event DonationReceived(address indexed donor, uint256 value);\r\n    event Withdraw(uint256 amount);\r\n    event DetailsUpdated(\r\n        string title,\r\n        string description,\r\n        string url,\r\n        string imageURL\r\n    );\r\n\r\n    uint256 public id;\r\n    string public title;\r\n    string public description;\r\n    string public url;\r\n    string public imageURL;\r\n    bool public validationStatus;\r\n    bytes32 public signature;\r\n    address public validatorAddress;\r\n    address payable public beneficiary;\r\n    uint256 public totalDonations;\r\n    uint256 public donationsCount;\r\n\r\n    constructor(\r\n        uint256 _id,\r\n        string memory _title,\r\n        string memory _description,\r\n        string memory _url,\r\n        string memory _imageURL,\r\n        address payable _beneficiary,\r\n        address _custodian\r\n    ) Ownable(_custodian) {\r\n        id = _id;\r\n        title = _title;\r\n        description = _description;\r\n        url = _url;\r\n        imageURL = _imageURL;\r\n        beneficiary = _beneficiary;\r\n        validationStatus = false;\r\n        signature = 0;\r\n        validatorAddress = address(0);\r\n        transferOwnership(_custodian);\r\n    }\r\n\r\n    // Validator sets validation status and signature\r\n    function signFundraiser(bool _status, bytes32 _signature, address _validatorAddress) public onlyOwner {\r\n        require(validationStatus == false, \"Fundraiser has already been validated\");\r\n        validationStatus = _status;\r\n        signature = _signature;\r\n        validatorAddress = _validatorAddress;\r\n    }\r\n\r\n    fallback() external payable {\r\n        receiveDonation();\r\n    }\r\n\r\n    receive() external payable {\r\n        receiveDonation();\r\n    }\r\n\r\n    function receiveDonation() private {\r\n        totalDonations += msg.value;\r\n        donationsCount++;\r\n        emit DonationReceived(msg.sender, msg.value);\r\n    }\r\n\r\n    function updateDetails(\r\n        string calldata _title,\r\n        string calldata _description,\r\n        string calldata _url,\r\n        string calldata _imageURL\r\n    ) external onlyOwner {\r\n        title = _title;\r\n        description = _description;\r\n        url = _url;\r\n        imageURL = _imageURL;\r\n        emit DetailsUpdated(title, description, url, imageURL);\r\n    }\r\n\r\n    function setBeneficiary(address payable _beneficiary) public onlyOwner {\r\n        beneficiary = _beneficiary;\r\n    }\r\n\r\n    function myDonationsCount() public view returns (uint256) {\r\n        return _donations[msg.sender].length;\r\n    }\r\n\r\n    function donate() public payable {\r\n        require(validationStatus == true, \"Fundraiser has not been validated yet\");\r\n    \r\n        Donation memory donation = Donation({\r\n            value: msg.value,\r\n            date: block.timestamp\r\n        });\r\n        _donations[msg.sender].push(donation);\r\n        receiveDonation();\r\n    }\r\n\r\n    function myDonations()\r\n        public\r\n        view\r\n        returns (uint256[] memory values, uint256[] memory dates)\r\n    {\r\n        uint256 count = myDonationsCount();\r\n        values = new uint256[](count);\r\n        dates = new uint256[](count);\r\n        for (uint256 i = 0; i < count; i++) {\r\n            Donation storage donation = _donations[msg.sender][i];\r\n            values[i] = donation.value;\r\n            dates[i] = donation.date;\r\n        }\r\n        return (values, dates);\r\n    }\r\n\r\n    function withdraw() public onlyOwner {\r\n        uint256 balance = address(this).balance;\r\n        beneficiary.transfer(balance);\r\n        emit Withdraw(balance);\r\n    }\r\n}",
  "sourcePath": "C:\\Users\\Diky Wiraguna\\Desktop\\cwfund-dgtsign\\contracts\\Fundraiser.sol",
  "compiler": {
    "name": "solc",
    "version": "0.8.20+commit.a1b79de6.Emscripten.clang"
  },
  "schemaVersion": "3.4.16",
  "updatedAt": "2024-02-28T01:30:04.858Z",
  "devdoc": {
    "errors": {
      "OwnableInvalidOwner(address)": [
        {
          "details": "The owner is not a valid owner account. (eg. `address(0)`)"
        }
      ],
      "OwnableUnauthorizedAccount(address)": [
        {
          "details": "The caller account is not authorized to perform an operation."
        }
      ]
    },
    "kind": "dev",
    "methods": {
      "owner()": {
        "details": "Returns the address of the current owner."
      },
      "renounceOwnership()": {
        "details": "Leaves the contract without owner. It will not be possible to call `onlyOwner` functions. Can only be called by the current owner. NOTE: Renouncing ownership will leave the contract without an owner, thereby disabling any functionality that is only available to the owner."
      },
      "transferOwnership(address)": {
        "details": "Transfers ownership of the contract to a new account (`newOwner`). Can only be called by the current owner."
      }
    },
    "version": 1
  },
  "userdoc": {
    "kind": "user",
    "methods": {},
    "version": 1
  }
}