{
  "contractName": "Fundraiser",
  "abi": [
    {
      "inputs": [
        {
          "internalType": "uint256",
          "name": "_id",
          "type": "uint256"
        },
        {
          "internalType": "string",
          "name": "_title",
          "type": "string"
        },
        {
          "internalType": "string",
          "name": "_description",
          "type": "string"
        },
        {
          "internalType": "string",
          "name": "_url",
          "type": "string"
        },
        {
          "internalType": "string",
          "name": "_imageURL",
          "type": "string"
        },
        {
          "internalType": "address payable",
          "name": "_beneficiary",
          "type": "address"
        }
      ],
      "stateMutability": "nonpayable",
      "type": "constructor"
    },
    {
      "inputs": [
        {
          "internalType": "address",
          "name": "owner",
          "type": "address"
        }
      ],
      "name": "OwnableInvalidOwner",
      "type": "error"
    },
    {
      "inputs": [
        {
          "internalType": "address",
          "name": "account",
          "type": "address"
        }
      ],
      "name": "OwnableUnauthorizedAccount",
      "type": "error"
    },
    {
      "anonymous": false,
      "inputs": [
        {
          "indexed": false,
          "internalType": "string",
          "name": "title",
          "type": "string"
        },
        {
          "indexed": false,
          "internalType": "string",
          "name": "description",
          "type": "string"
        },
        {
          "indexed": false,
          "internalType": "string",
          "name": "url",
          "type": "string"
        },
        {
          "indexed": false,
          "internalType": "string",
          "name": "imageURL",
          "type": "string"
        }
      ],
      "name": "DetailsUpdated",
      "type": "event"
    },
    {
      "anonymous": false,
      "inputs": [
        {
          "indexed": true,
          "internalType": "address",
          "name": "donor",
          "type": "address"
        },
        {
          "indexed": false,
          "internalType": "uint256",
          "name": "value",
          "type": "uint256"
        }
      ],
      "name": "DonationReceived",
      "type": "event"
    },
    {
      "anonymous": false,
      "inputs": [
        {
          "indexed": true,
          "internalType": "address",
          "name": "previousOwner",
          "type": "address"
        },
        {
          "indexed": true,
          "internalType": "address",
          "name": "newOwner",
          "type": "address"
        }
      ],
      "name": "OwnershipTransferred",
      "type": "event"
    },
    {
      "anonymous": false,
      "inputs": [
        {
          "indexed": false,
          "internalType": "uint256",
          "name": "amount",
          "type": "uint256"
        }
      ],
      "name": "Withdraw",
      "type": "event"
    },
    {
      "inputs": [],
      "name": "beneficiary",
      "outputs": [
        {
          "internalType": "address payable",
          "name": "",
          "type": "address"
        }
      ],
      "stateMutability": "view",
      "type": "function"
    },
    {
      "inputs": [],
      "name": "description",
      "outputs": [
        {
          "internalType": "string",
          "name": "",
          "type": "string"
        }
      ],
      "stateMutability": "view",
      "type": "function"
    },
    {
      "inputs": [],
      "name": "id",
      "outputs": [
        {
          "internalType": "uint256",
          "name": "",
          "type": "uint256"
        }
      ],
      "stateMutability": "view",
      "type": "function"
    },
    {
      "inputs": [],
      "name": "imageURL",
      "outputs": [
        {
          "internalType": "string",
          "name": "",
          "type": "string"
        }
      ],
      "stateMutability": "view",
      "type": "function"
    },
    {
      "inputs": [],
      "name": "owner",
      "outputs": [
        {
          "internalType": "address",
          "name": "",
          "type": "address"
        }
      ],
      "stateMutability": "view",
      "type": "function"
    },
    {
      "inputs": [],
      "name": "renounceOwnership",
      "outputs": [],
      "stateMutability": "nonpayable",
      "type": "function"
    },
    {
      "inputs": [],
      "name": "signature",
      "outputs": [
        {
          "internalType": "string",
          "name": "",
          "type": "string"
        }
      ],
      "stateMutability": "view",
      "type": "function"
    },
    {
      "inputs": [],
      "name": "title",
      "outputs": [
        {
          "internalType": "string",
          "name": "",
          "type": "string"
        }
      ],
      "stateMutability": "view",
      "type": "function"
    },
    {
      "inputs": [],
      "name": "totalDonations",
      "outputs": [
        {
          "internalType": "uint256",
          "name": "",
          "type": "uint256"
        }
      ],
      "stateMutability": "view",
      "type": "function"
    },
    {
      "inputs": [
        {
          "internalType": "address",
          "name": "newOwner",
          "type": "address"
        }
      ],
      "name": "transferOwnership",
      "outputs": [],
      "stateMutability": "nonpayable",
      "type": "function"
    },
    {
      "inputs": [],
      "name": "url",
      "outputs": [
        {
          "internalType": "string",
          "name": "",
          "type": "string"
        }
      ],
      "stateMutability": "view",
      "type": "function"
    },
    {
      "inputs": [],
      "name": "validationStatus",
      "outputs": [
        {
          "internalType": "bool",
          "name": "",
          "type": "bool"
        }
      ],
      "stateMutability": "view",
      "type": "function"
    },
    {
      "inputs": [],
      "name": "validatorAddress",
      "outputs": [
        {
          "internalType": "address",
          "name": "",
          "type": "address"
        }
      ],
      "stateMutability": "view",
      "type": "function"
    },
    {
      "inputs": [
        {
          "internalType": "bool",
          "name": "_status",
          "type": "bool"
        },
        {
          "internalType": "string",
          "name": "_signature",
          "type": "string"
        },
        {
          "internalType": "address",
          "name": "_validatorAddress",
          "type": "address"
        }
      ],
      "name": "signFundraiser",
      "outputs": [],
      "stateMutability": "nonpayable",
      "type": "function"
    },
    {
      "inputs": [],
      "name": "donate",
      "outputs": [],
      "stateMutability": "payable",
      "type": "function"
    },
    {
      "inputs": [
        {
          "internalType": "string",
          "name": "_title",
          "type": "string"
        },
        {
          "internalType": "string",
          "name": "_description",
          "type": "string"
        },
        {
          "internalType": "string",
          "name": "_url",
          "type": "string"
        },
        {
          "internalType": "string",
          "name": "_imageURL",
          "type": "string"
        }
      ],
      "name": "updateDetails",
      "outputs": [],
      "stateMutability": "nonpayable",
      "type": "function"
    },
    {
      "inputs": [
        {
          "internalType": "address payable",
          "name": "_beneficiary",
          "type": "address"
        }
      ],
      "name": "setBeneficiary",
      "outputs": [],
      "stateMutability": "nonpayable",
      "type": "function"
    },
    {
      "inputs": [],
      "name": "myDonationsCount",
      "outputs": [
        {
          "internalType": "uint256",
          "name": "",
          "type": "uint256"
        }
      ],
      "stateMutability": "view",
      "type": "function"
    },
    {
      "inputs": [],
      "name": "withdraw",
      "outputs": [],
      "stateMutability": "nonpayable",
      "type": "function"
    }
  ],
  "bytecode": "0x608060405234801562000010575f80fd5b5060405162002350380380620023508339818101604052810190620000369190620004af565b335f73ffffffffffffffffffffffffffffffffffffffff168173ffffffffffffffffffffffffffffffffffffffff1603620000aa575f6040517f1e4fbdf7000000000000000000000000000000000000000000000000000000008152600401620000a19190620005e7565b60405180910390fd5b620000bb81620001d060201b60201c565b50856002819055508460039081620000d4919062000830565b508360049081620000e6919062000830565b508260059081620000f8919062000830565b5081600690816200010a919062000830565b5080600a5f6101000a81548173ffffffffffffffffffffffffffffffffffffffff021916908373ffffffffffffffffffffffffffffffffffffffff1602179055505f60075f6101000a81548160ff02191690831515021790555060405180602001604052805f8152506008908162000183919062000830565b505f60095f6101000a81548173ffffffffffffffffffffffffffffffffffffffff021916908373ffffffffffffffffffffffffffffffffffffffff16021790555050505050505062000914565b5f805f9054906101000a900473ffffffffffffffffffffffffffffffffffffffff169050815f806101000a81548173ffffffffffffffffffffffffffffffffffffffff021916908373ffffffffffffffffffffffffffffffffffffffff1602179055508173ffffffffffffffffffffffffffffffffffffffff168173ffffffffffffffffffffffffffffffffffffffff167f8be0079c531659141344cd1fd0a4f28419497f9722a3daafe3b4186f6b6457e060405160405180910390a35050565b5f604051905090565b5f80fd5b5f80fd5b5f819050919050565b620002b681620002a2565b8114620002c1575f80fd5b50565b5f81519050620002d481620002ab565b92915050565b5f80fd5b5f80fd5b5f601f19601f8301169050919050565b7f4e487b71000000000000000000000000000000000000000000000000000000005f52604160045260245ffd5b6200032a82620002e2565b810181811067ffffffffffffffff821117156200034c576200034b620002f2565b5b80604052505050565b5f6200036062000291565b90506200036e82826200031f565b919050565b5f67ffffffffffffffff82111562000390576200038f620002f2565b5b6200039b82620002e2565b9050602081019050919050565b5f5b83811015620003c7578082015181840152602081019050620003aa565b5f8484015250505050565b5f620003e8620003e28462000373565b62000355565b905082815260208101848484011115620004075762000406620002de565b5b62000414848285620003a8565b509392505050565b5f82601f830112620004335762000432620002da565b5b815162000445848260208601620003d2565b91505092915050565b5f73ffffffffffffffffffffffffffffffffffffffff82169050919050565b5f62000479826200044e565b9050919050565b6200048b816200046d565b811462000496575f80fd5b50565b5f81519050620004a98162000480565b92915050565b5f805f805f8060c08789031215620004cc57620004cb6200029a565b5b5f620004db89828a01620002c4565b965050602087015167ffffffffffffffff811115620004ff57620004fe6200029e565b5b6200050d89828a016200041c565b955050604087015167ffffffffffffffff8111156200053157620005306200029e565b5b6200053f89828a016200041c565b945050606087015167ffffffffffffffff8111156200056357620005626200029e565b5b6200057189828a016200041c565b935050608087015167ffffffffffffffff8111156200059557620005946200029e565b5b620005a389828a016200041c565b92505060a0620005b689828a0162000499565b9150509295509295509295565b5f620005cf826200044e565b9050919050565b620005e181620005c3565b82525050565b5f602082019050620005fc5f830184620005d6565b92915050565b5f81519050919050565b7f4e487b71000000000000000000000000000000000000000000000000000000005f52602260045260245ffd5b5f60028204905060018216806200065157607f821691505b6020821081036200066757620006666200060c565b5b50919050565b5f819050815f5260205f209050919050565b5f6020601f8301049050919050565b5f82821b905092915050565b5f60088302620006cb7fffffffffffffffffffffffffffffffffffffffffffffffffffffffffffffffff826200068e565b620006d786836200068e565b95508019841693508086168417925050509392505050565b5f819050919050565b5f62000718620007126200070c84620002a2565b620006ef565b620002a2565b9050919050565b5f819050919050565b6200073383620006f8565b6200074b62000742826200071f565b8484546200069a565b825550505050565b5f90565b6200076162000753565b6200076e81848462000728565b505050565b5b818110156200079557620007895f8262000757565b60018101905062000774565b5050565b601f821115620007e457620007ae816200066d565b620007b9846200067f565b81016020851015620007c9578190505b620007e1620007d8856200067f565b83018262000773565b50505b505050565b5f82821c905092915050565b5f620008065f1984600802620007e9565b1980831691505092915050565b5f620008208383620007f5565b9150826002028217905092915050565b6200083b8262000602565b67ffffffffffffffff811115620008575762000856620002f2565b5b62000863825462000639565b6200087082828562000799565b5f60209050601f831160018114620008a6575f841562000891578287015190505b6200089d858262000813565b8655506200090c565b601f198416620008b6866200066d565b5f5b82811015620008df57848901518255600182019150602085019450602081019050620008b8565b86831015620008ff5784890151620008fb601f891682620007f5565b8355505b6001600288020188555050505b505050505050565b611a2e80620009225f395ff3fe608060405260043610610113575f3560e01c80636049a45d1161009f578063af640d0f11610063578063af640d0f14610335578063b90497e01461035f578063de2ed89314610389578063ed88c68e146103b3578063f2fde38b146103bd57610113565b80636049a45d1461027b578063715018a6146102a35780637284e416146102b95780638bc9a202146102e35780638da5cb5b1461030b57610113565b80633fe4676e116100e65780633fe4676e146101a957806344a2563b146101d35780634a79d50c146101fd57806351ff4847146102275780635600f04f1461025157610113565b80630180b97c146101175780631c31f7101461014157806338af3eed146101695780633ccfd60b14610193575b5f80fd5b348015610122575f80fd5b5061012b6103e5565b6040516101389190610d9b565b60405180910390f35b34801561014c575f80fd5b5061016760048036038101906101629190610e1f565b61042c565b005b348015610174575f80fd5b5061017d610477565b60405161018a9190610e59565b60405180910390f35b34801561019e575f80fd5b506101a761049c565b005b3480156101b4575f80fd5b506101bd610589565b6040516101ca9190610e92565b60405180910390f35b3480156101de575f80fd5b506101e76105ae565b6040516101f49190610ec5565b60405180910390f35b348015610208575f80fd5b506102116105c0565b60405161021e9190610f68565b60405180910390f35b348015610232575f80fd5b5061023b61064c565b6040516102489190610f68565b60405180910390f35b34801561025c575f80fd5b506102656106d8565b6040516102729190610f68565b60405180910390f35b348015610286575f80fd5b506102a1600480360381019061029c9190610fe9565b610764565b005b3480156102ae575f80fd5b506102b76107ff565b005b3480156102c4575f80fd5b506102cd610812565b6040516102da9190610f68565b60405180910390f35b3480156102ee575f80fd5b5061030960048036038101906103049190611249565b61089e565b005b348015610316575f80fd5b5061031f610968565b60405161032c9190610e92565b60405180910390f35b348015610340575f80fd5b5061034961098f565b6040516103569190610d9b565b60405180910390f35b34801561036a575f80fd5b50610373610995565b6040516103809190610f68565b60405180910390f35b348015610394575f80fd5b5061039d610a21565b6040516103aa9190610d9b565b60405180910390f35b6103bb610a27565b005b3480156103c8575f80fd5b506103e360048036038101906103de91906112b5565b610bb0565b005b5f60015f3373ffffffffffffffffffffffffffffffffffffffff1673ffffffffffffffffffffffffffffffffffffffff1681526020019081526020015f2080549050905090565b610434610c34565b80600a5f6101000a81548173ffffffffffffffffffffffffffffffffffffffff021916908373ffffffffffffffffffffffffffffffffffffffff16021790555050565b600a5f9054906101000a900473ffffffffffffffffffffffffffffffffffffffff1681565b6104a4610c34565b5f47116104e6576040517f08c379a00000000000000000000000000000000000000000000000000000000081526004016104dd90611350565b60405180910390fd5b5f479050600a5f9054906101000a900473ffffffffffffffffffffffffffffffffffffffff1673ffffffffffffffffffffffffffffffffffffffff166108fc8290811502906040515f60405180830381858888f1935050505015801561054e573d5f803e3d5ffd5b507f5b6b431d4476a211bb7d41c20d1aab9ae2321deee0d20be3d9fc9b1093fa6e3d8160405161057e9190610d9b565b60405180910390a150565b60095f9054906101000a900473ffffffffffffffffffffffffffffffffffffffff1681565b60075f9054906101000a900460ff1681565b600380546105cd9061139b565b80601f01602080910402602001604051908101604052809291908181526020018280546105f99061139b565b80156106445780601f1061061b57610100808354040283529160200191610644565b820191905f5260205f20905b81548152906001019060200180831161062757829003601f168201915b505050505081565b600880546106599061139b565b80601f01602080910402602001604051908101604052809291908181526020018280546106859061139b565b80156106d05780601f106106a7576101008083540402835291602001916106d0565b820191905f5260205f20905b8154815290600101906020018083116106b357829003601f168201915b505050505081565b600580546106e59061139b565b80601f01602080910402602001604051908101604052809291908181526020018280546107119061139b565b801561075c5780601f106107335761010080835404028352916020019161075c565b820191905f5260205f20905b81548152906001019060200180831161073f57829003601f168201915b505050505081565b61076c610c34565b87876003918261077d929190611572565b5085856004918261078f929190611572565b508383600591826107a1929190611572565b508181600691826107b3929190611572565b507fab7b858a76f7f410a859fcd42382d57f243f86330875a685d74d96f60a6337f960036004600560066040516107ed94939291906116c0565b60405180910390a15050505050505050565b610807610c34565b6108105f610cbb565b565b6004805461081f9061139b565b80601f016020809104026020016040519081016040528092919081815260200182805461084b9061139b565b80156108965780601f1061086d57610100808354040283529160200191610896565b820191905f5260205f20905b81548152906001019060200180831161087957829003601f168201915b505050505081565b6108a6610c34565b5f151560075f9054906101000a900460ff161515146108fa576040517f08c379a00000000000000000000000000000000000000000000000000000000081526004016108f19061178f565b60405180910390fd5b8260075f6101000a81548160ff021916908315150217905550816008908161092291906117ad565b508060095f6101000a81548173ffffffffffffffffffffffffffffffffffffffff021916908373ffffffffffffffffffffffffffffffffffffffff160217905550505050565b5f805f9054906101000a900473ffffffffffffffffffffffffffffffffffffffff16905090565b60025481565b600680546109a29061139b565b80601f01602080910402602001604051908101604052809291908181526020018280546109ce9061139b565b8015610a195780601f106109f057610100808354040283529160200191610a19565b820191905f5260205f20905b8154815290600101906020018083116109fc57829003601f168201915b505050505081565b600b5481565b60075f9054906101000a900460ff16610a75576040517f08c379a0000000000000000000000000000000000000000000000000000000008152600401610a6c906118ec565b60405180910390fd5b5f3411610ab7576040517f08c379a0000000000000000000000000000000000000000000000000000000008152600401610aae9061197a565b60405180910390fd5b5f604051806040016040528034815260200142815250905060015f3373ffffffffffffffffffffffffffffffffffffffff1673ffffffffffffffffffffffffffffffffffffffff1681526020019081526020015f2081908060018154018082558091505060019003905f5260205f2090600202015f909190919091505f820151815f015560208201518160010155505034600b5f828254610b5891906119c5565b925050819055503373ffffffffffffffffffffffffffffffffffffffff167f264f630d9efa0d07053a31163641d9fcc0adafc9d9e76f1c37c2ce3a558d2c5234604051610ba59190610d9b565b60405180910390a250565b610bb8610c34565b5f73ffffffffffffffffffffffffffffffffffffffff168173ffffffffffffffffffffffffffffffffffffffff1603610c28575f6040517f1e4fbdf7000000000000000000000000000000000000000000000000000000008152600401610c1f9190610e92565b60405180910390fd5b610c3181610cbb565b50565b610c3c610d7c565b73ffffffffffffffffffffffffffffffffffffffff16610c5a610968565b73ffffffffffffffffffffffffffffffffffffffff1614610cb957610c7d610d7c565b6040517f118cdaa7000000000000000000000000000000000000000000000000000000008152600401610cb09190610e92565b60405180910390fd5b565b5f805f9054906101000a900473ffffffffffffffffffffffffffffffffffffffff169050815f806101000a81548173ffffffffffffffffffffffffffffffffffffffff021916908373ffffffffffffffffffffffffffffffffffffffff1602179055508173ffffffffffffffffffffffffffffffffffffffff168173ffffffffffffffffffffffffffffffffffffffff167f8be0079c531659141344cd1fd0a4f28419497f9722a3daafe3b4186f6b6457e060405160405180910390a35050565b5f33905090565b5f819050919050565b610d9581610d83565b82525050565b5f602082019050610dae5f830184610d8c565b92915050565b5f604051905090565b5f80fd5b5f80fd5b5f73ffffffffffffffffffffffffffffffffffffffff82169050919050565b5f610dee82610dc5565b9050919050565b610dfe81610de4565b8114610e08575f80fd5b50565b5f81359050610e1981610df5565b92915050565b5f60208284031215610e3457610e33610dbd565b5b5f610e4184828501610e0b565b91505092915050565b610e5381610de4565b82525050565b5f602082019050610e6c5f830184610e4a565b92915050565b5f610e7c82610dc5565b9050919050565b610e8c81610e72565b82525050565b5f602082019050610ea55f830184610e83565b92915050565b5f8115159050919050565b610ebf81610eab565b82525050565b5f602082019050610ed85f830184610eb6565b92915050565b5f81519050919050565b5f82825260208201905092915050565b5f5b83811015610f15578082015181840152602081019050610efa565b5f8484015250505050565b5f601f19601f8301169050919050565b5f610f3a82610ede565b610f448185610ee8565b9350610f54818560208601610ef8565b610f5d81610f20565b840191505092915050565b5f6020820190508181035f830152610f808184610f30565b905092915050565b5f80fd5b5f80fd5b5f80fd5b5f8083601f840112610fa957610fa8610f88565b5b8235905067ffffffffffffffff811115610fc657610fc5610f8c565b5b602083019150836001820283011115610fe257610fe1610f90565b5b9250929050565b5f805f805f805f806080898b03121561100557611004610dbd565b5b5f89013567ffffffffffffffff81111561102257611021610dc1565b5b61102e8b828c01610f94565b9850985050602089013567ffffffffffffffff81111561105157611050610dc1565b5b61105d8b828c01610f94565b9650965050604089013567ffffffffffffffff8111156110805761107f610dc1565b5b61108c8b828c01610f94565b9450945050606089013567ffffffffffffffff8111156110af576110ae610dc1565b5b6110bb8b828c01610f94565b92509250509295985092959890939650565b6110d681610eab565b81146110e0575f80fd5b50565b5f813590506110f1816110cd565b92915050565b5f80fd5b7f4e487b71000000000000000000000000000000000000000000000000000000005f52604160045260245ffd5b61113182610f20565b810181811067ffffffffffffffff821117156111505761114f6110fb565b5b80604052505050565b5f611162610db4565b905061116e8282611128565b919050565b5f67ffffffffffffffff82111561118d5761118c6110fb565b5b61119682610f20565b9050602081019050919050565b828183375f83830152505050565b5f6111c36111be84611173565b611159565b9050828152602081018484840111156111df576111de6110f7565b5b6111ea8482856111a3565b509392505050565b5f82601f83011261120657611205610f88565b5b81356112168482602086016111b1565b91505092915050565b61122881610e72565b8114611232575f80fd5b50565b5f813590506112438161121f565b92915050565b5f805f606084860312156112605761125f610dbd565b5b5f61126d868287016110e3565b935050602084013567ffffffffffffffff81111561128e5761128d610dc1565b5b61129a868287016111f2565b92505060406112ab86828701611235565b9150509250925092565b5f602082840312156112ca576112c9610dbd565b5b5f6112d784828501611235565b91505092915050565b7f4e6f2066756e647320617661696c61626c6520666f72207769746864726177615f8201527f6c00000000000000000000000000000000000000000000000000000000000000602082015250565b5f61133a602183610ee8565b9150611345826112e0565b604082019050919050565b5f6020820190508181035f8301526113678161132e565b9050919050565b7f4e487b71000000000000000000000000000000000000000000000000000000005f52602260045260245ffd5b5f60028204905060018216806113b257607f821691505b6020821081036113c5576113c461136e565b5b50919050565b5f82905092915050565b5f819050815f5260205f209050919050565b5f6020601f8301049050919050565b5f82821b905092915050565b5f600883026114317fffffffffffffffffffffffffffffffffffffffffffffffffffffffffffffffff826113f6565b61143b86836113f6565b95508019841693508086168417925050509392505050565b5f819050919050565b5f61147661147161146c84610d83565b611453565b610d83565b9050919050565b5f819050919050565b61148f8361145c565b6114a361149b8261147d565b848454611402565b825550505050565b5f90565b6114b76114ab565b6114c2818484611486565b505050565b5b818110156114e5576114da5f826114af565b6001810190506114c8565b5050565b601f82111561152a576114fb816113d5565b611504846113e7565b81016020851015611513578190505b61152761151f856113e7565b8301826114c7565b50505b505050565b5f82821c905092915050565b5f61154a5f198460080261152f565b1980831691505092915050565b5f611562838361153b565b9150826002028217905092915050565b61157c83836113cb565b67ffffffffffffffff811115611595576115946110fb565b5b61159f825461139b565b6115aa8282856114e9565b5f601f8311600181146115d7575f84156115c5578287013590505b6115cf8582611557565b865550611636565b601f1984166115e5866113d5565b5f5b8281101561160c578489013582556001820191506020850194506020810190506115e7565b868310156116295784890135611625601f89168261153b565b8355505b6001600288020188555050505b50505050505050565b5f815461164b8161139b565b6116558186610ee8565b9450600182165f811461166f5760018114611685576116b7565b60ff1983168652811515602002860193506116b7565b61168e856113d5565b5f5b838110156116af57815481890152600182019150602081019050611690565b808801955050505b50505092915050565b5f6080820190508181035f8301526116d8818761163f565b905081810360208301526116ec818661163f565b90508181036040830152611700818561163f565b90508181036060830152611714818461163f565b905095945050505050565b7f46756e647261697365722068617320616c7265616479206265656e2076616c695f8201527f6461746564000000000000000000000000000000000000000000000000000000602082015250565b5f611779602583610ee8565b91506117848261171f565b604082019050919050565b5f6020820190508181035f8301526117a68161176d565b9050919050565b6117b682610ede565b67ffffffffffffffff8111156117cf576117ce6110fb565b5b6117d9825461139b565b6117e48282856114e9565b5f60209050601f831160018114611815575f8415611803578287015190505b61180d8582611557565b865550611874565b601f198416611823866113d5565b5f5b8281101561184a57848901518255600182019150602085019450602081019050611825565b868310156118675784890151611863601f89168261153b565b8355505b6001600288020188555050505b505050505050565b7f46756e6472616973657220686173206e6f74206265656e2076616c69646174655f8201527f6420796574000000000000000000000000000000000000000000000000000000602082015250565b5f6118d6602583610ee8565b91506118e18261187c565b604082019050919050565b5f6020820190508181035f830152611903816118ca565b9050919050565b7f446f6e6174696f6e20616d6f756e74206d7573742062652067726561746572205f8201527f7468616e20300000000000000000000000000000000000000000000000000000602082015250565b5f611964602683610ee8565b915061196f8261190a565b604082019050919050565b5f6020820190508181035f83015261199181611958565b9050919050565b7f4e487b71000000000000000000000000000000000000000000000000000000005f52601160045260245ffd5b5f6119cf82610d83565b91506119da83610d83565b92508282019050808211156119f2576119f1611998565b5b9291505056fea2646970667358221220a9c2bfa685291d5de65014acfaffc0af1c3e2c15af0c0aa219cbef3bb106085f64736f6c63430008140033",
  "immutableReferences": {},
  "source": "// SPDX-License-Identifier: GPL-3.0\r\npragma solidity >=0.8.2 <0.9.0;\r\n\r\nimport \"@openzeppelin/contracts/access/Ownable.sol\";\r\n\r\ncontract Fundraiser is Ownable {\r\n    struct Donation {\r\n        uint256 value;\r\n        uint256 date;\r\n    }\r\n\r\n    mapping(address => Donation[]) private _donations;\r\n\r\n    event DonationReceived(address indexed donor, uint256 value);\r\n    event Withdraw(uint256 amount);\r\n    event DetailsUpdated(\r\n        string title,\r\n        string description,\r\n        string url,\r\n        string imageURL\r\n    );\r\n\r\n    uint256 public id;\r\n    string public title;\r\n    string public description;\r\n    string public url;\r\n    string public imageURL;\r\n    bool public validationStatus;\r\n    string public signature;\r\n    address public validatorAddress;\r\n    address payable public beneficiary;\r\n    uint256 public totalDonations;\r\n\r\n    constructor(\r\n        uint256 _id,\r\n        string memory _title,\r\n        string memory _description,\r\n        string memory _url,\r\n        string memory _imageURL,\r\n        address payable _beneficiary\r\n    ) Ownable(msg.sender) {\r\n        id = _id;\r\n        title = _title;\r\n        description = _description;\r\n        url = _url;\r\n        imageURL = _imageURL;\r\n        beneficiary = _beneficiary;\r\n        validationStatus = false;\r\n        signature = '';\r\n        validatorAddress = address(0);\r\n    }\r\n\r\n    // Validator sets validation status and signature\r\n    function signFundraiser(bool _status, string memory _signature, address _validatorAddress) public onlyOwner {\r\n        require(validationStatus == false, \"Fundraiser has already been validated\");\r\n        validationStatus = _status;\r\n        signature = _signature;\r\n        validatorAddress = _validatorAddress;\r\n    }\r\n\r\n    function donate() public payable {\r\n        require(validationStatus, \"Fundraiser has not been validated yet\");\r\n        require(msg.value > 0, \"Donation amount must be greater than 0\");\r\n        \r\n        Donation memory donation = Donation({\r\n            value: msg.value,\r\n            date: block.timestamp\r\n        });\r\n        _donations[msg.sender].push(donation);\r\n        \r\n        totalDonations += msg.value;\r\n        \r\n        emit DonationReceived(msg.sender, msg.value);\r\n    }\r\n\r\n    function updateDetails(\r\n        string calldata _title,\r\n        string calldata _description,\r\n        string calldata _url,\r\n        string calldata _imageURL\r\n    ) external onlyOwner {\r\n        title = _title;\r\n        description = _description;\r\n        url = _url;\r\n        imageURL = _imageURL;\r\n\r\n        emit DetailsUpdated(title, description, url, imageURL);\r\n    }\r\n\r\n    function setBeneficiary(address payable _beneficiary) public onlyOwner {\r\n        beneficiary = _beneficiary;\r\n    }\r\n\r\n    function myDonationsCount() public view returns (uint256) {\r\n        return _donations[msg.sender].length;\r\n    }\r\n\r\n    function withdraw() external onlyOwner {\r\n        require(address(this).balance > 0, \"No funds available for withdrawal\");\r\n\r\n        uint256 balance = address(this).balance;\r\n        beneficiary.transfer(balance);\r\n\r\n        emit Withdraw(balance);\r\n    }\r\n}\r\n",
  "sourcePath": "C:\\Users\\Diky Wiraguna\\Desktop\\cwfund-dgtsign\\contracts\\Fundraiser.sol",
  "compiler": {
    "name": "solc",
    "version": "0.8.20+commit.a1b79de6.Emscripten.clang"
  },
  "schemaVersion": "3.4.16",
  "updatedAt": "2024-03-04T14:33:18.407Z",
  "devdoc": {
    "errors": {
      "OwnableInvalidOwner(address)": [
        {
          "details": "The owner is not a valid owner account. (eg. `address(0)`)"
        }
      ],
      "OwnableUnauthorizedAccount(address)": [
        {
          "details": "The caller account is not authorized to perform an operation."
        }
      ]
    },
    "kind": "dev",
    "methods": {
      "owner()": {
        "details": "Returns the address of the current owner."
      },
      "renounceOwnership()": {
        "details": "Leaves the contract without owner. It will not be possible to call `onlyOwner` functions. Can only be called by the current owner. NOTE: Renouncing ownership will leave the contract without an owner, thereby disabling any functionality that is only available to the owner."
      },
      "transferOwnership(address)": {
        "details": "Transfers ownership of the contract to a new account (`newOwner`). Can only be called by the current owner."
      }
    },
    "version": 1
  },
  "userdoc": {
    "kind": "user",
    "methods": {},
    "version": 1
  }
}