{
  "contractName": "Fundraiser",
  "abi": [
    {
      "inputs": [
        {
          "internalType": "uint256",
          "name": "_id",
          "type": "uint256"
        },
        {
          "internalType": "string",
          "name": "_title",
          "type": "string"
        },
        {
          "internalType": "string",
          "name": "_description",
          "type": "string"
        },
        {
          "internalType": "string",
          "name": "_url",
          "type": "string"
        },
        {
          "internalType": "string",
          "name": "_imageURL",
          "type": "string"
        },
        {
          "internalType": "address payable",
          "name": "_beneficiary",
          "type": "address"
        }
      ],
      "stateMutability": "nonpayable",
      "type": "constructor"
    },
    {
      "inputs": [
        {
          "internalType": "address",
          "name": "owner",
          "type": "address"
        }
      ],
      "name": "OwnableInvalidOwner",
      "type": "error"
    },
    {
      "inputs": [
        {
          "internalType": "address",
          "name": "account",
          "type": "address"
        }
      ],
      "name": "OwnableUnauthorizedAccount",
      "type": "error"
    },
    {
      "anonymous": false,
      "inputs": [
        {
          "indexed": false,
          "internalType": "string",
          "name": "title",
          "type": "string"
        },
        {
          "indexed": false,
          "internalType": "string",
          "name": "description",
          "type": "string"
        },
        {
          "indexed": false,
          "internalType": "string",
          "name": "url",
          "type": "string"
        },
        {
          "indexed": false,
          "internalType": "string",
          "name": "imageURL",
          "type": "string"
        }
      ],
      "name": "DetailsUpdated",
      "type": "event"
    },
    {
      "anonymous": false,
      "inputs": [
        {
          "indexed": true,
          "internalType": "address",
          "name": "donor",
          "type": "address"
        },
        {
          "indexed": false,
          "internalType": "uint256",
          "name": "value",
          "type": "uint256"
        }
      ],
      "name": "DonationReceived",
      "type": "event"
    },
    {
      "anonymous": false,
      "inputs": [
        {
          "indexed": true,
          "internalType": "address",
          "name": "previousOwner",
          "type": "address"
        },
        {
          "indexed": true,
          "internalType": "address",
          "name": "newOwner",
          "type": "address"
        }
      ],
      "name": "OwnershipTransferred",
      "type": "event"
    },
    {
      "anonymous": false,
      "inputs": [
        {
          "indexed": false,
          "internalType": "uint256",
          "name": "amount",
          "type": "uint256"
        }
      ],
      "name": "Withdraw",
      "type": "event"
    },
    {
      "inputs": [],
      "name": "beneficiary",
      "outputs": [
        {
          "internalType": "address payable",
          "name": "",
          "type": "address"
        }
      ],
      "stateMutability": "view",
      "type": "function"
    },
    {
      "inputs": [],
      "name": "description",
      "outputs": [
        {
          "internalType": "string",
          "name": "",
          "type": "string"
        }
      ],
      "stateMutability": "view",
      "type": "function"
    },
    {
      "inputs": [],
      "name": "id",
      "outputs": [
        {
          "internalType": "uint256",
          "name": "",
          "type": "uint256"
        }
      ],
      "stateMutability": "view",
      "type": "function"
    },
    {
      "inputs": [],
      "name": "imageURL",
      "outputs": [
        {
          "internalType": "string",
          "name": "",
          "type": "string"
        }
      ],
      "stateMutability": "view",
      "type": "function"
    },
    {
      "inputs": [],
      "name": "owner",
      "outputs": [
        {
          "internalType": "address",
          "name": "",
          "type": "address"
        }
      ],
      "stateMutability": "view",
      "type": "function"
    },
    {
      "inputs": [],
      "name": "renounceOwnership",
      "outputs": [],
      "stateMutability": "nonpayable",
      "type": "function"
    },
    {
      "inputs": [],
      "name": "signature",
      "outputs": [
        {
          "internalType": "bytes32",
          "name": "",
          "type": "bytes32"
        }
      ],
      "stateMutability": "view",
      "type": "function"
    },
    {
      "inputs": [],
      "name": "title",
      "outputs": [
        {
          "internalType": "string",
          "name": "",
          "type": "string"
        }
      ],
      "stateMutability": "view",
      "type": "function"
    },
    {
      "inputs": [],
      "name": "totalDonations",
      "outputs": [
        {
          "internalType": "uint256",
          "name": "",
          "type": "uint256"
        }
      ],
      "stateMutability": "view",
      "type": "function"
    },
    {
      "inputs": [
        {
          "internalType": "address",
          "name": "newOwner",
          "type": "address"
        }
      ],
      "name": "transferOwnership",
      "outputs": [],
      "stateMutability": "nonpayable",
      "type": "function"
    },
    {
      "inputs": [],
      "name": "url",
      "outputs": [
        {
          "internalType": "string",
          "name": "",
          "type": "string"
        }
      ],
      "stateMutability": "view",
      "type": "function"
    },
    {
      "inputs": [],
      "name": "validationStatus",
      "outputs": [
        {
          "internalType": "bool",
          "name": "",
          "type": "bool"
        }
      ],
      "stateMutability": "view",
      "type": "function"
    },
    {
      "inputs": [],
      "name": "validatorAddress",
      "outputs": [
        {
          "internalType": "address",
          "name": "",
          "type": "address"
        }
      ],
      "stateMutability": "view",
      "type": "function"
    },
    {
      "inputs": [
        {
          "internalType": "bool",
          "name": "_status",
          "type": "bool"
        },
        {
          "internalType": "bytes32",
          "name": "_signature",
          "type": "bytes32"
        },
        {
          "internalType": "address",
          "name": "_validatorAddress",
          "type": "address"
        }
      ],
      "name": "signFundraiser",
      "outputs": [],
      "stateMutability": "nonpayable",
      "type": "function"
    },
    {
      "inputs": [],
      "name": "donate",
      "outputs": [],
      "stateMutability": "payable",
      "type": "function"
    },
    {
      "inputs": [
        {
          "internalType": "string",
          "name": "_title",
          "type": "string"
        },
        {
          "internalType": "string",
          "name": "_description",
          "type": "string"
        },
        {
          "internalType": "string",
          "name": "_url",
          "type": "string"
        },
        {
          "internalType": "string",
          "name": "_imageURL",
          "type": "string"
        }
      ],
      "name": "updateDetails",
      "outputs": [],
      "stateMutability": "nonpayable",
      "type": "function"
    },
    {
      "inputs": [
        {
          "internalType": "address payable",
          "name": "_beneficiary",
          "type": "address"
        }
      ],
      "name": "setBeneficiary",
      "outputs": [],
      "stateMutability": "nonpayable",
      "type": "function"
    },
    {
      "inputs": [],
      "name": "myDonationsCount",
      "outputs": [
        {
          "internalType": "uint256",
          "name": "",
          "type": "uint256"
        }
      ],
      "stateMutability": "view",
      "type": "function"
    },
    {
      "inputs": [],
      "name": "withdraw",
      "outputs": [],
      "stateMutability": "nonpayable",
      "type": "function"
    }
  ],
  "bytecode": "0x608060405234801562000010575f80fd5b506040516200211638038062002116833981810160405281019062000036919062000498565b335f73ffffffffffffffffffffffffffffffffffffffff168173ffffffffffffffffffffffffffffffffffffffff1603620000aa575f6040517f1e4fbdf7000000000000000000000000000000000000000000000000000000008152600401620000a19190620005d0565b60405180910390fd5b620000bb81620001b960201b60201c565b50856002819055508460039081620000d4919062000819565b508360049081620000e6919062000819565b508260059081620000f8919062000819565b5081600690816200010a919062000819565b5080600a5f6101000a81548173ffffffffffffffffffffffffffffffffffffffff021916908373ffffffffffffffffffffffffffffffffffffffff1602179055505f60075f6101000a81548160ff0219169083151502179055505f801b6008819055505f60095f6101000a81548173ffffffffffffffffffffffffffffffffffffffff021916908373ffffffffffffffffffffffffffffffffffffffff160217905550505050505050620008fd565b5f805f9054906101000a900473ffffffffffffffffffffffffffffffffffffffff169050815f806101000a81548173ffffffffffffffffffffffffffffffffffffffff021916908373ffffffffffffffffffffffffffffffffffffffff1602179055508173ffffffffffffffffffffffffffffffffffffffff168173ffffffffffffffffffffffffffffffffffffffff167f8be0079c531659141344cd1fd0a4f28419497f9722a3daafe3b4186f6b6457e060405160405180910390a35050565b5f604051905090565b5f80fd5b5f80fd5b5f819050919050565b6200029f816200028b565b8114620002aa575f80fd5b50565b5f81519050620002bd8162000294565b92915050565b5f80fd5b5f80fd5b5f601f19601f8301169050919050565b7f4e487b71000000000000000000000000000000000000000000000000000000005f52604160045260245ffd5b6200031382620002cb565b810181811067ffffffffffffffff82111715620003355762000334620002db565b5b80604052505050565b5f620003496200027a565b905062000357828262000308565b919050565b5f67ffffffffffffffff821115620003795762000378620002db565b5b6200038482620002cb565b9050602081019050919050565b5f5b83811015620003b057808201518184015260208101905062000393565b5f8484015250505050565b5f620003d1620003cb846200035c565b6200033e565b905082815260208101848484011115620003f057620003ef620002c7565b5b620003fd84828562000391565b509392505050565b5f82601f8301126200041c576200041b620002c3565b5b81516200042e848260208601620003bb565b91505092915050565b5f73ffffffffffffffffffffffffffffffffffffffff82169050919050565b5f620004628262000437565b9050919050565b620004748162000456565b81146200047f575f80fd5b50565b5f81519050620004928162000469565b92915050565b5f805f805f8060c08789031215620004b557620004b462000283565b5b5f620004c489828a01620002ad565b965050602087015167ffffffffffffffff811115620004e857620004e762000287565b5b620004f689828a0162000405565b955050604087015167ffffffffffffffff8111156200051a576200051962000287565b5b6200052889828a0162000405565b945050606087015167ffffffffffffffff8111156200054c576200054b62000287565b5b6200055a89828a0162000405565b935050608087015167ffffffffffffffff8111156200057e576200057d62000287565b5b6200058c89828a0162000405565b92505060a06200059f89828a0162000482565b9150509295509295509295565b5f620005b88262000437565b9050919050565b620005ca81620005ac565b82525050565b5f602082019050620005e55f830184620005bf565b92915050565b5f81519050919050565b7f4e487b71000000000000000000000000000000000000000000000000000000005f52602260045260245ffd5b5f60028204905060018216806200063a57607f821691505b60208210810362000650576200064f620005f5565b5b50919050565b5f819050815f5260205f209050919050565b5f6020601f8301049050919050565b5f82821b905092915050565b5f60088302620006b47fffffffffffffffffffffffffffffffffffffffffffffffffffffffffffffffff8262000677565b620006c0868362000677565b95508019841693508086168417925050509392505050565b5f819050919050565b5f62000701620006fb620006f5846200028b565b620006d8565b6200028b565b9050919050565b5f819050919050565b6200071c83620006e1565b620007346200072b8262000708565b84845462000683565b825550505050565b5f90565b6200074a6200073c565b6200075781848462000711565b505050565b5b818110156200077e57620007725f8262000740565b6001810190506200075d565b5050565b601f821115620007cd57620007978162000656565b620007a28462000668565b81016020851015620007b2578190505b620007ca620007c18562000668565b8301826200075c565b50505b505050565b5f82821c905092915050565b5f620007ef5f1984600802620007d2565b1980831691505092915050565b5f620008098383620007de565b9150826002028217905092915050565b6200082482620005eb565b67ffffffffffffffff81111562000840576200083f620002db565b5b6200084c825462000622565b6200085982828562000782565b5f60209050601f8311600181146200088f575f84156200087a578287015190505b620008868582620007fc565b865550620008f5565b601f1984166200089f8662000656565b5f5b82811015620008c857848901518255600182019150602085019450602081019050620008a1565b86831015620008e85784890151620008e4601f891682620007de565b8355505b6001600288020188555050505b505050505050565b61180b806200090b5f395ff3fe608060405260043610610113575f3560e01c80635600f04f1161009f578063af640d0f11610063578063af640d0f14610335578063b90497e01461035f578063de2ed89314610389578063ed88c68e146103b3578063f2fde38b146103bd57610113565b80635600f04f146102795780636049a45d146102a3578063715018a6146102cb5780637284e416146102e15780638da5cb5b1461030b57610113565b80633ccfd60b116100e65780633ccfd60b146101bb5780633fe4676e146101d157806344a2563b146101fb5780634a79d50c1461022557806351ff48471461024f57610113565b80630180b97c146101175780631c31f710146101415780632c94c33f1461016957806338af3eed14610191575b5f80fd5b348015610122575f80fd5b5061012b6103e5565b6040516101389190610d0c565b60405180910390f35b34801561014c575f80fd5b5061016760048036038101906101629190610d87565b61042c565b005b348015610174575f80fd5b5061018f600480360381019061018a9190610e55565b610477565b005b34801561019c575f80fd5b506101a5610538565b6040516101b29190610eb4565b60405180910390f35b3480156101c6575f80fd5b506101cf61055d565b005b3480156101dc575f80fd5b506101e561064a565b6040516101f29190610edc565b60405180910390f35b348015610206575f80fd5b5061020f61066f565b60405161021c9190610f04565b60405180910390f35b348015610230575f80fd5b50610239610681565b6040516102469190610fa7565b60405180910390f35b34801561025a575f80fd5b5061026361070d565b6040516102709190610fd6565b60405180910390f35b348015610284575f80fd5b5061028d610713565b60405161029a9190610fa7565b60405180910390f35b3480156102ae575f80fd5b506102c960048036038101906102c49190611050565b61079f565b005b3480156102d6575f80fd5b506102df61083a565b005b3480156102ec575f80fd5b506102f561084d565b6040516103029190610fa7565b60405180910390f35b348015610316575f80fd5b5061031f6108d9565b60405161032c9190610edc565b60405180910390f35b348015610340575f80fd5b50610349610900565b6040516103569190610d0c565b60405180910390f35b34801561036a575f80fd5b50610373610906565b6040516103809190610fa7565b60405180910390f35b348015610394575f80fd5b5061039d610992565b6040516103aa9190610d0c565b60405180910390f35b6103bb610998565b005b3480156103c8575f80fd5b506103e360048036038101906103de9190611134565b610b21565b005b5f60015f3373ffffffffffffffffffffffffffffffffffffffff1673ffffffffffffffffffffffffffffffffffffffff1681526020019081526020015f2080549050905090565b610434610ba5565b80600a5f6101000a81548173ffffffffffffffffffffffffffffffffffffffff021916908373ffffffffffffffffffffffffffffffffffffffff16021790555050565b61047f610ba5565b5f151560075f9054906101000a900460ff161515146104d3576040517f08c379a00000000000000000000000000000000000000000000000000000000081526004016104ca906111cf565b60405180910390fd5b8260075f6101000a81548160ff021916908315150217905550816008819055508060095f6101000a81548173ffffffffffffffffffffffffffffffffffffffff021916908373ffffffffffffffffffffffffffffffffffffffff160217905550505050565b600a5f9054906101000a900473ffffffffffffffffffffffffffffffffffffffff1681565b610565610ba5565b5f47116105a7576040517f08c379a000000000000000000000000000000000000000000000000000000000815260040161059e9061125d565b60405180910390fd5b5f479050600a5f9054906101000a900473ffffffffffffffffffffffffffffffffffffffff1673ffffffffffffffffffffffffffffffffffffffff166108fc8290811502906040515f60405180830381858888f1935050505015801561060f573d5f803e3d5ffd5b507f5b6b431d4476a211bb7d41c20d1aab9ae2321deee0d20be3d9fc9b1093fa6e3d8160405161063f9190610d0c565b60405180910390a150565b60095f9054906101000a900473ffffffffffffffffffffffffffffffffffffffff1681565b60075f9054906101000a900460ff1681565b6003805461068e906112a8565b80601f01602080910402602001604051908101604052809291908181526020018280546106ba906112a8565b80156107055780601f106106dc57610100808354040283529160200191610705565b820191905f5260205f20905b8154815290600101906020018083116106e857829003601f168201915b505050505081565b60085481565b60058054610720906112a8565b80601f016020809104026020016040519081016040528092919081815260200182805461074c906112a8565b80156107975780601f1061076e57610100808354040283529160200191610797565b820191905f5260205f20905b81548152906001019060200180831161077a57829003601f168201915b505050505081565b6107a7610ba5565b8787600391826107b89291906114ac565b508585600491826107ca9291906114ac565b508383600591826107dc9291906114ac565b508181600691826107ee9291906114ac565b507fab7b858a76f7f410a859fcd42382d57f243f86330875a685d74d96f60a6337f9600360046005600660405161082894939291906115fa565b60405180910390a15050505050505050565b610842610ba5565b61084b5f610c2c565b565b6004805461085a906112a8565b80601f0160208091040260200160405190810160405280929190818152602001828054610886906112a8565b80156108d15780601f106108a8576101008083540402835291602001916108d1565b820191905f5260205f20905b8154815290600101906020018083116108b457829003601f168201915b505050505081565b5f805f9054906101000a900473ffffffffffffffffffffffffffffffffffffffff16905090565b60025481565b60068054610913906112a8565b80601f016020809104026020016040519081016040528092919081815260200182805461093f906112a8565b801561098a5780601f106109615761010080835404028352916020019161098a565b820191905f5260205f20905b81548152906001019060200180831161096d57829003601f168201915b505050505081565b600b5481565b60075f9054906101000a900460ff166109e6576040517f08c379a00000000000000000000000000000000000000000000000000000000081526004016109dd906116c9565b60405180910390fd5b5f3411610a28576040517f08c379a0000000000000000000000000000000000000000000000000000000008152600401610a1f90611757565b60405180910390fd5b5f604051806040016040528034815260200142815250905060015f3373ffffffffffffffffffffffffffffffffffffffff1673ffffffffffffffffffffffffffffffffffffffff1681526020019081526020015f2081908060018154018082558091505060019003905f5260205f2090600202015f909190919091505f820151815f015560208201518160010155505034600b5f828254610ac991906117a2565b925050819055503373ffffffffffffffffffffffffffffffffffffffff167f264f630d9efa0d07053a31163641d9fcc0adafc9d9e76f1c37c2ce3a558d2c5234604051610b169190610d0c565b60405180910390a250565b610b29610ba5565b5f73ffffffffffffffffffffffffffffffffffffffff168173ffffffffffffffffffffffffffffffffffffffff1603610b99575f6040517f1e4fbdf7000000000000000000000000000000000000000000000000000000008152600401610b909190610edc565b60405180910390fd5b610ba281610c2c565b50565b610bad610ced565b73ffffffffffffffffffffffffffffffffffffffff16610bcb6108d9565b73ffffffffffffffffffffffffffffffffffffffff1614610c2a57610bee610ced565b6040517f118cdaa7000000000000000000000000000000000000000000000000000000008152600401610c219190610edc565b60405180910390fd5b565b5f805f9054906101000a900473ffffffffffffffffffffffffffffffffffffffff169050815f806101000a81548173ffffffffffffffffffffffffffffffffffffffff021916908373ffffffffffffffffffffffffffffffffffffffff1602179055508173ffffffffffffffffffffffffffffffffffffffff168173ffffffffffffffffffffffffffffffffffffffff167f8be0079c531659141344cd1fd0a4f28419497f9722a3daafe3b4186f6b6457e060405160405180910390a35050565b5f33905090565b5f819050919050565b610d0681610cf4565b82525050565b5f602082019050610d1f5f830184610cfd565b92915050565b5f80fd5b5f80fd5b5f73ffffffffffffffffffffffffffffffffffffffff82169050919050565b5f610d5682610d2d565b9050919050565b610d6681610d4c565b8114610d70575f80fd5b50565b5f81359050610d8181610d5d565b92915050565b5f60208284031215610d9c57610d9b610d25565b5b5f610da984828501610d73565b91505092915050565b5f8115159050919050565b610dc681610db2565b8114610dd0575f80fd5b50565b5f81359050610de181610dbd565b92915050565b5f819050919050565b610df981610de7565b8114610e03575f80fd5b50565b5f81359050610e1481610df0565b92915050565b5f610e2482610d2d565b9050919050565b610e3481610e1a565b8114610e3e575f80fd5b50565b5f81359050610e4f81610e2b565b92915050565b5f805f60608486031215610e6c57610e6b610d25565b5b5f610e7986828701610dd3565b9350506020610e8a86828701610e06565b9250506040610e9b86828701610e41565b9150509250925092565b610eae81610d4c565b82525050565b5f602082019050610ec75f830184610ea5565b92915050565b610ed681610e1a565b82525050565b5f602082019050610eef5f830184610ecd565b92915050565b610efe81610db2565b82525050565b5f602082019050610f175f830184610ef5565b92915050565b5f81519050919050565b5f82825260208201905092915050565b5f5b83811015610f54578082015181840152602081019050610f39565b5f8484015250505050565b5f601f19601f8301169050919050565b5f610f7982610f1d565b610f838185610f27565b9350610f93818560208601610f37565b610f9c81610f5f565b840191505092915050565b5f6020820190508181035f830152610fbf8184610f6f565b905092915050565b610fd081610de7565b82525050565b5f602082019050610fe95f830184610fc7565b92915050565b5f80fd5b5f80fd5b5f80fd5b5f8083601f8401126110105761100f610fef565b5b8235905067ffffffffffffffff81111561102d5761102c610ff3565b5b60208301915083600182028301111561104957611048610ff7565b5b9250929050565b5f805f805f805f806080898b03121561106c5761106b610d25565b5b5f89013567ffffffffffffffff81111561108957611088610d29565b5b6110958b828c01610ffb565b9850985050602089013567ffffffffffffffff8111156110b8576110b7610d29565b5b6110c48b828c01610ffb565b9650965050604089013567ffffffffffffffff8111156110e7576110e6610d29565b5b6110f38b828c01610ffb565b9450945050606089013567ffffffffffffffff81111561111657611115610d29565b5b6111228b828c01610ffb565b92509250509295985092959890939650565b5f6020828403121561114957611148610d25565b5b5f61115684828501610e41565b91505092915050565b7f46756e647261697365722068617320616c7265616479206265656e2076616c695f8201527f6461746564000000000000000000000000000000000000000000000000000000602082015250565b5f6111b9602583610f27565b91506111c48261115f565b604082019050919050565b5f6020820190508181035f8301526111e6816111ad565b9050919050565b7f4e6f2066756e647320617661696c61626c6520666f72207769746864726177615f8201527f6c00000000000000000000000000000000000000000000000000000000000000602082015250565b5f611247602183610f27565b9150611252826111ed565b604082019050919050565b5f6020820190508181035f8301526112748161123b565b9050919050565b7f4e487b71000000000000000000000000000000000000000000000000000000005f52602260045260245ffd5b5f60028204905060018216806112bf57607f821691505b6020821081036112d2576112d161127b565b5b50919050565b5f82905092915050565b7f4e487b71000000000000000000000000000000000000000000000000000000005f52604160045260245ffd5b5f819050815f5260205f209050919050565b5f6020601f8301049050919050565b5f82821b905092915050565b5f6008830261136b7fffffffffffffffffffffffffffffffffffffffffffffffffffffffffffffffff82611330565b6113758683611330565b95508019841693508086168417925050509392505050565b5f819050919050565b5f6113b06113ab6113a684610cf4565b61138d565b610cf4565b9050919050565b5f819050919050565b6113c983611396565b6113dd6113d5826113b7565b84845461133c565b825550505050565b5f90565b6113f16113e5565b6113fc8184846113c0565b505050565b5b8181101561141f576114145f826113e9565b600181019050611402565b5050565b601f821115611464576114358161130f565b61143e84611321565b8101602085101561144d578190505b61146161145985611321565b830182611401565b50505b505050565b5f82821c905092915050565b5f6114845f1984600802611469565b1980831691505092915050565b5f61149c8383611475565b9150826002028217905092915050565b6114b683836112d8565b67ffffffffffffffff8111156114cf576114ce6112e2565b5b6114d982546112a8565b6114e4828285611423565b5f601f831160018114611511575f84156114ff578287013590505b6115098582611491565b865550611570565b601f19841661151f8661130f565b5f5b8281101561154657848901358255600182019150602085019450602081019050611521565b86831015611563578489013561155f601f891682611475565b8355505b6001600288020188555050505b50505050505050565b5f8154611585816112a8565b61158f8186610f27565b9450600182165f81146115a957600181146115bf576115f1565b60ff1983168652811515602002860193506115f1565b6115c88561130f565b5f5b838110156115e9578154818901526001820191506020810190506115ca565b808801955050505b50505092915050565b5f6080820190508181035f8301526116128187611579565b905081810360208301526116268186611579565b9050818103604083015261163a8185611579565b9050818103606083015261164e8184611579565b905095945050505050565b7f46756e6472616973657220686173206e6f74206265656e2076616c69646174655f8201527f6420796574000000000000000000000000000000000000000000000000000000602082015250565b5f6116b3602583610f27565b91506116be82611659565b604082019050919050565b5f6020820190508181035f8301526116e0816116a7565b9050919050565b7f446f6e6174696f6e20616d6f756e74206d7573742062652067726561746572205f8201527f7468616e20300000000000000000000000000000000000000000000000000000602082015250565b5f611741602683610f27565b915061174c826116e7565b604082019050919050565b5f6020820190508181035f83015261176e81611735565b9050919050565b7f4e487b71000000000000000000000000000000000000000000000000000000005f52601160045260245ffd5b5f6117ac82610cf4565b91506117b783610cf4565b92508282019050808211156117cf576117ce611775565b5b9291505056fea2646970667358221220290355d6be625eb4ac706a4a7fd1fd8529d48ee7a93324f4bf94e620ffc3976464736f6c63430008140033",
  "immutableReferences": {},
  "source": "// SPDX-License-Identifier: GPL-3.0\r\npragma solidity >=0.8.2 <0.9.0;\r\n\r\nimport \"@openzeppelin/contracts/access/Ownable.sol\";\r\n\r\ncontract Fundraiser is Ownable {\r\n    struct Donation {\r\n        uint256 value;\r\n        uint256 date;\r\n    }\r\n\r\n    mapping(address => Donation[]) private _donations;\r\n\r\n    event DonationReceived(address indexed donor, uint256 value);\r\n    event Withdraw(uint256 amount);\r\n    event DetailsUpdated(\r\n        string title,\r\n        string description,\r\n        string url,\r\n        string imageURL\r\n    );\r\n\r\n    uint256 public id;\r\n    string public title;\r\n    string public description;\r\n    string public url;\r\n    string public imageURL;\r\n    bool public validationStatus;\r\n    bytes32 public signature;\r\n    address public validatorAddress;\r\n    address payable public beneficiary;\r\n    uint256 public totalDonations;\r\n\r\n    constructor(\r\n        uint256 _id,\r\n        string memory _title,\r\n        string memory _description,\r\n        string memory _url,\r\n        string memory _imageURL,\r\n        address payable _beneficiary\r\n    ) Ownable(msg.sender) {\r\n        id = _id;\r\n        title = _title;\r\n        description = _description;\r\n        url = _url;\r\n        imageURL = _imageURL;\r\n        beneficiary = _beneficiary;\r\n        validationStatus = false;\r\n        signature = 0;\r\n        validatorAddress = address(0);\r\n    }\r\n\r\n    // Validator sets validation status and signature\r\n    function signFundraiser(bool _status, bytes32 _signature, address _validatorAddress) public onlyOwner {\r\n        require(validationStatus == false, \"Fundraiser has already been validated\");\r\n        validationStatus = _status;\r\n        signature = _signature;\r\n        validatorAddress = _validatorAddress;\r\n    }\r\n\r\n    function donate() public payable {\r\n        require(validationStatus, \"Fundraiser has not been validated yet\");\r\n        require(msg.value > 0, \"Donation amount must be greater than 0\");\r\n        \r\n        Donation memory donation = Donation({\r\n            value: msg.value,\r\n            date: block.timestamp\r\n        });\r\n        _donations[msg.sender].push(donation);\r\n        \r\n        totalDonations += msg.value;\r\n        \r\n        emit DonationReceived(msg.sender, msg.value);\r\n    }\r\n\r\n    function updateDetails(\r\n        string calldata _title,\r\n        string calldata _description,\r\n        string calldata _url,\r\n        string calldata _imageURL\r\n    ) external onlyOwner {\r\n        title = _title;\r\n        description = _description;\r\n        url = _url;\r\n        imageURL = _imageURL;\r\n\r\n        emit DetailsUpdated(title, description, url, imageURL);\r\n    }\r\n\r\n    function setBeneficiary(address payable _beneficiary) public onlyOwner {\r\n        beneficiary = _beneficiary;\r\n    }\r\n\r\n    function myDonationsCount() public view returns (uint256) {\r\n        return _donations[msg.sender].length;\r\n    }\r\n\r\n    function withdraw() external onlyOwner {\r\n        require(address(this).balance > 0, \"No funds available for withdrawal\");\r\n\r\n        uint256 balance = address(this).balance;\r\n        beneficiary.transfer(balance);\r\n\r\n        emit Withdraw(balance);\r\n    }\r\n}\r\n",
  "sourcePath": "C:\\Users\\Diky Wiraguna\\Desktop\\cwfund-dgtsign\\contracts\\Fundraiser.sol",
  "compiler": {
    "name": "solc",
    "version": "0.8.20+commit.a1b79de6.Emscripten.clang"
  },
  "schemaVersion": "3.4.16",
  "updatedAt": "2024-03-03T17:57:57.525Z",
  "devdoc": {
    "errors": {
      "OwnableInvalidOwner(address)": [
        {
          "details": "The owner is not a valid owner account. (eg. `address(0)`)"
        }
      ],
      "OwnableUnauthorizedAccount(address)": [
        {
          "details": "The caller account is not authorized to perform an operation."
        }
      ]
    },
    "kind": "dev",
    "methods": {
      "owner()": {
        "details": "Returns the address of the current owner."
      },
      "renounceOwnership()": {
        "details": "Leaves the contract without owner. It will not be possible to call `onlyOwner` functions. Can only be called by the current owner. NOTE: Renouncing ownership will leave the contract without an owner, thereby disabling any functionality that is only available to the owner."
      },
      "transferOwnership(address)": {
        "details": "Transfers ownership of the contract to a new account (`newOwner`). Can only be called by the current owner."
      }
    },
    "version": 1
  },
  "userdoc": {
    "kind": "user",
    "methods": {},
    "version": 1
  }
}