{
  "contractName": "Fundraiser",
  "abi": [
    {
      "inputs": [
        {
          "internalType": "uint256",
          "name": "_id",
          "type": "uint256"
        },
        {
          "internalType": "string",
          "name": "_title",
          "type": "string"
        },
        {
          "internalType": "string",
          "name": "_description",
          "type": "string"
        },
        {
          "internalType": "string",
          "name": "_url",
          "type": "string"
        },
        {
          "internalType": "string",
          "name": "_imageURL",
          "type": "string"
        },
        {
          "internalType": "address payable",
          "name": "_beneficiary",
          "type": "address"
        },
        {
          "internalType": "address",
          "name": "_custodian",
          "type": "address"
        }
      ],
      "stateMutability": "nonpayable",
      "type": "constructor"
    },
    {
      "inputs": [
        {
          "internalType": "address",
          "name": "owner",
          "type": "address"
        }
      ],
      "name": "OwnableInvalidOwner",
      "type": "error"
    },
    {
      "inputs": [
        {
          "internalType": "address",
          "name": "account",
          "type": "address"
        }
      ],
      "name": "OwnableUnauthorizedAccount",
      "type": "error"
    },
    {
      "anonymous": false,
      "inputs": [
        {
          "indexed": false,
          "internalType": "string",
          "name": "title",
          "type": "string"
        },
        {
          "indexed": false,
          "internalType": "string",
          "name": "description",
          "type": "string"
        },
        {
          "indexed": false,
          "internalType": "string",
          "name": "url",
          "type": "string"
        },
        {
          "indexed": false,
          "internalType": "string",
          "name": "imageURL",
          "type": "string"
        }
      ],
      "name": "DetailsUpdated",
      "type": "event"
    },
    {
      "anonymous": false,
      "inputs": [
        {
          "indexed": true,
          "internalType": "address",
          "name": "donor",
          "type": "address"
        },
        {
          "indexed": false,
          "internalType": "uint256",
          "name": "value",
          "type": "uint256"
        }
      ],
      "name": "DonationReceived",
      "type": "event"
    },
    {
      "anonymous": false,
      "inputs": [
        {
          "indexed": true,
          "internalType": "address",
          "name": "previousOwner",
          "type": "address"
        },
        {
          "indexed": true,
          "internalType": "address",
          "name": "newOwner",
          "type": "address"
        }
      ],
      "name": "OwnershipTransferred",
      "type": "event"
    },
    {
      "anonymous": false,
      "inputs": [
        {
          "indexed": false,
          "internalType": "uint256",
          "name": "amount",
          "type": "uint256"
        }
      ],
      "name": "Withdraw",
      "type": "event"
    },
    {
      "inputs": [],
      "name": "beneficiary",
      "outputs": [
        {
          "internalType": "address payable",
          "name": "",
          "type": "address"
        }
      ],
      "stateMutability": "view",
      "type": "function"
    },
    {
      "inputs": [],
      "name": "description",
      "outputs": [
        {
          "internalType": "string",
          "name": "",
          "type": "string"
        }
      ],
      "stateMutability": "view",
      "type": "function"
    },
    {
      "inputs": [],
      "name": "donationsCount",
      "outputs": [
        {
          "internalType": "uint256",
          "name": "",
          "type": "uint256"
        }
      ],
      "stateMutability": "view",
      "type": "function"
    },
    {
      "inputs": [],
      "name": "id",
      "outputs": [
        {
          "internalType": "uint256",
          "name": "",
          "type": "uint256"
        }
      ],
      "stateMutability": "view",
      "type": "function"
    },
    {
      "inputs": [],
      "name": "imageURL",
      "outputs": [
        {
          "internalType": "string",
          "name": "",
          "type": "string"
        }
      ],
      "stateMutability": "view",
      "type": "function"
    },
    {
      "inputs": [],
      "name": "owner",
      "outputs": [
        {
          "internalType": "address",
          "name": "",
          "type": "address"
        }
      ],
      "stateMutability": "view",
      "type": "function"
    },
    {
      "inputs": [],
      "name": "renounceOwnership",
      "outputs": [],
      "stateMutability": "nonpayable",
      "type": "function"
    },
    {
      "inputs": [],
      "name": "signature",
      "outputs": [
        {
          "internalType": "bytes32",
          "name": "",
          "type": "bytes32"
        }
      ],
      "stateMutability": "view",
      "type": "function"
    },
    {
      "inputs": [],
      "name": "title",
      "outputs": [
        {
          "internalType": "string",
          "name": "",
          "type": "string"
        }
      ],
      "stateMutability": "view",
      "type": "function"
    },
    {
      "inputs": [],
      "name": "totalDonations",
      "outputs": [
        {
          "internalType": "uint256",
          "name": "",
          "type": "uint256"
        }
      ],
      "stateMutability": "view",
      "type": "function"
    },
    {
      "inputs": [
        {
          "internalType": "address",
          "name": "newOwner",
          "type": "address"
        }
      ],
      "name": "transferOwnership",
      "outputs": [],
      "stateMutability": "nonpayable",
      "type": "function"
    },
    {
      "inputs": [],
      "name": "url",
      "outputs": [
        {
          "internalType": "string",
          "name": "",
          "type": "string"
        }
      ],
      "stateMutability": "view",
      "type": "function"
    },
    {
      "inputs": [],
      "name": "validationStatus",
      "outputs": [
        {
          "internalType": "bool",
          "name": "",
          "type": "bool"
        }
      ],
      "stateMutability": "view",
      "type": "function"
    },
    {
      "inputs": [],
      "name": "validatorAddress",
      "outputs": [
        {
          "internalType": "address",
          "name": "",
          "type": "address"
        }
      ],
      "stateMutability": "view",
      "type": "function"
    },
    {
      "inputs": [
        {
          "internalType": "bool",
          "name": "_status",
          "type": "bool"
        },
        {
          "internalType": "bytes32",
          "name": "_signature",
          "type": "bytes32"
        },
        {
          "internalType": "address",
          "name": "_validatorAddress",
          "type": "address"
        }
      ],
      "name": "signFundraiser",
      "outputs": [],
      "stateMutability": "nonpayable",
      "type": "function"
    },
    {
      "inputs": [],
      "name": "donate",
      "outputs": [],
      "stateMutability": "payable",
      "type": "function"
    },
    {
      "inputs": [
        {
          "internalType": "string",
          "name": "_title",
          "type": "string"
        },
        {
          "internalType": "string",
          "name": "_description",
          "type": "string"
        },
        {
          "internalType": "string",
          "name": "_url",
          "type": "string"
        },
        {
          "internalType": "string",
          "name": "_imageURL",
          "type": "string"
        }
      ],
      "name": "updateDetails",
      "outputs": [],
      "stateMutability": "nonpayable",
      "type": "function"
    },
    {
      "inputs": [
        {
          "internalType": "address payable",
          "name": "_beneficiary",
          "type": "address"
        }
      ],
      "name": "setBeneficiary",
      "outputs": [],
      "stateMutability": "nonpayable",
      "type": "function"
    },
    {
      "inputs": [],
      "name": "myDonations",
      "outputs": [
        {
          "internalType": "uint256[]",
          "name": "values",
          "type": "uint256[]"
        },
        {
          "internalType": "uint256[]",
          "name": "dates",
          "type": "uint256[]"
        }
      ],
      "stateMutability": "view",
      "type": "function"
    },
    {
      "inputs": [],
      "name": "withdraw",
      "outputs": [],
      "stateMutability": "nonpayable",
      "type": "function"
    }
  ],
  "bytecode": "0x608060405234801562000010575f80fd5b506040516200247c3803806200247c8339818101604052810190620000369190620004ed565b335f73ffffffffffffffffffffffffffffffffffffffff168173ffffffffffffffffffffffffffffffffffffffff1603620000aa575f6040517f1e4fbdf7000000000000000000000000000000000000000000000000000000008152600401620000a1919062000628565b60405180910390fd5b620000bb81620001cc60201b60201c565b50866002819055508560039081620000d4919062000871565b508460049081620000e6919062000871565b508360059081620000f8919062000871565b5082600690816200010a919062000871565b508160075f6101000a81548173ffffffffffffffffffffffffffffffffffffffff021916908373ffffffffffffffffffffffffffffffffffffffff1602179055506200015c81620001cc60201b60201c565b5f600760146101000a81548160ff0219169083151502179055505f801b6008819055505f60095f6101000a81548173ffffffffffffffffffffffffffffffffffffffff021916908373ffffffffffffffffffffffffffffffffffffffff1602179055505050505050505062000955565b5f805f9054906101000a900473ffffffffffffffffffffffffffffffffffffffff169050815f806101000a81548173ffffffffffffffffffffffffffffffffffffffff021916908373ffffffffffffffffffffffffffffffffffffffff1602179055508173ffffffffffffffffffffffffffffffffffffffff168173ffffffffffffffffffffffffffffffffffffffff167f8be0079c531659141344cd1fd0a4f28419497f9722a3daafe3b4186f6b6457e060405160405180910390a35050565b5f604051905090565b5f80fd5b5f80fd5b5f819050919050565b620002b2816200029e565b8114620002bd575f80fd5b50565b5f81519050620002d081620002a7565b92915050565b5f80fd5b5f80fd5b5f601f19601f8301169050919050565b7f4e487b71000000000000000000000000000000000000000000000000000000005f52604160045260245ffd5b6200032682620002de565b810181811067ffffffffffffffff82111715620003485762000347620002ee565b5b80604052505050565b5f6200035c6200028d565b90506200036a82826200031b565b919050565b5f67ffffffffffffffff8211156200038c576200038b620002ee565b5b6200039782620002de565b9050602081019050919050565b5f5b83811015620003c3578082015181840152602081019050620003a6565b5f8484015250505050565b5f620003e4620003de846200036f565b62000351565b905082815260208101848484011115620004035762000402620002da565b5b62000410848285620003a4565b509392505050565b5f82601f8301126200042f576200042e620002d6565b5b815162000441848260208601620003ce565b91505092915050565b5f73ffffffffffffffffffffffffffffffffffffffff82169050919050565b5f62000475826200044a565b9050919050565b620004878162000469565b811462000492575f80fd5b50565b5f81519050620004a5816200047c565b92915050565b5f620004b7826200044a565b9050919050565b620004c981620004ab565b8114620004d4575f80fd5b50565b5f81519050620004e781620004be565b92915050565b5f805f805f805f60e0888a0312156200050b576200050a62000296565b5b5f6200051a8a828b01620002c0565b975050602088015167ffffffffffffffff8111156200053e576200053d6200029a565b5b6200054c8a828b0162000418565b965050604088015167ffffffffffffffff81111562000570576200056f6200029a565b5b6200057e8a828b0162000418565b955050606088015167ffffffffffffffff811115620005a257620005a16200029a565b5b620005b08a828b0162000418565b945050608088015167ffffffffffffffff811115620005d457620005d36200029a565b5b620005e28a828b0162000418565b93505060a0620005f58a828b0162000495565b92505060c0620006088a828b01620004d7565b91505092959891949750929550565b6200062281620004ab565b82525050565b5f6020820190506200063d5f83018462000617565b92915050565b5f81519050919050565b7f4e487b71000000000000000000000000000000000000000000000000000000005f52602260045260245ffd5b5f60028204905060018216806200069257607f821691505b602082108103620006a857620006a76200064d565b5b50919050565b5f819050815f5260205f209050919050565b5f6020601f8301049050919050565b5f82821b905092915050565b5f600883026200070c7fffffffffffffffffffffffffffffffffffffffffffffffffffffffffffffffff82620006cf565b620007188683620006cf565b95508019841693508086168417925050509392505050565b5f819050919050565b5f62000759620007536200074d846200029e565b62000730565b6200029e565b9050919050565b5f819050919050565b620007748362000739565b6200078c620007838262000760565b848454620006db565b825550505050565b5f90565b620007a262000794565b620007af81848462000769565b505050565b5b81811015620007d657620007ca5f8262000798565b600181019050620007b5565b5050565b601f8211156200082557620007ef81620006ae565b620007fa84620006c0565b810160208510156200080a578190505b620008226200081985620006c0565b830182620007b4565b50505b505050565b5f82821c905092915050565b5f620008475f19846008026200082a565b1980831691505092915050565b5f62000861838362000836565b9150826002028217905092915050565b6200087c8262000643565b67ffffffffffffffff811115620008985762000897620002ee565b5b620008a482546200067a565b620008b1828285620007da565b5f60209050601f831160018114620008e7575f8415620008d2578287015190505b620008de858262000854565b8655506200094d565b601f198416620008f786620006ae565b5f5b828110156200092057848901518255600182019150602085019450602081019050620008f9565b868310156200094057848901516200093c601f89168262000836565b8355505b6001600288020188555050505b505050505050565b611b1980620009635f395ff3fe60806040526004361061011e575f3560e01c80635600f04f1161009f578063af640d0f11610063578063af640d0f1461036b578063b90497e014610395578063de2ed893146103bf578063ed88c68e146103e9578063f2fde38b146103f35761011e565b80635600f04f146102af5780636049a45d146102d9578063715018a6146103015780637284e416146103175780638da5cb5b146103415761011e565b80633ccfd60b116100e65780633ccfd60b146101f15780633fe4676e1461020757806344a2563b146102315780634a79d50c1461025b57806351ff4847146102855761011e565b80631a57f7b4146101225780631c31f7101461014d5780631f522595146101755780632c94c33f1461019f57806338af3eed146101c7575b5f80fd5b34801561012d575f80fd5b5061013661041b565b604051610144929190610f62565b60405180910390f35b348015610158575f80fd5b50610173600480360381019061016e9190610ff9565b6105c1565b005b348015610180575f80fd5b5061018961060c565b6040516101969190611033565b60405180910390f35b3480156101aa575f80fd5b506101c560048036038101906101c091906110ef565b610612565b005b3480156101d2575f80fd5b506101db6106cd565b6040516101e8919061114e565b60405180910390f35b3480156101fc575f80fd5b506102056106f2565b005b348015610212575f80fd5b5061021b6107df565b6040516102289190611176565b60405180910390f35b34801561023c575f80fd5b50610245610804565b604051610252919061119e565b60405180910390f35b348015610266575f80fd5b5061026f610817565b60405161027c9190611241565b60405180910390f35b348015610290575f80fd5b506102996108a3565b6040516102a69190611270565b60405180910390f35b3480156102ba575f80fd5b506102c36108a9565b6040516102d09190611241565b60405180910390f35b3480156102e4575f80fd5b506102ff60048036038101906102fa91906112ea565b610935565b005b34801561030c575f80fd5b506103156109d0565b005b348015610322575f80fd5b5061032b6109e3565b6040516103389190611241565b60405180910390f35b34801561034c575f80fd5b50610355610a6f565b6040516103629190611176565b60405180910390f35b348015610376575f80fd5b5061037f610a96565b60405161038c9190611033565b60405180910390f35b3480156103a0575f80fd5b506103a9610a9c565b6040516103b69190611241565b60405180910390f35b3480156103ca575f80fd5b506103d3610b28565b6040516103e09190611033565b60405180910390f35b6103f1610b2e565b005b3480156103fe575f80fd5b50610419600480360381019061041491906113ce565b610ccf565b005b6060805f60015f3373ffffffffffffffffffffffffffffffffffffffff1673ffffffffffffffffffffffffffffffffffffffff1681526020019081526020015f208054905090508067ffffffffffffffff81111561047c5761047b6113f9565b5b6040519080825280602002602001820160405280156104aa5781602001602082028036833780820191505090505b5092508067ffffffffffffffff8111156104c7576104c66113f9565b5b6040519080825280602002602001820160405280156104f55781602001602082028036833780820191505090505b5091505f5b818110156105bb575f60015f3373ffffffffffffffffffffffffffffffffffffffff1673ffffffffffffffffffffffffffffffffffffffff1681526020019081526020015f20828154811061055257610551611426565b5b905f5260205f2090600202019050805f015485838151811061057757610576611426565b5b602002602001018181525050806001015484838151811061059b5761059a611426565b5b6020026020010181815250505080806105b390611480565b9150506104fa565b50509091565b6105c9610d53565b8060075f6101000a81548173ffffffffffffffffffffffffffffffffffffffff021916908373ffffffffffffffffffffffffffffffffffffffff16021790555050565b600b5481565b5f1515600760149054906101000a900460ff16151514610667576040517f08c379a000000000000000000000000000000000000000000000000000000000815260040161065e90611537565b60405180910390fd5b82600760146101000a81548160ff021916908315150217905550816008819055508060095f6101000a81548173ffffffffffffffffffffffffffffffffffffffff021916908373ffffffffffffffffffffffffffffffffffffffff160217905550505050565b60075f9054906101000a900473ffffffffffffffffffffffffffffffffffffffff1681565b6106fa610d53565b5f471161073c576040517f08c379a0000000000000000000000000000000000000000000000000000000008152600401610733906115c5565b60405180910390fd5b5f47905060075f9054906101000a900473ffffffffffffffffffffffffffffffffffffffff1673ffffffffffffffffffffffffffffffffffffffff166108fc8290811502906040515f60405180830381858888f193505050501580156107a4573d5f803e3d5ffd5b507f5b6b431d4476a211bb7d41c20d1aab9ae2321deee0d20be3d9fc9b1093fa6e3d816040516107d49190611033565b60405180910390a150565b60095f9054906101000a900473ffffffffffffffffffffffffffffffffffffffff1681565b600760149054906101000a900460ff1681565b6003805461082490611610565b80601f016020809104026020016040519081016040528092919081815260200182805461085090611610565b801561089b5780601f106108725761010080835404028352916020019161089b565b820191905f5260205f20905b81548152906001019060200180831161087e57829003601f168201915b505050505081565b60085481565b600580546108b690611610565b80601f01602080910402602001604051908101604052809291908181526020018280546108e290611610565b801561092d5780601f106109045761010080835404028352916020019161092d565b820191905f5260205f20905b81548152906001019060200180831161091057829003601f168201915b505050505081565b61093d610d53565b87876003918261094e9291906117e7565b508585600491826109609291906117e7565b508383600591826109729291906117e7565b508181600691826109849291906117e7565b507fab7b858a76f7f410a859fcd42382d57f243f86330875a685d74d96f60a6337f960036004600560066040516109be9493929190611935565b60405180910390a15050505050505050565b6109d8610d53565b6109e15f610dda565b565b600480546109f090611610565b80601f0160208091040260200160405190810160405280929190818152602001828054610a1c90611610565b8015610a675780601f10610a3e57610100808354040283529160200191610a67565b820191905f5260205f20905b815481529060010190602001808311610a4a57829003601f168201915b505050505081565b5f805f9054906101000a900473ffffffffffffffffffffffffffffffffffffffff16905090565b60025481565b60068054610aa990611610565b80601f0160208091040260200160405190810160405280929190818152602001828054610ad590611610565b8015610b205780601f10610af757610100808354040283529160200191610b20565b820191905f5260205f20905b815481529060010190602001808311610b0357829003601f168201915b505050505081565b600a5481565b600760149054906101000a900460ff16610b7d576040517f08c379a0000000000000000000000000000000000000000000000000000000008152600401610b7490611a04565b60405180910390fd5b5f3411610bbf576040517f08c379a0000000000000000000000000000000000000000000000000000000008152600401610bb690611a92565b60405180910390fd5b5f604051806040016040528034815260200142815250905060015f3373ffffffffffffffffffffffffffffffffffffffff1673ffffffffffffffffffffffffffffffffffffffff1681526020019081526020015f2081908060018154018082558091505060019003905f5260205f2090600202015f909190919091505f820151815f015560208201518160010155505034600a5f828254610c609190611ab0565b92505081905550600b5f815480929190610c7990611480565b91905055503373ffffffffffffffffffffffffffffffffffffffff167f264f630d9efa0d07053a31163641d9fcc0adafc9d9e76f1c37c2ce3a558d2c5234604051610cc49190611033565b60405180910390a250565b610cd7610d53565b5f73ffffffffffffffffffffffffffffffffffffffff168173ffffffffffffffffffffffffffffffffffffffff1603610d47575f6040517f1e4fbdf7000000000000000000000000000000000000000000000000000000008152600401610d3e9190611176565b60405180910390fd5b610d5081610dda565b50565b610d5b610e9b565b73ffffffffffffffffffffffffffffffffffffffff16610d79610a6f565b73ffffffffffffffffffffffffffffffffffffffff1614610dd857610d9c610e9b565b6040517f118cdaa7000000000000000000000000000000000000000000000000000000008152600401610dcf9190611176565b60405180910390fd5b565b5f805f9054906101000a900473ffffffffffffffffffffffffffffffffffffffff169050815f806101000a81548173ffffffffffffffffffffffffffffffffffffffff021916908373ffffffffffffffffffffffffffffffffffffffff1602179055508173ffffffffffffffffffffffffffffffffffffffff168173ffffffffffffffffffffffffffffffffffffffff167f8be0079c531659141344cd1fd0a4f28419497f9722a3daafe3b4186f6b6457e060405160405180910390a35050565b5f33905090565b5f81519050919050565b5f82825260208201905092915050565b5f819050602082019050919050565b5f819050919050565b610edd81610ecb565b82525050565b5f610eee8383610ed4565b60208301905092915050565b5f602082019050919050565b5f610f1082610ea2565b610f1a8185610eac565b9350610f2583610ebc565b805f5b83811015610f55578151610f3c8882610ee3565b9750610f4783610efa565b925050600181019050610f28565b5085935050505092915050565b5f6040820190508181035f830152610f7a8185610f06565b90508181036020830152610f8e8184610f06565b90509392505050565b5f80fd5b5f80fd5b5f73ffffffffffffffffffffffffffffffffffffffff82169050919050565b5f610fc882610f9f565b9050919050565b610fd881610fbe565b8114610fe2575f80fd5b50565b5f81359050610ff381610fcf565b92915050565b5f6020828403121561100e5761100d610f97565b5b5f61101b84828501610fe5565b91505092915050565b61102d81610ecb565b82525050565b5f6020820190506110465f830184611024565b92915050565b5f8115159050919050565b6110608161104c565b811461106a575f80fd5b50565b5f8135905061107b81611057565b92915050565b5f819050919050565b61109381611081565b811461109d575f80fd5b50565b5f813590506110ae8161108a565b92915050565b5f6110be82610f9f565b9050919050565b6110ce816110b4565b81146110d8575f80fd5b50565b5f813590506110e9816110c5565b92915050565b5f805f6060848603121561110657611105610f97565b5b5f6111138682870161106d565b9350506020611124868287016110a0565b9250506040611135868287016110db565b9150509250925092565b61114881610fbe565b82525050565b5f6020820190506111615f83018461113f565b92915050565b611170816110b4565b82525050565b5f6020820190506111895f830184611167565b92915050565b6111988161104c565b82525050565b5f6020820190506111b15f83018461118f565b92915050565b5f81519050919050565b5f82825260208201905092915050565b5f5b838110156111ee5780820151818401526020810190506111d3565b5f8484015250505050565b5f601f19601f8301169050919050565b5f611213826111b7565b61121d81856111c1565b935061122d8185602086016111d1565b611236816111f9565b840191505092915050565b5f6020820190508181035f8301526112598184611209565b905092915050565b61126a81611081565b82525050565b5f6020820190506112835f830184611261565b92915050565b5f80fd5b5f80fd5b5f80fd5b5f8083601f8401126112aa576112a9611289565b5b8235905067ffffffffffffffff8111156112c7576112c661128d565b5b6020830191508360018202830111156112e3576112e2611291565b5b9250929050565b5f805f805f805f806080898b03121561130657611305610f97565b5b5f89013567ffffffffffffffff81111561132357611322610f9b565b5b61132f8b828c01611295565b9850985050602089013567ffffffffffffffff81111561135257611351610f9b565b5b61135e8b828c01611295565b9650965050604089013567ffffffffffffffff81111561138157611380610f9b565b5b61138d8b828c01611295565b9450945050606089013567ffffffffffffffff8111156113b0576113af610f9b565b5b6113bc8b828c01611295565b92509250509295985092959890939650565b5f602082840312156113e3576113e2610f97565b5b5f6113f0848285016110db565b91505092915050565b7f4e487b71000000000000000000000000000000000000000000000000000000005f52604160045260245ffd5b7f4e487b71000000000000000000000000000000000000000000000000000000005f52603260045260245ffd5b7f4e487b71000000000000000000000000000000000000000000000000000000005f52601160045260245ffd5b5f61148a82610ecb565b91507fffffffffffffffffffffffffffffffffffffffffffffffffffffffffffffffff82036114bc576114bb611453565b5b600182019050919050565b7f46756e647261697365722068617320616c7265616479206265656e2076616c695f8201527f6461746564000000000000000000000000000000000000000000000000000000602082015250565b5f6115216025836111c1565b915061152c826114c7565b604082019050919050565b5f6020820190508181035f83015261154e81611515565b9050919050565b7f4e6f2066756e647320617661696c61626c6520666f72207769746864726177615f8201527f6c00000000000000000000000000000000000000000000000000000000000000602082015250565b5f6115af6021836111c1565b91506115ba82611555565b604082019050919050565b5f6020820190508181035f8301526115dc816115a3565b9050919050565b7f4e487b71000000000000000000000000000000000000000000000000000000005f52602260045260245ffd5b5f600282049050600182168061162757607f821691505b60208210810361163a576116396115e3565b5b50919050565b5f82905092915050565b5f819050815f5260205f209050919050565b5f6020601f8301049050919050565b5f82821b905092915050565b5f600883026116a67fffffffffffffffffffffffffffffffffffffffffffffffffffffffffffffffff8261166b565b6116b0868361166b565b95508019841693508086168417925050509392505050565b5f819050919050565b5f6116eb6116e66116e184610ecb565b6116c8565b610ecb565b9050919050565b5f819050919050565b611704836116d1565b611718611710826116f2565b848454611677565b825550505050565b5f90565b61172c611720565b6117378184846116fb565b505050565b5b8181101561175a5761174f5f82611724565b60018101905061173d565b5050565b601f82111561179f576117708161164a565b6117798461165c565b81016020851015611788578190505b61179c6117948561165c565b83018261173c565b50505b505050565b5f82821c905092915050565b5f6117bf5f19846008026117a4565b1980831691505092915050565b5f6117d783836117b0565b9150826002028217905092915050565b6117f18383611640565b67ffffffffffffffff81111561180a576118096113f9565b5b6118148254611610565b61181f82828561175e565b5f601f83116001811461184c575f841561183a578287013590505b61184485826117cc565b8655506118ab565b601f19841661185a8661164a565b5f5b828110156118815784890135825560018201915060208501945060208101905061185c565b8683101561189e578489013561189a601f8916826117b0565b8355505b6001600288020188555050505b50505050505050565b5f81546118c081611610565b6118ca81866111c1565b9450600182165f81146118e457600181146118fa5761192c565b60ff19831686528115156020028601935061192c565b6119038561164a565b5f5b8381101561192457815481890152600182019150602081019050611905565b808801955050505b50505092915050565b5f6080820190508181035f83015261194d81876118b4565b9050818103602083015261196181866118b4565b9050818103604083015261197581856118b4565b9050818103606083015261198981846118b4565b905095945050505050565b7f46756e6472616973657220686173206e6f74206265656e2076616c69646174655f8201527f6420796574000000000000000000000000000000000000000000000000000000602082015250565b5f6119ee6025836111c1565b91506119f982611994565b604082019050919050565b5f6020820190508181035f830152611a1b816119e2565b9050919050565b7f446f6e6174696f6e20616d6f756e74206d7573742062652067726561746572205f8201527f7468616e20300000000000000000000000000000000000000000000000000000602082015250565b5f611a7c6026836111c1565b9150611a8782611a22565b604082019050919050565b5f6020820190508181035f830152611aa981611a70565b9050919050565b5f611aba82610ecb565b9150611ac583610ecb565b9250828201905080821115611add57611adc611453565b5b9291505056fea264697066735822122085b1fc4f63ff310ff2c781568c2b2392ab067da8c841a147fad615620e5324a264736f6c63430008140033",
  "immutableReferences": {},
  "source": "// SPDX-License-Identifier: GPL-3.0\r\npragma solidity >=0.8.2 <0.9.0;\r\n\r\nimport \"@openzeppelin/contracts/access/Ownable.sol\";\r\n\r\ncontract Fundraiser is Ownable {\r\n    struct Donation {\r\n        uint256 value;\r\n        uint256 date;\r\n    }\r\n\r\n    mapping(address => Donation[]) private _donations;\r\n\r\n    event DonationReceived(address indexed donor, uint256 value);\r\n    event Withdraw(uint256 amount);\r\n    event DetailsUpdated(\r\n        string title,\r\n        string description,\r\n        string url,\r\n        string imageURL\r\n    );\r\n\r\n    uint256 public id;\r\n    string public title;\r\n    string public description;\r\n    string public url;\r\n    string public imageURL;\r\n    address payable public beneficiary;\r\n\r\n    bool public validationStatus;\r\n    bytes32 public signature;\r\n    address public validatorAddress;\r\n    \r\n    uint256 public totalDonations;\r\n    uint256 public donationsCount;\r\n\r\n    constructor(\r\n        uint256 _id,\r\n        string memory _title,\r\n        string memory _description,\r\n        string memory _url,\r\n        string memory _imageURL,\r\n        address payable _beneficiary,\r\n        address _custodian\r\n    ) Ownable(msg.sender) {\r\n        id = _id;\r\n        title = _title;\r\n        description = _description;\r\n        url = _url;\r\n        imageURL = _imageURL;\r\n        beneficiary = _beneficiary;\r\n        _transferOwnership(_custodian); \r\n        validationStatus = false;\r\n        signature = 0x0;\r\n        validatorAddress = address(0);\r\n    }\r\n\r\n    function signFundraiser(bool _status, bytes32 _signature, address _validatorAddress) public {\r\n        require(validationStatus == false, \"Fundraiser has already been validated\");\r\n        validationStatus = _status;\r\n        signature = _signature;\r\n        validatorAddress = _validatorAddress;\r\n    }\r\n\r\n    function donate() public payable {\r\n        require(validationStatus, \"Fundraiser has not been validated yet\");\r\n        require(msg.value > 0, \"Donation amount must be greater than 0\");\r\n        \r\n        Donation memory donation = Donation({\r\n            value: msg.value,\r\n            date: block.timestamp\r\n        });\r\n        _donations[msg.sender].push(donation);\r\n        \r\n        totalDonations += msg.value;\r\n        donationsCount++;\r\n        emit DonationReceived(msg.sender, msg.value);\r\n    }\r\n\r\n    function updateDetails(\r\n        string calldata _title,\r\n        string calldata _description,\r\n        string calldata _url,\r\n        string calldata _imageURL\r\n    ) external onlyOwner {\r\n        title = _title;\r\n        description = _description;\r\n        url = _url;\r\n        imageURL = _imageURL;\r\n\r\n        emit DetailsUpdated(title, description, url, imageURL);\r\n    }\r\n\r\n    function setBeneficiary(address payable _beneficiary) public onlyOwner {\r\n        beneficiary = _beneficiary;\r\n    }\r\n\r\n    function myDonations()\r\n        public\r\n        view\r\n        returns (uint256[] memory values, uint256[] memory dates)\r\n    {\r\n        uint256 count = _donations[msg.sender].length;\r\n        values = new uint256[](count);\r\n        dates = new uint256[](count);\r\n        for (uint256 i = 0; i < count; i++) {\r\n            Donation storage donation = _donations[msg.sender][i];\r\n            values[i] = donation.value;\r\n            dates[i] = donation.date;\r\n        }\r\n        return (values, dates);\r\n    }\r\n\r\n    // fallback() external payable {\r\n    //     totalDonations = totalDonations.add(msg.value);\r\n    //     donationsCount++;\r\n    // }\r\n\r\n    // receive() external payable {\r\n    //     totalDonations = totalDonations.add(msg.value);\r\n    //     donationsCount++;\r\n    // }\r\n\r\n    function withdraw() external onlyOwner {\r\n        require(address(this).balance > 0, \"No funds available for withdrawal\");\r\n\r\n        uint256 balance = address(this).balance;\r\n        beneficiary.transfer(balance);\r\n\r\n        emit Withdraw(balance);\r\n    }\r\n}\r\n",
  "sourcePath": "C:\\Users\\Diky Wiraguna\\Desktop\\cwfund-dgtsign\\contracts\\Fundraiser.sol",
  "compiler": {
    "name": "solc",
    "version": "0.8.20+commit.a1b79de6.Emscripten.clang"
  },
  "schemaVersion": "3.4.16",
  "updatedAt": "2024-03-07T16:22:35.467Z",
  "devdoc": {
    "errors": {
      "OwnableInvalidOwner(address)": [
        {
          "details": "The owner is not a valid owner account. (eg. `address(0)`)"
        }
      ],
      "OwnableUnauthorizedAccount(address)": [
        {
          "details": "The caller account is not authorized to perform an operation."
        }
      ]
    },
    "kind": "dev",
    "methods": {
      "owner()": {
        "details": "Returns the address of the current owner."
      },
      "renounceOwnership()": {
        "details": "Leaves the contract without owner. It will not be possible to call `onlyOwner` functions. Can only be called by the current owner. NOTE: Renouncing ownership will leave the contract without an owner, thereby disabling any functionality that is only available to the owner."
      },
      "transferOwnership(address)": {
        "details": "Transfers ownership of the contract to a new account (`newOwner`). Can only be called by the current owner."
      }
    },
    "version": 1
  },
  "userdoc": {
    "kind": "user",
    "methods": {},
    "version": 1
  }
}