{
  "contractName": "Fundraiser",
  "abi": [
    {
      "inputs": [
        {
          "internalType": "string",
          "name": "_name",
          "type": "string"
        },
        {
          "internalType": "string",
          "name": "_description",
          "type": "string"
        },
        {
          "internalType": "string",
          "name": "_url",
          "type": "string"
        },
        {
          "internalType": "string",
          "name": "_imageURL",
          "type": "string"
        },
        {
          "internalType": "address payable",
          "name": "_beneficiary",
          "type": "address"
        },
        {
          "internalType": "address",
          "name": "_custodian",
          "type": "address"
        }
      ],
      "stateMutability": "nonpayable",
      "type": "constructor"
    },
    {
      "inputs": [
        {
          "internalType": "address",
          "name": "owner",
          "type": "address"
        }
      ],
      "name": "OwnableInvalidOwner",
      "type": "error"
    },
    {
      "inputs": [
        {
          "internalType": "address",
          "name": "account",
          "type": "address"
        }
      ],
      "name": "OwnableUnauthorizedAccount",
      "type": "error"
    },
    {
      "anonymous": false,
      "inputs": [
        {
          "indexed": false,
          "internalType": "string",
          "name": "name",
          "type": "string"
        },
        {
          "indexed": false,
          "internalType": "string",
          "name": "description",
          "type": "string"
        },
        {
          "indexed": false,
          "internalType": "string",
          "name": "websiteURL",
          "type": "string"
        },
        {
          "indexed": false,
          "internalType": "string",
          "name": "imageURL",
          "type": "string"
        }
      ],
      "name": "DetailsUpdated",
      "type": "event"
    },
    {
      "anonymous": false,
      "inputs": [
        {
          "indexed": true,
          "internalType": "address",
          "name": "donor",
          "type": "address"
        },
        {
          "indexed": false,
          "internalType": "uint256",
          "name": "value",
          "type": "uint256"
        }
      ],
      "name": "DonationReceived",
      "type": "event"
    },
    {
      "anonymous": false,
      "inputs": [
        {
          "indexed": true,
          "internalType": "address",
          "name": "previousOwner",
          "type": "address"
        },
        {
          "indexed": true,
          "internalType": "address",
          "name": "newOwner",
          "type": "address"
        }
      ],
      "name": "OwnershipTransferred",
      "type": "event"
    },
    {
      "anonymous": false,
      "inputs": [
        {
          "indexed": false,
          "internalType": "uint256",
          "name": "amount",
          "type": "uint256"
        }
      ],
      "name": "Withdraw",
      "type": "event"
    },
    {
      "stateMutability": "payable",
      "type": "fallback"
    },
    {
      "inputs": [],
      "name": "beneficiary",
      "outputs": [
        {
          "internalType": "address payable",
          "name": "",
          "type": "address"
        }
      ],
      "stateMutability": "view",
      "type": "function"
    },
    {
      "inputs": [],
      "name": "description",
      "outputs": [
        {
          "internalType": "string",
          "name": "",
          "type": "string"
        }
      ],
      "stateMutability": "view",
      "type": "function"
    },
    {
      "inputs": [],
      "name": "donationsCount",
      "outputs": [
        {
          "internalType": "uint256",
          "name": "",
          "type": "uint256"
        }
      ],
      "stateMutability": "view",
      "type": "function"
    },
    {
      "inputs": [],
      "name": "imageURL",
      "outputs": [
        {
          "internalType": "string",
          "name": "",
          "type": "string"
        }
      ],
      "stateMutability": "view",
      "type": "function"
    },
    {
      "inputs": [],
      "name": "name",
      "outputs": [
        {
          "internalType": "string",
          "name": "",
          "type": "string"
        }
      ],
      "stateMutability": "view",
      "type": "function"
    },
    {
      "inputs": [],
      "name": "owner",
      "outputs": [
        {
          "internalType": "address",
          "name": "",
          "type": "address"
        }
      ],
      "stateMutability": "view",
      "type": "function"
    },
    {
      "inputs": [],
      "name": "renounceOwnership",
      "outputs": [],
      "stateMutability": "nonpayable",
      "type": "function"
    },
    {
      "inputs": [],
      "name": "totalDonations",
      "outputs": [
        {
          "internalType": "uint256",
          "name": "",
          "type": "uint256"
        }
      ],
      "stateMutability": "view",
      "type": "function"
    },
    {
      "inputs": [
        {
          "internalType": "address",
          "name": "newOwner",
          "type": "address"
        }
      ],
      "name": "transferOwnership",
      "outputs": [],
      "stateMutability": "nonpayable",
      "type": "function"
    },
    {
      "inputs": [],
      "name": "url",
      "outputs": [
        {
          "internalType": "string",
          "name": "",
          "type": "string"
        }
      ],
      "stateMutability": "view",
      "type": "function"
    },
    {
      "stateMutability": "payable",
      "type": "receive"
    },
    {
      "inputs": [
        {
          "internalType": "string",
          "name": "_name",
          "type": "string"
        },
        {
          "internalType": "string",
          "name": "_description",
          "type": "string"
        },
        {
          "internalType": "string",
          "name": "_url",
          "type": "string"
        },
        {
          "internalType": "string",
          "name": "_imageURL",
          "type": "string"
        }
      ],
      "name": "updateDetails",
      "outputs": [],
      "stateMutability": "nonpayable",
      "type": "function"
    },
    {
      "inputs": [
        {
          "internalType": "address payable",
          "name": "_beneficiary",
          "type": "address"
        }
      ],
      "name": "setBeneficiary",
      "outputs": [],
      "stateMutability": "nonpayable",
      "type": "function"
    },
    {
      "inputs": [],
      "name": "myDonationsCount",
      "outputs": [
        {
          "internalType": "uint256",
          "name": "",
          "type": "uint256"
        }
      ],
      "stateMutability": "view",
      "type": "function"
    },
    {
      "inputs": [],
      "name": "donate",
      "outputs": [],
      "stateMutability": "payable",
      "type": "function"
    },
    {
      "inputs": [],
      "name": "myDonations",
      "outputs": [
        {
          "internalType": "uint256[]",
          "name": "values",
          "type": "uint256[]"
        },
        {
          "internalType": "uint256[]",
          "name": "dates",
          "type": "uint256[]"
        }
      ],
      "stateMutability": "view",
      "type": "function"
    },
    {
      "inputs": [],
      "name": "withdraw",
      "outputs": [],
      "stateMutability": "nonpayable",
      "type": "function"
    }
  ],
  "bytecode": "0x608060405234801562000010575f80fd5b5060405162001f8038038062001f808339818101604052810190620000369190620005b1565b805f73ffffffffffffffffffffffffffffffffffffffff168173ffffffffffffffffffffffffffffffffffffffff1603620000aa575f6040517f1e4fbdf7000000000000000000000000000000000000000000000000000000008152600401620000a19190620006d6565b60405180910390fd5b620000bb816200016160201b60201c565b508560029081620000cd919062000928565b508460039081620000df919062000928565b508360049081620000f1919062000928565b50826005908162000103919062000928565b508160065f6101000a81548173ffffffffffffffffffffffffffffffffffffffff021916908373ffffffffffffffffffffffffffffffffffffffff16021790555062000155816200022260201b60201c565b50505050505062000a0c565b5f805f9054906101000a900473ffffffffffffffffffffffffffffffffffffffff169050815f806101000a81548173ffffffffffffffffffffffffffffffffffffffff021916908373ffffffffffffffffffffffffffffffffffffffff1602179055508173ffffffffffffffffffffffffffffffffffffffff168173ffffffffffffffffffffffffffffffffffffffff167f8be0079c531659141344cd1fd0a4f28419497f9722a3daafe3b4186f6b6457e060405160405180910390a35050565b62000232620002b960201b60201c565b5f73ffffffffffffffffffffffffffffffffffffffff168173ffffffffffffffffffffffffffffffffffffffff1603620002a5575f6040517f1e4fbdf70000000000000000000000000000000000000000000000000000000081526004016200029c9190620006d6565b60405180910390fd5b620002b6816200016160201b60201c565b50565b620002c96200035b60201b60201c565b73ffffffffffffffffffffffffffffffffffffffff16620002ef6200036260201b60201c565b73ffffffffffffffffffffffffffffffffffffffff161462000359576200031b6200035b60201b60201c565b6040517f118cdaa7000000000000000000000000000000000000000000000000000000008152600401620003509190620006d6565b60405180910390fd5b565b5f33905090565b5f805f9054906101000a900473ffffffffffffffffffffffffffffffffffffffff16905090565b5f604051905090565b5f80fd5b5f80fd5b5f80fd5b5f80fd5b5f601f19601f8301169050919050565b7f4e487b71000000000000000000000000000000000000000000000000000000005f52604160045260245ffd5b620003ea82620003a2565b810181811067ffffffffffffffff821117156200040c576200040b620003b2565b5b80604052505050565b5f6200042062000389565b90506200042e8282620003df565b919050565b5f67ffffffffffffffff82111562000450576200044f620003b2565b5b6200045b82620003a2565b9050602081019050919050565b5f5b83811015620004875780820151818401526020810190506200046a565b5f8484015250505050565b5f620004a8620004a28462000433565b62000415565b905082815260208101848484011115620004c757620004c66200039e565b5b620004d484828562000468565b509392505050565b5f82601f830112620004f357620004f26200039a565b5b81516200050584826020860162000492565b91505092915050565b5f73ffffffffffffffffffffffffffffffffffffffff82169050919050565b5f62000539826200050e565b9050919050565b6200054b816200052d565b811462000556575f80fd5b50565b5f81519050620005698162000540565b92915050565b5f6200057b826200050e565b9050919050565b6200058d816200056f565b811462000598575f80fd5b50565b5f81519050620005ab8162000582565b92915050565b5f805f805f8060c08789031215620005ce57620005cd62000392565b5b5f87015167ffffffffffffffff811115620005ee57620005ed62000396565b5b620005fc89828a01620004dc565b965050602087015167ffffffffffffffff81111562000620576200061f62000396565b5b6200062e89828a01620004dc565b955050604087015167ffffffffffffffff81111562000652576200065162000396565b5b6200066089828a01620004dc565b945050606087015167ffffffffffffffff81111562000684576200068362000396565b5b6200069289828a01620004dc565b9350506080620006a589828a0162000559565b92505060a0620006b889828a016200059b565b9150509295509295509295565b620006d0816200056f565b82525050565b5f602082019050620006eb5f830184620006c5565b92915050565b5f81519050919050565b7f4e487b71000000000000000000000000000000000000000000000000000000005f52602260045260245ffd5b5f60028204905060018216806200074057607f821691505b602082108103620007565762000755620006fb565b5b50919050565b5f819050815f5260205f209050919050565b5f6020601f8301049050919050565b5f82821b905092915050565b5f60088302620007ba7fffffffffffffffffffffffffffffffffffffffffffffffffffffffffffffffff826200077d565b620007c686836200077d565b95508019841693508086168417925050509392505050565b5f819050919050565b5f819050919050565b5f620008106200080a6200080484620007de565b620007e7565b620007de565b9050919050565b5f819050919050565b6200082b83620007f0565b620008436200083a8262000817565b84845462000789565b825550505050565b5f90565b620008596200084b565b6200086681848462000820565b505050565b5b818110156200088d57620008815f826200084f565b6001810190506200086c565b5050565b601f821115620008dc57620008a6816200075c565b620008b1846200076e565b81016020851015620008c1578190505b620008d9620008d0856200076e565b8301826200086b565b50505b505050565b5f82821c905092915050565b5f620008fe5f1984600802620008e1565b1980831691505092915050565b5f620009188383620008ed565b9150826002028217905092915050565b6200093382620006f1565b67ffffffffffffffff8111156200094f576200094e620003b2565b5b6200095b825462000728565b6200096882828562000891565b5f60209050601f8311600181146200099e575f841562000989578287015190505b6200099585826200090b565b86555062000a04565b601f198416620009ae866200075c565b5f5b82811015620009d757848901518255600182019150602085019450602081019050620009b0565b86831015620009f75784890151620009f3601f891682620008ed565b8355505b6001600288020188555050505b505050505050565b6115668062000a1a5f395ff3fe6080604052600436106100f6575f3560e01c80636049a45d11610089578063b90497e011610058578063b90497e0146102dc578063de2ed89314610306578063ed88c68e14610330578063f2fde38b1461033a57610105565b80636049a45d1461024a578063715018a6146102725780637284e416146102885780638da5cb5b146102b257610105565b80631f522595116100c55780631f522595146101b657806338af3eed146101e05780633ccfd60b1461020a5780635600f04f1461022057610105565b80630180b97c1461010f57806306fdde03146101395780631a57f7b4146101635780631c31f7101461018e57610105565b3661010557610103610362565b005b61010d610362565b005b34801561011a575f80fd5b506101236103e1565b6040516101309190610c47565b60405180910390f35b348015610144575f80fd5b5061014d610428565b60405161015a9190610cea565b60405180910390f35b34801561016e575f80fd5b506101776104b4565b604051610185929190610dc1565b60405180910390f35b348015610199575f80fd5b506101b460048036038101906101af9190610e58565b610621565b005b3480156101c1575f80fd5b506101ca61066c565b6040516101d79190610c47565b60405180910390f35b3480156101eb575f80fd5b506101f4610672565b6040516102019190610e92565b60405180910390f35b348015610215575f80fd5b5061021e610697565b005b34801561022b575f80fd5b50610234610742565b6040516102419190610cea565b60405180910390f35b348015610255575f80fd5b50610270600480360381019061026b9190610f0c565b6107ce565b005b34801561027d575f80fd5b50610286610869565b005b348015610293575f80fd5b5061029c61087c565b6040516102a99190610cea565b60405180910390f35b3480156102bd575f80fd5b506102c6610908565b6040516102d39190611010565b60405180910390f35b3480156102e7575f80fd5b506102f061092f565b6040516102fd9190610cea565b60405180910390f35b348015610311575f80fd5b5061031a6109bb565b6040516103279190610c47565b60405180910390f35b6103386109c1565b005b348015610345575f80fd5b50610360600480360381019061035b9190611053565b610a5c565b005b3460075f82825461037391906110ab565b9250508190555060085f81548092919061038c906110de565b91905055503373ffffffffffffffffffffffffffffffffffffffff167f264f630d9efa0d07053a31163641d9fcc0adafc9d9e76f1c37c2ce3a558d2c52346040516103d79190610c47565b60405180910390a2565b5f60015f3373ffffffffffffffffffffffffffffffffffffffff1673ffffffffffffffffffffffffffffffffffffffff1681526020019081526020015f2080549050905090565b6002805461043590611152565b80601f016020809104026020016040519081016040528092919081815260200182805461046190611152565b80156104ac5780601f10610483576101008083540402835291602001916104ac565b820191905f5260205f20905b81548152906001019060200180831161048f57829003601f168201915b505050505081565b6060805f6104c06103e1565b90508067ffffffffffffffff8111156104dc576104db611182565b5b60405190808252806020026020018201604052801561050a5781602001602082028036833780820191505090505b5092508067ffffffffffffffff81111561052757610526611182565b5b6040519080825280602002602001820160405280156105555781602001602082028036833780820191505090505b5091505f5b8181101561061b575f60015f3373ffffffffffffffffffffffffffffffffffffffff1673ffffffffffffffffffffffffffffffffffffffff1681526020019081526020015f2082815481106105b2576105b16111af565b5b905f5260205f2090600202019050805f01548583815181106105d7576105d66111af565b5b60200260200101818152505080600101548483815181106105fb576105fa6111af565b5b602002602001018181525050508080610613906110de565b91505061055a565b50509091565b610629610ae0565b8060065f6101000a81548173ffffffffffffffffffffffffffffffffffffffff021916908373ffffffffffffffffffffffffffffffffffffffff16021790555050565b60085481565b60065f9054906101000a900473ffffffffffffffffffffffffffffffffffffffff1681565b61069f610ae0565b5f47905060065f9054906101000a900473ffffffffffffffffffffffffffffffffffffffff1673ffffffffffffffffffffffffffffffffffffffff166108fc8290811502906040515f60405180830381858888f19350505050158015610707573d5f803e3d5ffd5b507f5b6b431d4476a211bb7d41c20d1aab9ae2321deee0d20be3d9fc9b1093fa6e3d816040516107379190610c47565b60405180910390a150565b6004805461074f90611152565b80601f016020809104026020016040519081016040528092919081815260200182805461077b90611152565b80156107c65780601f1061079d576101008083540402835291602001916107c6565b820191905f5260205f20905b8154815290600101906020018083116107a957829003601f168201915b505050505081565b6107d6610ae0565b8787600291826107e7929190611383565b508585600391826107f9929190611383565b5083836004918261080b929190611383565b5081816005918261081d929190611383565b507fab7b858a76f7f410a859fcd42382d57f243f86330875a685d74d96f60a6337f9600260036004600560405161085794939291906114d1565b60405180910390a15050505050505050565b610871610ae0565b61087a5f610b67565b565b6003805461088990611152565b80601f01602080910402602001604051908101604052809291908181526020018280546108b590611152565b80156109005780601f106108d757610100808354040283529160200191610900565b820191905f5260205f20905b8154815290600101906020018083116108e357829003601f168201915b505050505081565b5f805f9054906101000a900473ffffffffffffffffffffffffffffffffffffffff16905090565b6005805461093c90611152565b80601f016020809104026020016040519081016040528092919081815260200182805461096890611152565b80156109b35780601f1061098a576101008083540402835291602001916109b3565b820191905f5260205f20905b81548152906001019060200180831161099657829003601f168201915b505050505081565b60075481565b5f604051806040016040528034815260200142815250905060015f3373ffffffffffffffffffffffffffffffffffffffff1673ffffffffffffffffffffffffffffffffffffffff1681526020019081526020015f2081908060018154018082558091505060019003905f5260205f2090600202015f909190919091505f820151815f0155602082015181600101555050610a59610362565b50565b610a64610ae0565b5f73ffffffffffffffffffffffffffffffffffffffff168173ffffffffffffffffffffffffffffffffffffffff1603610ad4575f6040517f1e4fbdf7000000000000000000000000000000000000000000000000000000008152600401610acb9190611010565b60405180910390fd5b610add81610b67565b50565b610ae8610c28565b73ffffffffffffffffffffffffffffffffffffffff16610b06610908565b73ffffffffffffffffffffffffffffffffffffffff1614610b6557610b29610c28565b6040517f118cdaa7000000000000000000000000000000000000000000000000000000008152600401610b5c9190611010565b60405180910390fd5b565b5f805f9054906101000a900473ffffffffffffffffffffffffffffffffffffffff169050815f806101000a81548173ffffffffffffffffffffffffffffffffffffffff021916908373ffffffffffffffffffffffffffffffffffffffff1602179055508173ffffffffffffffffffffffffffffffffffffffff168173ffffffffffffffffffffffffffffffffffffffff167f8be0079c531659141344cd1fd0a4f28419497f9722a3daafe3b4186f6b6457e060405160405180910390a35050565b5f33905090565b5f819050919050565b610c4181610c2f565b82525050565b5f602082019050610c5a5f830184610c38565b92915050565b5f81519050919050565b5f82825260208201905092915050565b5f5b83811015610c97578082015181840152602081019050610c7c565b5f8484015250505050565b5f601f19601f8301169050919050565b5f610cbc82610c60565b610cc68185610c6a565b9350610cd6818560208601610c7a565b610cdf81610ca2565b840191505092915050565b5f6020820190508181035f830152610d028184610cb2565b905092915050565b5f81519050919050565b5f82825260208201905092915050565b5f819050602082019050919050565b610d3c81610c2f565b82525050565b5f610d4d8383610d33565b60208301905092915050565b5f602082019050919050565b5f610d6f82610d0a565b610d798185610d14565b9350610d8483610d24565b805f5b83811015610db4578151610d9b8882610d42565b9750610da683610d59565b925050600181019050610d87565b5085935050505092915050565b5f6040820190508181035f830152610dd98185610d65565b90508181036020830152610ded8184610d65565b90509392505050565b5f80fd5b5f80fd5b5f73ffffffffffffffffffffffffffffffffffffffff82169050919050565b5f610e2782610dfe565b9050919050565b610e3781610e1d565b8114610e41575f80fd5b50565b5f81359050610e5281610e2e565b92915050565b5f60208284031215610e6d57610e6c610df6565b5b5f610e7a84828501610e44565b91505092915050565b610e8c81610e1d565b82525050565b5f602082019050610ea55f830184610e83565b92915050565b5f80fd5b5f80fd5b5f80fd5b5f8083601f840112610ecc57610ecb610eab565b5b8235905067ffffffffffffffff811115610ee957610ee8610eaf565b5b602083019150836001820283011115610f0557610f04610eb3565b5b9250929050565b5f805f805f805f806080898b031215610f2857610f27610df6565b5b5f89013567ffffffffffffffff811115610f4557610f44610dfa565b5b610f518b828c01610eb7565b9850985050602089013567ffffffffffffffff811115610f7457610f73610dfa565b5b610f808b828c01610eb7565b9650965050604089013567ffffffffffffffff811115610fa357610fa2610dfa565b5b610faf8b828c01610eb7565b9450945050606089013567ffffffffffffffff811115610fd257610fd1610dfa565b5b610fde8b828c01610eb7565b92509250509295985092959890939650565b5f610ffa82610dfe565b9050919050565b61100a81610ff0565b82525050565b5f6020820190506110235f830184611001565b92915050565b61103281610ff0565b811461103c575f80fd5b50565b5f8135905061104d81611029565b92915050565b5f6020828403121561106857611067610df6565b5b5f6110758482850161103f565b91505092915050565b7f4e487b71000000000000000000000000000000000000000000000000000000005f52601160045260245ffd5b5f6110b582610c2f565b91506110c083610c2f565b92508282019050808211156110d8576110d761107e565b5b92915050565b5f6110e882610c2f565b91507fffffffffffffffffffffffffffffffffffffffffffffffffffffffffffffffff820361111a5761111961107e565b5b600182019050919050565b7f4e487b71000000000000000000000000000000000000000000000000000000005f52602260045260245ffd5b5f600282049050600182168061116957607f821691505b60208210810361117c5761117b611125565b5b50919050565b7f4e487b71000000000000000000000000000000000000000000000000000000005f52604160045260245ffd5b7f4e487b71000000000000000000000000000000000000000000000000000000005f52603260045260245ffd5b5f82905092915050565b5f819050815f5260205f209050919050565b5f6020601f8301049050919050565b5f82821b905092915050565b5f600883026112427fffffffffffffffffffffffffffffffffffffffffffffffffffffffffffffffff82611207565b61124c8683611207565b95508019841693508086168417925050509392505050565b5f819050919050565b5f61128761128261127d84610c2f565b611264565b610c2f565b9050919050565b5f819050919050565b6112a08361126d565b6112b46112ac8261128e565b848454611213565b825550505050565b5f90565b6112c86112bc565b6112d3818484611297565b505050565b5b818110156112f6576112eb5f826112c0565b6001810190506112d9565b5050565b601f82111561133b5761130c816111e6565b611315846111f8565b81016020851015611324578190505b611338611330856111f8565b8301826112d8565b50505b505050565b5f82821c905092915050565b5f61135b5f1984600802611340565b1980831691505092915050565b5f611373838361134c565b9150826002028217905092915050565b61138d83836111dc565b67ffffffffffffffff8111156113a6576113a5611182565b5b6113b08254611152565b6113bb8282856112fa565b5f601f8311600181146113e8575f84156113d6578287013590505b6113e08582611368565b865550611447565b601f1984166113f6866111e6565b5f5b8281101561141d578489013582556001820191506020850194506020810190506113f8565b8683101561143a5784890135611436601f89168261134c565b8355505b6001600288020188555050505b50505050505050565b5f815461145c81611152565b6114668186610c6a565b9450600182165f81146114805760018114611496576114c8565b60ff1983168652811515602002860193506114c8565b61149f856111e6565b5f5b838110156114c0578154818901526001820191506020810190506114a1565b808801955050505b50505092915050565b5f6080820190508181035f8301526114e98187611450565b905081810360208301526114fd8186611450565b905081810360408301526115118185611450565b905081810360608301526115258184611450565b90509594505050505056fea2646970667358221220525c22ea62eb5ca66b0fe3fa70880e96c025139f4136a83574db48534a515dd464736f6c63430008140033",
  "immutableReferences": {},
  "source": "// SPDX-License-Identifier: GPL-3.0\r\npragma solidity >=0.8.2 <0.9.0;\r\n\r\nimport \"@openzeppelin/contracts/access/Ownable.sol\";\r\n\r\ncontract Fundraiser is Ownable {\r\n    struct Donation {\r\n        uint256 value;\r\n        uint256 date;\r\n    }\r\n\r\n    mapping(address => Donation[]) private _donations;\r\n\r\n    event DonationReceived(address indexed donor, uint256 value);\r\n    event Withdraw(uint256 amount);\r\n    event DetailsUpdated(\r\n        string name,\r\n        string description,\r\n        string websiteURL,\r\n        string imageURL\r\n    );\r\n\r\n    string public name;\r\n    string public description;\r\n    string public url;\r\n    string public imageURL;\r\n    address payable public beneficiary;\r\n    uint256 public totalDonations;\r\n    uint256 public donationsCount;\r\n\r\n    constructor(\r\n        string memory _name,\r\n        string memory _description,\r\n        string memory _url,\r\n        string memory _imageURL,\r\n        address payable _beneficiary,\r\n        address _custodian\r\n    ) Ownable(_custodian) {\r\n        name = _name;\r\n        description = _description;\r\n        url = _url;\r\n        imageURL = _imageURL;\r\n        beneficiary = _beneficiary;\r\n        transferOwnership(_custodian);\r\n    }\r\n\r\n    fallback() external payable {\r\n        receiveDonation();\r\n    }\r\n\r\n    receive() external payable {\r\n        receiveDonation();\r\n    }\r\n\r\n    function receiveDonation() private {\r\n        totalDonations += msg.value;\r\n        donationsCount++;\r\n        emit DonationReceived(msg.sender, msg.value);\r\n    }\r\n\r\n    function updateDetails(\r\n        string calldata _name,\r\n        string calldata _description,\r\n        string calldata _url,\r\n        string calldata _imageURL\r\n    ) external onlyOwner {\r\n        name = _name;\r\n        description = _description;\r\n        url = _url;\r\n        imageURL = _imageURL;\r\n        emit DetailsUpdated(name, description, url, imageURL);\r\n    }\r\n\r\n    function setBeneficiary(address payable _beneficiary) public onlyOwner {\r\n        beneficiary = _beneficiary;\r\n    }\r\n\r\n    function myDonationsCount() public view returns (uint256) {\r\n        return _donations[msg.sender].length;\r\n    }\r\n\r\n    function donate() public payable {\r\n        Donation memory donation = Donation({\r\n            value: msg.value,\r\n            date: block.timestamp\r\n        });\r\n        _donations[msg.sender].push(donation);\r\n        receiveDonation();\r\n    }\r\n\r\n    function myDonations()\r\n        public\r\n        view\r\n        returns (uint256[] memory values, uint256[] memory dates)\r\n    {\r\n        uint256 count = myDonationsCount();\r\n        values = new uint256[](count);\r\n        dates = new uint256[](count);\r\n        for (uint256 i = 0; i < count; i++) {\r\n            Donation storage donation = _donations[msg.sender][i];\r\n            values[i] = donation.value;\r\n            dates[i] = donation.date;\r\n        }\r\n        return (values, dates);\r\n    }\r\n\r\n    function withdraw() public onlyOwner {\r\n        uint256 balance = address(this).balance;\r\n        beneficiary.transfer(balance);\r\n        emit Withdraw(balance);\r\n    }\r\n}",
  "sourcePath": "C:\\Users\\Diky Wiraguna\\Desktop\\cwfund-dgtsign\\contracts\\Fundraiser.sol",
  "compiler": {
    "name": "solc",
    "version": "0.8.20+commit.a1b79de6.Emscripten.clang"
  },
  "schemaVersion": "3.4.16",
  "updatedAt": "2024-02-24T14:13:31.128Z",
  "devdoc": {
    "errors": {
      "OwnableInvalidOwner(address)": [
        {
          "details": "The owner is not a valid owner account. (eg. `address(0)`)"
        }
      ],
      "OwnableUnauthorizedAccount(address)": [
        {
          "details": "The caller account is not authorized to perform an operation."
        }
      ]
    },
    "kind": "dev",
    "methods": {
      "owner()": {
        "details": "Returns the address of the current owner."
      },
      "renounceOwnership()": {
        "details": "Leaves the contract without owner. It will not be possible to call `onlyOwner` functions. Can only be called by the current owner. NOTE: Renouncing ownership will leave the contract without an owner, thereby disabling any functionality that is only available to the owner."
      },
      "transferOwnership(address)": {
        "details": "Transfers ownership of the contract to a new account (`newOwner`). Can only be called by the current owner."
      }
    },
    "version": 1
  },
  "userdoc": {
    "kind": "user",
    "methods": {},
    "version": 1
  }
}